{"abi":[{"type":"constructor","inputs":[],"stateMutability":"nonpayable"},{"type":"function","name":"UPGRADE_INTERFACE_VERSION","inputs":[],"outputs":[{"name":"","type":"string","internalType":"string"}],"stateMutability":"view"},{"type":"function","name":"approve","inputs":[{"name":"to","type":"address","internalType":"address"},{"name":"tokenId","type":"uint256","internalType":"uint256"}],"outputs":[],"stateMutability":"nonpayable"},{"type":"function","name":"balanceOf","inputs":[{"name":"owner","type":"address","internalType":"address"}],"outputs":[{"name":"","type":"uint256","internalType":"uint256"}],"stateMutability":"view"},{"type":"function","name":"burn","inputs":[{"name":"tokenId","type":"uint256","internalType":"uint256"}],"outputs":[],"stateMutability":"nonpayable"},{"type":"function","name":"editBaseCard","inputs":[{"name":"_tokenId","type":"uint256","internalType":"uint256"},{"name":"_newCardData","type":"tuple","internalType":"struct IBaseCard.CardData","components":[{"name":"imageURI","type":"string","internalType":"string"},{"name":"nickname","type":"string","internalType":"string"},{"name":"role","type":"string","internalType":"string"},{"name":"bio","type":"string","internalType":"string"}]},{"name":"_socialKeys","type":"string[]","internalType":"string[]"},{"name":"_socialValues","type":"string[]","internalType":"string[]"}],"outputs":[],"stateMutability":"nonpayable"},{"type":"function","name":"getApproved","inputs":[{"name":"tokenId","type":"uint256","internalType":"uint256"}],"outputs":[{"name":"","type":"address","internalType":"address"}],"stateMutability":"view"},{"type":"function","name":"getSocial","inputs":[{"name":"_tokenId","type":"uint256","internalType":"uint256"},{"name":"_key","type":"string","internalType":"string"}],"outputs":[{"name":"","type":"string","internalType":"string"}],"stateMutability":"view"},{"type":"function","name":"grantTokenDelegate","inputs":[{"name":"_tokenId","type":"uint256","internalType":"uint256"},{"name":"_delegate","type":"address","internalType":"address"}],"outputs":[],"stateMutability":"nonpayable"},{"type":"function","name":"hasMinted","inputs":[{"name":"_address","type":"address","internalType":"address"}],"outputs":[{"name":"","type":"bool","internalType":"bool"}],"stateMutability":"view"},{"type":"function","name":"initialize","inputs":[{"name":"initialOwner","type":"address","internalType":"address"}],"outputs":[],"stateMutability":"nonpayable"},{"type":"function","name":"isAllowedRole","inputs":[{"name":"_role","type":"string","internalType":"string"}],"outputs":[{"name":"","type":"bool","internalType":"bool"}],"stateMutability":"view"},{"type":"function","name":"isAllowedSocialKey","inputs":[{"name":"_key","type":"string","internalType":"string"}],"outputs":[{"name":"","type":"bool","internalType":"bool"}],"stateMutability":"view"},{"type":"function","name":"isApprovedForAll","inputs":[{"name":"owner","type":"address","internalType":"address"},{"name":"operator","type":"address","internalType":"address"}],"outputs":[{"name":"","type":"bool","internalType":"bool"}],"stateMutability":"view"},{"type":"function","name":"isTokenDelegate","inputs":[{"name":"_tokenId","type":"uint256","internalType":"uint256"},{"name":"_delegate","type":"address","internalType":"address"}],"outputs":[{"name":"","type":"bool","internalType":"bool"}],"stateMutability":"view"},{"type":"function","name":"isTokenOperator","inputs":[{"name":"_tokenId","type":"uint256","internalType":"uint256"},{"name":"_account","type":"address","internalType":"address"}],"outputs":[{"name":"","type":"bool","internalType":"bool"}],"stateMutability":"view"},{"type":"function","name":"linkSocial","inputs":[{"name":"_tokenId","type":"uint256","internalType":"uint256"},{"name":"_key","type":"string","internalType":"string"},{"name":"_value","type":"string","internalType":"string"}],"outputs":[],"stateMutability":"nonpayable"},{"type":"function","name":"migrationAdmin","inputs":[],"outputs":[{"name":"","type":"address","internalType":"address"}],"stateMutability":"view"},{"type":"function","name":"mintBaseCard","inputs":[{"name":"_initialCardData","type":"tuple","internalType":"struct IBaseCard.CardData","components":[{"name":"imageURI","type":"string","internalType":"string"},{"name":"nickname","type":"string","internalType":"string"},{"name":"role","type":"string","internalType":"string"},{"name":"bio","type":"string","internalType":"string"}]},{"name":"_socialKeys","type":"string[]","internalType":"string[]"},{"name":"_socialValues","type":"string[]","internalType":"string[]"},{"name":"_initialDelegates","type":"address[]","internalType":"address[]"}],"outputs":[],"stateMutability":"nonpayable"},{"type":"function","name":"name","inputs":[],"outputs":[{"name":"","type":"string","internalType":"string"}],"stateMutability":"view"},{"type":"function","name":"owner","inputs":[],"outputs":[{"name":"","type":"address","internalType":"address"}],"stateMutability":"view"},{"type":"function","name":"ownerOf","inputs":[{"name":"tokenId","type":"uint256","internalType":"uint256"}],"outputs":[{"name":"","type":"address","internalType":"address"}],"stateMutability":"view"},{"type":"function","name":"proxiableUUID","inputs":[],"outputs":[{"name":"","type":"bytes32","internalType":"bytes32"}],"stateMutability":"view"},{"type":"function","name":"renounceOwnership","inputs":[],"outputs":[],"stateMutability":"nonpayable"},{"type":"function","name":"revokeTokenDelegate","inputs":[{"name":"_tokenId","type":"uint256","internalType":"uint256"},{"name":"_delegate","type":"address","internalType":"address"}],"outputs":[],"stateMutability":"nonpayable"},{"type":"function","name":"safeTransferFrom","inputs":[{"name":"from","type":"address","internalType":"address"},{"name":"to","type":"address","internalType":"address"},{"name":"tokenId","type":"uint256","internalType":"uint256"}],"outputs":[],"stateMutability":"nonpayable"},{"type":"function","name":"safeTransferFrom","inputs":[{"name":"from","type":"address","internalType":"address"},{"name":"to","type":"address","internalType":"address"},{"name":"tokenId","type":"uint256","internalType":"uint256"},{"name":"data","type":"bytes","internalType":"bytes"}],"outputs":[],"stateMutability":"nonpayable"},{"type":"function","name":"setAllowedRole","inputs":[{"name":"_role","type":"string","internalType":"string"},{"name":"_isAllowed","type":"bool","internalType":"bool"}],"outputs":[],"stateMutability":"nonpayable"},{"type":"function","name":"setAllowedSocialKey","inputs":[{"name":"_key","type":"string","internalType":"string"},{"name":"_isAllowed","type":"bool","internalType":"bool"}],"outputs":[],"stateMutability":"nonpayable"},{"type":"function","name":"setApprovalForAll","inputs":[{"name":"operator","type":"address","internalType":"address"},{"name":"approved","type":"bool","internalType":"bool"}],"outputs":[],"stateMutability":"nonpayable"},{"type":"function","name":"setMigrationAdmin","inputs":[{"name":"_migrationAdmin","type":"address","internalType":"address"}],"outputs":[],"stateMutability":"nonpayable"},{"type":"function","name":"supportsInterface","inputs":[{"name":"interfaceId","type":"bytes4","internalType":"bytes4"}],"outputs":[{"name":"","type":"bool","internalType":"bool"}],"stateMutability":"view"},{"type":"function","name":"symbol","inputs":[],"outputs":[{"name":"","type":"string","internalType":"string"}],"stateMutability":"view"},{"type":"function","name":"tokenIdOf","inputs":[{"name":"_owner","type":"address","internalType":"address"}],"outputs":[{"name":"","type":"uint256","internalType":"uint256"}],"stateMutability":"view"},{"type":"function","name":"tokenURI","inputs":[{"name":"_tokenId","type":"uint256","internalType":"uint256"}],"outputs":[{"name":"","type":"string","internalType":"string"}],"stateMutability":"view"},{"type":"function","name":"transferFrom","inputs":[{"name":"from","type":"address","internalType":"address"},{"name":"to","type":"address","internalType":"address"},{"name":"tokenId","type":"uint256","internalType":"uint256"}],"outputs":[],"stateMutability":"nonpayable"},{"type":"function","name":"transferOwnership","inputs":[{"name":"newOwner","type":"address","internalType":"address"}],"outputs":[],"stateMutability":"nonpayable"},{"type":"function","name":"updateBio","inputs":[{"name":"_tokenId","type":"uint256","internalType":"uint256"},{"name":"_newBio","type":"string","internalType":"string"}],"outputs":[],"stateMutability":"nonpayable"},{"type":"function","name":"updateImageURI","inputs":[{"name":"_tokenId","type":"uint256","internalType":"uint256"},{"name":"_newImageUri","type":"string","internalType":"string"}],"outputs":[],"stateMutability":"nonpayable"},{"type":"function","name":"updateNickname","inputs":[{"name":"_tokenId","type":"uint256","internalType":"uint256"},{"name":"_newNickname","type":"string","internalType":"string"}],"outputs":[],"stateMutability":"nonpayable"},{"type":"function","name":"upgradeToAndCall","inputs":[{"name":"newImplementation","type":"address","internalType":"address"},{"name":"data","type":"bytes","internalType":"bytes"}],"outputs":[],"stateMutability":"payable"},{"type":"event","name":"Approval","inputs":[{"name":"owner","type":"address","indexed":true,"internalType":"address"},{"name":"approved","type":"address","indexed":true,"internalType":"address"},{"name":"tokenId","type":"uint256","indexed":true,"internalType":"uint256"}],"anonymous":false},{"type":"event","name":"ApprovalForAll","inputs":[{"name":"owner","type":"address","indexed":true,"internalType":"address"},{"name":"operator","type":"address","indexed":true,"internalType":"address"},{"name":"approved","type":"bool","indexed":false,"internalType":"bool"}],"anonymous":false},{"type":"event","name":"BaseCardEdited","inputs":[{"name":"tokenId","type":"uint256","indexed":true,"internalType":"uint256"}],"anonymous":false},{"type":"event","name":"BatchMetadataUpdate","inputs":[{"name":"_fromTokenId","type":"uint256","indexed":false,"internalType":"uint256"},{"name":"_toTokenId","type":"uint256","indexed":false,"internalType":"uint256"}],"anonymous":false},{"type":"event","name":"Initialized","inputs":[{"name":"version","type":"uint64","indexed":false,"internalType":"uint64"}],"anonymous":false},{"type":"event","name":"MetadataUpdate","inputs":[{"name":"_tokenId","type":"uint256","indexed":false,"internalType":"uint256"}],"anonymous":false},{"type":"event","name":"MintBaseCard","inputs":[{"name":"user","type":"address","indexed":true,"internalType":"address"},{"name":"tokenId","type":"uint256","indexed":true,"internalType":"uint256"}],"anonymous":false},{"type":"event","name":"OwnershipTransferred","inputs":[{"name":"previousOwner","type":"address","indexed":true,"internalType":"address"},{"name":"newOwner","type":"address","indexed":true,"internalType":"address"}],"anonymous":false},{"type":"event","name":"SocialLinked","inputs":[{"name":"tokenId","type":"uint256","indexed":true,"internalType":"uint256"},{"name":"key","type":"string","indexed":false,"internalType":"string"},{"name":"value","type":"string","indexed":false,"internalType":"string"}],"anonymous":false},{"type":"event","name":"SocialUnlinked","inputs":[{"name":"tokenId","type":"uint256","indexed":true,"internalType":"uint256"},{"name":"key","type":"string","indexed":false,"internalType":"string"}],"anonymous":false},{"type":"event","name":"TokenDelegateGranted","inputs":[{"name":"tokenId","type":"uint256","indexed":true,"internalType":"uint256"},{"name":"delegate","type":"address","indexed":true,"internalType":"address"}],"anonymous":false},{"type":"event","name":"TokenDelegateRevoked","inputs":[{"name":"tokenId","type":"uint256","indexed":true,"internalType":"uint256"},{"name":"delegate","type":"address","indexed":true,"internalType":"address"}],"anonymous":false},{"type":"event","name":"Transfer","inputs":[{"name":"from","type":"address","indexed":true,"internalType":"address"},{"name":"to","type":"address","indexed":true,"internalType":"address"},{"name":"tokenId","type":"uint256","indexed":true,"internalType":"uint256"}],"anonymous":false},{"type":"event","name":"Upgraded","inputs":[{"name":"implementation","type":"address","indexed":true,"internalType":"address"}],"anonymous":false},{"type":"error","name":"AddressEmptyCode","inputs":[{"name":"target","type":"address","internalType":"address"}]},{"type":"error","name":"AddressZero","inputs":[]},{"type":"error","name":"AlreadyDelegate","inputs":[{"name":"delegate","type":"address","internalType":"address"},{"name":"tokenId","type":"uint256","internalType":"uint256"}]},{"type":"error","name":"AlreadyMinted","inputs":[{"name":"user","type":"address","internalType":"address"}]},{"type":"error","name":"ERC1967InvalidImplementation","inputs":[{"name":"implementation","type":"address","internalType":"address"}]},{"type":"error","name":"ERC1967NonPayable","inputs":[]},{"type":"error","name":"ERC721IncorrectOwner","inputs":[{"name":"sender","type":"address","internalType":"address"},{"name":"tokenId","type":"uint256","internalType":"uint256"},{"name":"owner","type":"address","internalType":"address"}]},{"type":"error","name":"ERC721InsufficientApproval","inputs":[{"name":"operator","type":"address","internalType":"address"},{"name":"tokenId","type":"uint256","internalType":"uint256"}]},{"type":"error","name":"ERC721InvalidApprover","inputs":[{"name":"approver","type":"address","internalType":"address"}]},{"type":"error","name":"ERC721InvalidOperator","inputs":[{"name":"operator","type":"address","internalType":"address"}]},{"type":"error","name":"ERC721InvalidOwner","inputs":[{"name":"owner","type":"address","internalType":"address"}]},{"type":"error","name":"ERC721InvalidReceiver","inputs":[{"name":"receiver","type":"address","internalType":"address"}]},{"type":"error","name":"ERC721InvalidSender","inputs":[{"name":"sender","type":"address","internalType":"address"}]},{"type":"error","name":"ERC721NonexistentToken","inputs":[{"name":"tokenId","type":"uint256","internalType":"uint256"}]},{"type":"error","name":"EmptyImageURI","inputs":[]},{"type":"error","name":"EmptyNickname","inputs":[]},{"type":"error","name":"FailedCall","inputs":[]},{"type":"error","name":"InvalidInitialization","inputs":[]},{"type":"error","name":"InvalidTokenId","inputs":[{"name":"tokenId","type":"uint256","internalType":"uint256"}]},{"type":"error","name":"MismatchedSocialKeysAndValues","inputs":[]},{"type":"error","name":"NotAllowedRole","inputs":[{"name":"role","type":"string","internalType":"string"}]},{"type":"error","name":"NotAllowedSocialKey","inputs":[{"name":"key","type":"string","internalType":"string"}]},{"type":"error","name":"NotDelegate","inputs":[{"name":"delegate","type":"address","internalType":"address"},{"name":"tokenId","type":"uint256","internalType":"uint256"}]},{"type":"error","name":"NotInitializing","inputs":[]},{"type":"error","name":"NotTokenOperator","inputs":[{"name":"caller","type":"address","internalType":"address"},{"name":"tokenId","type":"uint256","internalType":"uint256"}]},{"type":"error","name":"NotTokenOwner","inputs":[{"name":"caller","type":"address","internalType":"address"},{"name":"tokenId","type":"uint256","internalType":"uint256"}]},{"type":"error","name":"OwnableInvalidOwner","inputs":[{"name":"owner","type":"address","internalType":"address"}]},{"type":"error","name":"OwnableUnauthorizedAccount","inputs":[{"name":"account","type":"address","internalType":"address"}]},{"type":"error","name":"TransferToNonDelegate","inputs":[{"name":"to","type":"address","internalType":"address"},{"name":"tokenId","type":"uint256","internalType":"uint256"}]},{"type":"error","name":"UUPSUnauthorizedCallContext","inputs":[]},{"type":"error","name":"UUPSUnsupportedProxiableUUID","inputs":[{"name":"slot","type":"bytes32","internalType":"bytes32"}]}],"bytecode":{"object":"0x60a080604052346100c257306080525f516020613c0e5f395f51905f525460ff8160401c166100b3576002600160401b03196001600160401b03821601610060575b604051613b4790816100c782396080518181816120ca015261215c0152f35b6001600160401b0319166001600160401b039081175f516020613c0e5f395f51905f525581527fc7f505b2f371ae2175ee4913f4499e1f2633a7b5936321eed1cdaeb6115181d290602090a15f80610041565b63f92ee8a960e01b5f5260045ffd5b5f80fdfe6080806040526004361015610012575f80fd5b5f3560e01c90816301ffc9a7146127a4575080630327fff61461268c57806306fdde03146125cf578063081812fc146125a7578063095ea7b3146124a85780630c5aa8071461246c578063171b92191461242857806323b872dd1461241157806330b8bb301461234957806338e21cce1461232457806342842e0e146122f557806342966c68146122d85780634f1ef2861461211e57806352d1902d146120b85780636352211e1461208857806370a082311461204257806370ae07a114611fae578063715018a614611f4757806374df255814611f00578063773c02d414611ed457806383fda67214611dce5780638c37dda514611ca35780638da5cb5b14611c6f5780638e5e6a2814611c2257806395d89b4114611b4057806397ac747a14611af8578063a22cb46514611a57578063ad3cb1cc14611a10578063b88d4fde146119b6578063c13d8158146117a5578063c4d66de8146110e2578063c68905b914611092578063c87b56dd14610a58578063c96291ed14610435578063d50cbeab146103e0578063e985e9c514610394578063f2fde38b1461036b578063f35894d714610294578063f99c27c9146102585763fddfdb5f146101d4575f80fd5b34610254576040366003190112610254576004356101f0612919565b906101fa816132c2565b6001600160a01b0383811691161490811561021d575b6020826040519015158152f35b90505f525f516020613a525f395f51905f5260205260405f209060018060a01b03165f52602052602060ff60405f2054165f610210565b5f80fd5b34610254576102926102693661292f565b906102738161325b565b5f525f516020613a325f395f51905f52602052600360405f2001612bfa565b005b34610254576040366003190112610254576004356102b0612919565b6102b982613555565b815f525f516020613a525f395f51905f5260205260405f2060018060a01b0382165f5260205260ff60405f2054161561034e575f8281525f516020613a525f395f51905f52602090815260408083206001600160a01b0394909416808452939091528120805460ff191690559091907fc9888116bd812436d2efe32c5aa247043e144d69a7ac5a98d6dcb77ad9220a849080a3005b63f1a3a4b360e01b5f5260018060a01b031660045260245260445ffd5b3461025457602036600319011261025457610292610387612903565b61038f613588565b6131ea565b34610254576040366003190112610254576103ad612903565b6103be6103b8612919565b916130cb565b9060018060a01b03165f52602052602060ff60405f2054166040519015158152f35b34610254576040366003190112610254576103f9612919565b6004355f525f516020613a525f395f51905f5260205260405f209060018060a01b03165f52602052602060ff60405f2054166040519015158152f35b34610254576080366003190112610254576004356001600160401b038111610254576104659036906004016129d5565b6024356001600160401b03811161025457610484903690600401612a93565b6044356001600160401b038111610254576104a3903690600401612a93565b91606435916001600160401b03831161025457366023840112156102545782600401356104cf81612a7c565b936104dd604051958661285f565b8185526024602086019260051b8201019036821161025457602401915b818310610a385750505060ff61050f33613023565b5416610a25578051845103610a1657610527826136f1565b61053033613023565b805460ff191660011790555f5160206139f25f395f51905f5254915f198314610a02576105bd90600184015f5160206139f25f395f51905f5255835f525f516020613a325f395f51905f526020526003606060405f2092610592815185612bfa565b6105a3602082015160018601612bfa565b6105b4604082015160028601612bfa565b01519101612bfa565b6020906040516105cd838261285f565b5f815233156109ef576105df84613743565b6001600160a01b0381161515806109e7575b61098b575b5061060084613743565b6001600160a01b038116801515919086908361096d575b6106203361305b565b805460010190555f8281525f516020613a725f395f51905f5288526040812080546001600160a01b0319163390811790915591907fddf252ad1be2c89b69c2b068fc378daa952ba7f163c4a11628f55a4df523b3ef9080a45061095a57333b610843575b508261068f33613093565b555f5b8151811015610753576106a581836131c5565b516106b082886131c5565b519060ff6106bd82612b11565b54161561072c577f8b490e7b0a60733bb17982917e471c69228883c096a425f2dece0819ce92e7bb600193928792835f525f516020613ad25f395f51905f5288526107148261070f60405f2084612b8d565b612bfa565b61072360405192839283612ced565b0390a201610692565b8461074f60405192839263531101bf60e01b8452600484015260248301906128df565b0390fd5b8385845f5b825181101561081b576001906001600160a01b0361077682866131c5565b5116801515806107e9575b61078d575b5001610758565b855f525f516020613a525f395f51905f52845260405f20838060a01b0382165f52845260405f208360ff19825416179055857ffb6810841a45a800775127fc827be97c977d8053f05328bbd47ded6e980266805f80a385610786565b50855f525f516020613a525f395f51905f52845260405f20838060a01b0382165f52845260ff60405f20541615610781565b83337f53f3e9a832a8c21b2c8955fbf6dc0bd4b59bb2c4306d5a81eaa517ccbf6d9f735f80a3005b8261088191604097969594975180938192630a85bd0160e11b83523360048401525f60248401528760448401526080606484015260848301906128df565b03815f335af15f918161091a575b506108e357853d156108db573d906108a682612880565b916108b4604051938461285f565b82523d5f8284013e5b815191826108d857633250574960e11b5f523360045260245ffd5b01fd5b6060906108bd565b939492939192916001600160e01b03191663757a42ff60e11b016109075785610684565b633250574960e11b5f523360045260245ffd5b9091508681813d8311610953575b610932818361285f565b8101031261025457516001600160e01b03198116810361025457908761088f565b503d610928565b6339e3563760e11b5f525f60045260245ffd5b61097682613769565b61097f8361305b565b80545f19019055610617565b5f8581525f516020613a525f395f51905f5285526040808220338352865290205460ff16156109d0576109be5f91613093565b55836109c933613093565b55866105f6565b8463190b552b60e01b5f523360045260245260445ffd5b5060016105f1565b633250574960e11b5f525f60045260245ffd5b634e487b7160e01b5f52601160045260245ffd5b6358074db160e11b5f5260045ffd5b63449e62bb60e11b5f523360045260245ffd5b82356001600160a01b0381168103610254578152602092830192016104fa565b34610254576020366003190112610254576004358015801561107a575b61106857805f525f516020613a325f395f51905f5260205260405f2090604051610a9e81612844565b604051610ab681610aaf8187612d61565b038261285f565b8152600360405191610ad683610acf8160018901612d61565b038461285f565b60208101928352610b1a60405195610afc87610af58160028501612d61565b038861285f565b60408301968752610b136040518095819301612d61565b038361285f565b606081019182526040928351610b30858261285f565b60018152605b60f81b6020820152915f516020613af25f395f51905f525491610b5883612a7c565b92610b658751948561285f565b8084525f516020613af25f395f51905f525f9081527ff593dc57c2fc9f75d6ba12dcb5e42c89ed5ac2eefd33bd6edeb8b945d90919a8602086015b83831061104457505050506001945f5b8451811015610ce357610b13610bc682876131c5565b518a5f525f516020613ad25f395f51905f52602052610bf5610bea8b5f2083612b8d565b8b5193848092612d61565b898251610c08575b505050600101610bb0565b97600292600b926020969a610c8f969c15610c9c575b9187808093600895519a878c985191829101848a015e870190673d9135b2bc911d1160c11b83830152805192839101602883015e0101906a1116113b30b63ab2911d1160a91b84830152805192839101601383015e010161227d60f01b838201520301601d1981018452018261285f565b9360015f96908b89610bfd565b92918780809381610cd66001826008998b519481869251918291018484015e8101600b60fa1b838201520301601e1981018452018261285f565b9693955093505050610c1e565b509193945091508496855193610d1f6001602087818082019a8051918291018c5e8101605d60f81b838201520301601e1981018852018661285f565b87885f9972184f03e93ff9f4daa797ed6e38ed64bf6a1f0160401b81101561101d575b50806d04ee2d6d415b85acef8100000000600a921015611002575b662386f26fc10000811015610fee575b6305f5e100811015610fdd575b612710811015610fce575b6064811015610fc0575b1015610fb5575b600a6021610dbe60018c01610db6610dad82612880565b9c519c8d61285f565b808c52612880565b60208b019b90601f1901368d378a01015b5f1901916f181899199a1a9b1b9c1cb0b131b232b360811b8282061a8353048015610dfd57600a9091610dcf565b505051925190519151928851978897747b226e616d65223a202242617365436172643a202360581b60208a015251809160358a015e61088b60f21b603591890191820152691134b6b0b3b2911d101160b11b60378201528151918290602001604183015e0160350161088b60f21b600c8201526c113734b1b5b730b6b2911d101160991b600e82015281516020819301601b83015e01600c0161088b60f21b600f82015268113937b632911d101160b91b601182015281516020819301601a83015e01600f0161088b60f21b600b82015267113134b7911d101160c11b600d82015281516020819301601583015e01600b019061088b60f21b600a8301526a01139b7b1b4b0b639911d160ad1b600c830152518092601783015e01600a01600d8101607d60f81b905203600d01601e1981018252600101610f3e908261285f565b610f47906137d0565b9080518092602082017f646174613a6170706c69636174696f6e2f6a736f6e3b6261736536342c000000905280516020819201603d84015e8101603d81015f905203603d01601f1981018352610f9d908361285f565b5180916020825260208201610fb1916128df565b0390f35b600190980197610d96565b6064600291049a0199610d8f565b612710600491049a0199610d85565b6305f5e100600891049a0199610d7a565b662386f26fc10000601091049a0199610d6d565b6d04ee2d6d415b85acef8100000000602091049a0199610d5d565b989950899872184f03e93ff9f4daa797ed6e38ed64bf6a1f0160401b90049050600a610d42565b6001602081928c5161105a81610aaf8189612d61565b815201920192019190610ba0565b63ed15e6cf60e01b5f5260045260245ffd5b505f5160206139f25f395f51905f5254811015610a75565b34610254576110a03661292f565b6110a98261325b565b8051156110d357610292915f525f516020613a325f395f51905f52602052600160405f2001612bfa565b6360afe6af60e11b5f5260045ffd5b34610254576020366003190112610254576110fb612903565b5f516020613a925f395f51905f525460ff8160401c1615906001600160401b0381168015908161179d575b6001149081611793575b15908161178a575b5061177b5767ffffffffffffffff1981166001175f516020613a925f395f51905f52558161174f575b50604090815192611172838561285f565b600884526710985cd950d85c9960c21b6020850152825193611194848661285f565b60058552641090d0549160da1b60208601526111ae6137a5565b6111b66137a5565b8051906001600160401b038211611664576111de5f5160206139b25f395f51905f5254612bac565b601f81116116f5575b50602090601f83116001146116785761121792915f9183611573575b50508160011b915f199060031b1c19161790565b5f5160206139b25f395f51905f52555b83516001600160401b0381116116645761124e5f516020613ab25f395f51905f5254612bac565b601f81116115ff575b506020601f821160011461157e57908061128b926112bb9596975f926115735750508160011b915f199060031b1c19161790565b5f516020613ab25f395f51905f52555b6112a36137a5565b6112ab6137a5565b6112b36137a5565b61038f6137a5565b60015f5160206139f25f395f51905f525581516112d781612829565b82516112e3848261285f565b60018152600f60fb1b6020820152815282516112ff848261285f565b60098152683330b931b0b9ba32b960b91b602082015260208201528251611326848261285f565b60078152667765627369746560c81b602082015283820152825161134a848261285f565b600681526533b4ba343ab160d11b60208201526060820152825161136e848261285f565b60088152673634b735b2b234b760c11b602082015260808201528251611394848261285f565b6008815267626173656e616d6560c01b602082015260a08201525f5b6006811061153a57505081516113c581612829565b82516113d1848261285f565b60098152682232bb32b637b832b960b91b6020820152815282516113f5848261285f565b60088152672232b9b4b3b732b960c11b60208201526020820152825161141b848261285f565b600881526726b0b935b2ba32b960c11b6020820152838201528251611440848261285f565b60078152662337bab73232b960c91b602082015260608201528251611465848261285f565b6002815261109160f21b602082015260808201528251611485848261285f565b6002815261504d60f01b602082015260a08201525f5b600681106115015750506114ab57005b60207fc7f505b2f371ae2175ee4913f4499e1f2633a7b5936321eed1cdaeb6115181d29168ff0000000000000000195f516020613a925f395f51905f5254165f516020613a925f395f51905f52555160018152a1005b80611517611511600193856131d9565b51612b4f565b805460ff19168317905561153461152e82856131d9565b51613180565b0161149b565b8061155061154a600193856131d9565b51612b11565b805460ff19168317905561156d61156782856131d9565b51613118565b016113b0565b015190508780611203565b601f198216955f516020613ab25f395f51905f525f52815f20965f5b8181106115e75750916112bb959697918460019594106115cf575b505050811b015f516020613ab25f395f51905f525561129b565b01515f1960f88460031b161c191690558680806115b5565b8383015189556001909801976020938401930161159a565b5f516020613ab25f395f51905f525f52611654907ff4bad0a69248f59680a4f2b3000328cec71a413447c96781cfe5996daa8c456e601f840160051c8101916020851061165a575b601f0160051c0190612be4565b85611257565b9091508190611647565b634e487b7160e01b5f52604160045260245ffd5b90601f198316915f5160206139b25f395f51905f525f52815f20925f5b8181106116dd57509084600195949392106116c5575b505050811b015f5160206139b25f395f51905f5255611227565b01515f1960f88460031b161c191690558680806116ab565b92936020600181928786015181550195019301611695565b5f5160206139b25f395f51905f525f52611749907f37c58c799b6609234b945e882912ee9ad34948a1dfaa20a97485e1a7752bbf81601f850160051c8101916020861061165a57601f0160051c0190612be4565b866111e7565b68ffffffffffffffffff191668010000000000000001175f516020613a925f395f51905f525582611161565b63f92ee8a960e01b5f5260045ffd5b90501584611138565b303b159150611130565b839150611126565b34610254576080366003190112610254576004356024356001600160401b038111610254576117d89036906004016129d5565b906044356001600160401b038111610254576117f8903690600401612a93565b906064356001600160401b03811161025457611818903690600401612a93565b926118228261325b565b8251845103610a165780611838611860926136f1565b825f525f516020613a325f395f51905f526020526003606060405f2092610592815185612bfa565b5f5b825181101561198f5761187581846131c5565b5161188082866131c5565b5160ff61188c83612b11565b54161561196d576001929181859251155f1461190f57506119057f17d57f0e8e59050d105e4ef1df4ea07969bd0f1f6c1e9188e6a1f5228dbfe48b91835f525f516020613ad25f395f51905f526020526118f16118ec60405f2083612b8d565b612d12565b6040519182916020835260208301906128df565b0390a25b01611862565b7f8b490e7b0a60733bb17982917e471c69228883c096a425f2dece0819ce92e7bb91835f525f516020613ad25f395f51905f526020526119568261070f60405f2084612b8d565b61196560405192839283612ced565b0390a2611909565b60405163531101bf60e01b8152602060048201528061074f60248201856128df565b507f6a4ce9bca42b76f6f9a08d3d0d5052fc9fcb67ca45c945b00c16b4ba6e2ba2995f80a2005b34610254576080366003190112610254576119cf612903565b6119d7612919565b90604435606435926001600160401b038411610254576119fe61029294369060040161289b565b92611a0a838383612de2565b336135bb565b34610254575f36600319011261025457610fb1604051611a3160408261285f565b60058152640352e302e360dc1b60208201526040519182916020835260208301906128df565b3461025457604036600319011261025457611a70612903565b6024359081151590818303610254576001600160a01b0316918215611ae557611ab790611a9c336130cb565b845f5260205260405f209060ff801983541691151516179055565b6040519081527f17307eab39ab6107e8899845ad3d59bd9653f200f220920489ca2b5937696c3160203392a3005b82630b61174360e31b5f5260045260245ffd5b34610254576020366003190112610254576004356001600160401b0381116102545760ff611b34611b2f602093369060040161289b565b612b11565b54166040519015158152f35b34610254575f366003190112610254576040515f5f516020613ab25f395f51905f5254611b6c81612bac565b8084529060018116908115611bfe5750600114611b94575b610fb1836118f18185038261285f565b5f516020613ab25f395f51905f525f9081527ff4bad0a69248f59680a4f2b3000328cec71a413447c96781cfe5996daa8c456e939250905b808210611be4575090915081016020016118f1611b84565b919260018160209254838588010152019101909291611bcc565b60ff191660208086019190915291151560051b840190910191506118f19050611b84565b3461025457611c303661292f565b611c398261325b565b805115611c6057610292915f525f516020613a325f395f51905f5260205260405f20612bfa565b6326f93fd560e21b5f5260045ffd5b34610254575f366003190112610254575f5160206139d25f395f51905f52546040516001600160a01b039091168152602090f35b3461025457611cb13661299b565b611cb9613588565b8080611dba575b611ce2575b611cd161029292612b4f565b9060ff801983541691151516179055565b5f5160206139925f395f51905f52545f92906020820181855b838110611d2b575b50505050611cd1906102929315611d1d575b925050611cc5565b611d2681613180565b611d15565b81811015611da6575f5160206139925f395f51905f525f52604051611d7681610aaf817f253c62edd917582c0782c672ec559f3e3964e17d45830536e5eecf0c56743b578601612d61565b602081519101208551842014611d8e57600101611cfb565b505050506102929250611cd190600193819286611d03565b634e487b7160e01b5f52603260045260245ffd5b5060ff611dc683612b4f565b541615611cc0565b3461025457611ddc3661299b565b611de4613588565b8080611ec0575b611dfc575b611cd161029292612b11565b5f516020613af25f395f51905f52545f92906020820181855b838110611e45575b50505050611cd1906102929315611e37575b925050611df0565b611e4081613118565b611e2f565b81811015611da6575f516020613af25f395f51905f525f52604051611e9081610aaf817ff593dc57c2fc9f75d6ba12dcb5e42c89ed5ac2eefd33bd6edeb8b945d90919a88601612d61565b602081519101208551842014611ea857600101611e15565b505050506102929250611cd190600193819286611e1d565b5060ff611ecc83612b11565b541615611deb565b34610254576020366003190112610254576020611ef7611ef2612903565b613093565b54604051908152f35b34610254575f366003190112610254577f27203bc8d62caad0b56b7f1020c3acf2cd00bb7fa7c320bee6a88ad2dbdc6509546040516001600160a01b039091168152602090f35b34610254575f36600319011261025457611f5f613588565b5f5160206139d25f395f51905f5280546001600160a01b031981169091555f906001600160a01b03167f8be0079c531659141344cd1fd0a4f28419497f9722a3daafe3b4186f6b6457e08280a3005b3461025457602036600319011261025457611fc7612903565b611fcf613588565b6001600160a01b03168015612033576001600160601b0360a01b7f27203bc8d62caad0b56b7f1020c3acf2cd00bb7fa7c320bee6a88ad2dbdc65095416177f27203bc8d62caad0b56b7f1020c3acf2cd00bb7fa7c320bee6a88ad2dbdc6509555f80f35b639fabe1c160e01b5f5260045ffd5b346102545760203660031901126102545761205b612903565b6001600160a01b0381161561207557611ef760209161305b565b6322718ad960e21b5f525f60045260245ffd5b346102545760203660031901126102545760206120a66004356132c2565b6040516001600160a01b039091168152f35b34610254575f366003190112610254577f00000000000000000000000000000000000000000000000000000000000000006001600160a01b0316300361210f5760206040515f516020613a125f395f51905f528152f35b63703e46dd60e11b5f5260045ffd5b604036600319011261025457612132612903565b6024356001600160401b0381116102545761215190369060040161289b565b906001600160a01b037f0000000000000000000000000000000000000000000000000000000000000000163081149081156122b6575b5061210f57612194613588565b6040516352d1902d60e01b81526001600160a01b0382169290602081600481875afa5f9181612282575b506121d65783634c9c8ce360e01b5f5260045260245ffd5b805f516020613a125f395f51905f528592036122705750823b1561225e575f516020613a125f395f51905f5280546001600160a01b031916821790557fbc7cd75a20ee27fd9adebab32041f755214dbc6bffa90cc0225b39da2e5c2d3b5f80a28051156122465761029291613905565b50503461224f57005b63b398979f60e01b5f5260045ffd5b634c9c8ce360e01b5f5260045260245ffd5b632a87526960e21b5f5260045260245ffd5b9091506020813d6020116122ae575b8161229e6020938361285f565b81010312610254575190856121be565b3d9150612291565b5f516020613a125f395f51905f52546001600160a01b03161415905083612187565b34610254576020366003190112610254576102923360043561332a565b346102545761029261230636612961565b906040519261231660208561285f565b5f8452611a0a838383612de2565b3461025457602036600319011261025457602060ff611b34612344612903565b613023565b3461025457604036600319011261025457600435612365612919565b61236e82613555565b6001600160a01b031690811561203357805f525f516020613a525f395f51905f5260205260405f20825f5260205260ff60405f2054166123fb57805f525f516020613a525f395f51905f5260205260405f20825f5260205260405f20600160ff198254161790557ffb6810841a45a800775127fc827be97c977d8053f05328bbd47ded6e980266805f80a3005b906359f5756d60e01b5f5260045260245260445ffd5b346102545761029261242236612961565b91612de2565b3461025457610fb1610aaf6118f16124606124423661292f565b905f525f516020613ad25f395f51905f5260205260405f2090612b8d565b60405192838092612d61565b34610254576020366003190112610254576004356001600160401b0381116102545760ff611b346124a3602093369060040161289b565b612b4f565b34610254576040366003190112610254576124c1612903565b6024356124cd816132c2565b33151580612594575b80612571575b61255e5781906001600160a01b0384811691167f8c5be1e5ebec7d5bd14f71427d1e84f3dd0314c0f7b2291e5b200ac8c7c3b9255f80a45f9081527f80bb2b638cc20bc4d0a60d66940f3ab4a00c1d7b313497ca82fb0b4ab00793046020526040902080546001600160a01b0319166001600160a01b03909216919091179055005b63a9fbf51f60e01b5f523360045260245ffd5b5061257b816130cb565b335f908152602091909152604090205460ff16156124dc565b506001600160a01b0381163314156124d6565b346102545760203660031901126102545760206120a66004356125c9816132c2565b506132f1565b34610254575f366003190112610254576040515f5f5160206139b25f395f51905f52546125fb81612bac565b8084529060018116908115611bfe575060011461262257610fb1836118f18185038261285f565b5f5160206139b25f395f51905f525f9081527f37c58c799b6609234b945e882912ee9ad34948a1dfaa20a97485e1a7752bbf81939250905b808210612672575090915081016020016118f1611b84565b91926001816020925483858801015201910190929161265a565b34610254576060366003190112610254576004356024356001600160401b038111610254576126bf90369060040161289b565b6044356001600160401b038111610254576126de90369060040161289b565b6126e78361325b565b60ff6126f283612b11565b54161561196d57805161274e57506127497f17d57f0e8e59050d105e4ef1df4ea07969bd0f1f6c1e9188e6a1f5228dbfe48b91835f525f516020613ad25f395f51905f526020526118f16118ec60405f2083612b8d565b0390a2005b7f8b490e7b0a60733bb17982917e471c69228883c096a425f2dece0819ce92e7bb91835f525f516020613ad25f395f51905f526020526127958261070f60405f2084612b8d565b61274960405192839283612ced565b34610254576020366003190112610254576004359063ffffffff60e01b821680920361025457602091632483248360e11b81149081156127e6575b5015158152f35b6380ac58cd60e01b811491508115612818575b8115612807575b50836127df565b6301ffc9a760e01b14905083612800565b635b5e139f60e01b811491506127f9565b60c081019081106001600160401b0382111761166457604052565b608081019081106001600160401b0382111761166457604052565b90601f801991011681019081106001600160401b0382111761166457604052565b6001600160401b03811161166457601f01601f191660200190565b81601f82011215610254576020813591016128b582612880565b926128c3604051948561285f565b8284528282011161025457815f92602092838601378301015290565b805180835260209291819084018484015e5f828201840152601f01601f1916010190565b600435906001600160a01b038216820361025457565b602435906001600160a01b038216820361025457565b9060406003198301126102545760043591602435906001600160401b0382116102545761295e9160040161289b565b90565b6060906003190112610254576004356001600160a01b038116810361025457906024356001600160a01b0381168103610254579060443590565b604060031982011261025457600435906001600160401b038211610254576129c59160040161289b565b9060243580151581036102545790565b919060808382031261025457604051906129ee82612844565b819380356001600160401b0381116102545782612a0c91830161289b565b835260208101356001600160401b0381116102545782612a2d91830161289b565b602084015260408101356001600160401b0381116102545782612a5191830161289b565b60408401526060810135916001600160401b03831161025457606092612a77920161289b565b910152565b6001600160401b0381116116645760051b60200190565b9080601f83011215610254578135612aaa81612a7c565b92612ab8604051948561285f565b81845260208085019260051b820101918383116102545760208201905b838210612ae457505050505090565b81356001600160401b03811161025457602091612b068784809488010161289b565b815201910190612ad5565b60208091604051928184925191829101835e81017f27203bc8d62caad0b56b7f1020c3acf2cd00bb7fa7c320bee6a88ad2dbdc650481520301902090565b60208091604051928184925191829101835e81017f27203bc8d62caad0b56b7f1020c3acf2cd00bb7fa7c320bee6a88ad2dbdc650681520301902090565b6040518151909260209284929081908501845e82019081520301902090565b90600182811c92168015612bda575b6020831014612bc657565b634e487b7160e01b5f52602260045260245ffd5b91607f1691612bbb565b818110612bef575050565b5f8155600101612be4565b91909182516001600160401b03811161166457612c178254612bac565b601f8111612cbd575b506020601f8211600114612c5f578190612c509394955f92612c545750508160011b915f199060031b1c19161790565b9055565b015190505f80611203565b601f19821690835f52805f20915f5b818110612ca557509583600195969710612c8d575b505050811b019055565b01515f1960f88460031b161c191690555f8080612c83565b9192602060018192868b015181550194019201612c6e565b612ce790835f5260205f20601f840160051c8101916020851061165a57601f0160051c0190612be4565b5f612c20565b9091612d0461295e936040845260408401906128df565b9160208184039101526128df565b612d1c8154612bac565b9081612d26575050565b81601f5f9311600114612d385750555b565b81835260208320612d5491601f0160051c810190600101612be4565b8082528160208120915555565b5f9291815491612d7083612bac565b8083529260018116908115612dc55750600114612d8c57505050565b5f9081526020812093945091925b838310612dab575060209250010190565b600181602092949394548385870101520191019190612d9a565b915050602093945060ff929192191683830152151560051b010190565b9091906001600160a01b03831680156109ef57612dfe83613743565b6001600160a01b03811615158061301b575b612fbd575b5082612e2081613743565b9133151580612ee6575b506001600160a01b03831695612e449087612ec85761305b565b60018154019055815f525f516020613a725f395f51905f5260205260405f20816001600160601b0360a01b825416179055857fddf252ad1be2c89b69c2b068fc378daa952ba7f163c4a11628f55a4df523b3ef5f80a4506001600160a01b0316808303612eb057505050565b6364283d7b60e01b5f5260045260245260445260645ffd5b612ed184613769565b612eda8561305b565b80545f1901905561305b565b90915080612f68575b8015612f3a575b15612f035783905f612e2a565b836001600160a01b038316612f2457637e27328960e01b5f5260045260245ffd5b63177e802f60e01b5f523360045260245260445ffd5b505f8481525f516020613a525f395f51905f526020908152604080832033845290915290205460ff16612ef6565b506001600160a01b03821633148015612f9b575b80612eef5750336001600160a01b03612f94866132f1565b1614612eef565b50612fa5826130cb565b335f908152602091909152604090205460ff16612f7c565b835f525f516020613a525f395f51905f5260205260405f20825f5260205260ff60405f2054161561300457612ff25f91613093565b5582612ffd85613093565b555f612e15565b838263190b552b60e01b5f5260045260245260445ffd5b506001612e10565b6001600160a01b03165f9081527f27203bc8d62caad0b56b7f1020c3acf2cd00bb7fa7c320bee6a88ad2dbdc65026020526040902090565b6001600160a01b03165f9081527f80bb2b638cc20bc4d0a60d66940f3ab4a00c1d7b313497ca82fb0b4ab00793036020526040902090565b6001600160a01b03165f9081527f27203bc8d62caad0b56b7f1020c3acf2cd00bb7fa7c320bee6a88ad2dbdc65086020526040902090565b6001600160a01b03165f9081527f80bb2b638cc20bc4d0a60d66940f3ab4a00c1d7b313497ca82fb0b4ab00793056020526040902090565b8054821015611da6575f5260205f2001905f90565b5f516020613af25f395f51905f5254600160401b8110156116645780600161315d92015f516020613af25f395f51905f52555f516020613af25f395f51905f52613103565b91909161316d57612d3691612bfa565b634e487b7160e01b5f525f60045260245ffd5b5f5160206139925f395f51905f5254600160401b8110156116645780600161315d92015f5160206139925f395f51905f52555f5160206139925f395f51905f52613103565b8051821015611da65760209160051b010190565b906006811015611da65760051b0190565b6001600160a01b03168015613248575f5160206139d25f395f51905f5280546001600160a01b0319811683179091556001600160a01b03167f8be0079c531659141344cd1fd0a4f28419497f9722a3daafe3b4186f6b6457e05f80a3565b631e4fbdf760e01b5f525f60045260245ffd5b613264816132c2565b6001600160a01b031633141580613293575b61327d5750565b6339b177e560e21b5f523360045260245260445ffd5b505f8181525f516020613a525f395f51905f526020908152604080832033845290915290205460ff1615613276565b6132cb81613743565b906001600160a01b038216156132df575090565b637e27328960e01b5f5260045260245ffd5b5f9081527f80bb2b638cc20bc4d0a60d66940f3ab4a00c1d7b313497ca82fb0b4ab007930460205260409020546001600160a01b031690565b61333381613743565b6001600160a01b03811615158061354e575b6134b0575b5061335481613743565b916001600160a01b0316801515806133e6575b505f90506001600160a01b038316806133c8575b8282525f516020613a725f395f51905f526020526040822080546001600160a01b03191690557fddf252ad1be2c89b69c2b068fc378daa952ba7f163c4a11628f55a4df523b3ef8280a490565b6133d183613769565b6133da8461305b565b8219815401905561337b565b80613460575b8015613434575b156133fe5780613367565b6001600160a01b03831661341f5750637e27328960e01b5f5260045260245ffd5b63177e802f60e01b5f5260045260245260445ffd5b50815f525f516020613a525f395f51905f5260205260405f20815f5260205260ff60405f2054166133f3565b506001600160a01b03831681148015613493575b806133ec5750806001600160a01b0361348c846132f1565b16146133ec565b5061349d836130cb565b815f5260205260ff60405f205416613474565b815f525f516020613a525f395f51905f5260205260405f205f805260205260ff60405f20541615613537576134e55f91613093565b555f8080527f27203bc8d62caad0b56b7f1020c3acf2cd00bb7fa7c320bee6a88ad2dbdc65086020527f3f536cd94ca3b059a573357e64239a81b9cb056b2b004607d5376ad704e0c40182905561334a565b5063190b552b60e01b5f525f60045260245260445ffd5b505f613345565b61355e816132c2565b336001600160a01b03909116036135725750565b632c52f11160e11b5f523360045260245260445ffd5b5f5160206139d25f395f51905f52546001600160a01b031633036135a857565b63118cdaa760e01b5f523360045260245ffd5b823b6135c9575b5050505050565b604051630a85bd0160e11b81526001600160a01b0391821660048201529181166024830152604482019390935260806064820152911691602090829081906136159060848301906128df565b03815f865af15f91816136ac575b5061367857503d15613671573d61363981612880565b90613647604051928361285f565b81523d5f602083013e5b8051908161366c5782633250574960e11b5f5260045260245ffd5b602001fd5b6060613651565b6001600160e01b03191663757a42ff60e11b0161369a57505f808080806135c2565b633250574960e11b5f5260045260245ffd5b9091506020813d6020116136e9575b816136c86020938361285f565b8101031261025457516001600160e01b03198116810361025457905f613623565b3d91506136bb565b602081015151156110d35780515115611c605760400160ff6137138251612b4f565b54161561371d5750565b5160405163341ad1c160e11b81526020600482015290819061074f9060248301906128df565b5f9081525f516020613a725f395f51905f5260205260409020546001600160a01b031690565b5f527f80bb2b638cc20bc4d0a60d66940f3ab4a00c1d7b313497ca82fb0b4ab007930460205260405f206001600160601b0360a01b8154169055565b60ff5f516020613a925f395f51905f525460401c16156137c157565b631afcd79f60e31b5f5260045ffd5b908151156138ef57815160028101809111610a025760039004600281901b91906001600160fe1b03811603610a0257604051917f4142434445464748494a4b4c4d4e4f505152535455565758595a616263646566601f527f6768696a6b6c6d6e6f707172737475767778797a303132333435363738392b2f603f52602083018480518101602081018051915f82525b8089106138b3575060209596975090600392915251068060011461389e57600214613891575b50808452830101604052565b603d905f1901535f613885565b50603d90815f1982015360011901535f613885565b939760036004910198603f8a51818160121c165183538181600c1c16516001840153818160061c1651600284015316516003820153019361385f565b90506040516138ff60208261285f565b5f815290565b905f8091602081519101845af4808061397e575b156139395750506040513d81523d5f602083013e60203d82010160405290565b1561395e57639996b31560e01b5f9081526001600160a01b0391909116600452602490fd5b3d1561396f576040513d5f823e3d90fd5b63d6bda27560e01b5f5260045ffd5b503d1515806139195750813b151561391956fe27203bc8d62caad0b56b7f1020c3acf2cd00bb7fa7c320bee6a88ad2dbdc650780bb2b638cc20bc4d0a60d66940f3ab4a00c1d7b313497ca82fb0b4ab00793009016d09d72d40fdae2fd8ceac6b6234c7706214fd39c1cd1e609a0528c19930027203bc8d62caad0b56b7f1020c3acf2cd00bb7fa7c320bee6a88ad2dbdc6500360894a13ba1a3210667c828492db98dca3e2076cc3735a920a3ca505d382bbc27203bc8d62caad0b56b7f1020c3acf2cd00bb7fa7c320bee6a88ad2dbdc650127203bc8d62caad0b56b7f1020c3acf2cd00bb7fa7c320bee6a88ad2dbdc650a80bb2b638cc20bc4d0a60d66940f3ab4a00c1d7b313497ca82fb0b4ab0079302f0c57e16840df040f15088dc2f81fe391c3923bec73e23a9662efc9c229c6a0080bb2b638cc20bc4d0a60d66940f3ab4a00c1d7b313497ca82fb0b4ab007930127203bc8d62caad0b56b7f1020c3acf2cd00bb7fa7c320bee6a88ad2dbdc650327203bc8d62caad0b56b7f1020c3acf2cd00bb7fa7c320bee6a88ad2dbdc6505a26469706673582212207e532fb2dad9588a858e2cafc13fe0e2614e3842e6c6492b5c1b6e619c4dd42464736f6c634300081e0033f0c57e16840df040f15088dc2f81fe391c3923bec73e23a9662efc9c229c6a00","linkReferences":{}},"methodIdentifiers":{"UPGRADE_INTERFACE_VERSION()":"ad3cb1cc","approve(address,uint256)":"095ea7b3","balanceOf(address)":"70a08231","burn(uint256)":"42966c68","editBaseCard(uint256,(string,string,string,string),string[],string[])":"c13d8158","getApproved(uint256)":"081812fc","getSocial(uint256,string)":"171b9219","grantTokenDelegate(uint256,address)":"30b8bb30","hasMinted(address)":"38e21cce","initialize(address)":"c4d66de8","isAllowedRole(string)":"0c5aa807","isAllowedSocialKey(string)":"97ac747a","isApprovedForAll(address,address)":"e985e9c5","isTokenDelegate(uint256,address)":"d50cbeab","isTokenOperator(uint256,address)":"fddfdb5f","linkSocial(uint256,string,string)":"0327fff6","migrationAdmin()":"74df2558","mintBaseCard((string,string,string,string),string[],string[],address[])":"c96291ed","name()":"06fdde03","owner()":"8da5cb5b","ownerOf(uint256)":"6352211e","proxiableUUID()":"52d1902d","renounceOwnership()":"715018a6","revokeTokenDelegate(uint256,address)":"f35894d7","safeTransferFrom(address,address,uint256)":"42842e0e","safeTransferFrom(address,address,uint256,bytes)":"b88d4fde","setAllowedRole(string,bool)":"8c37dda5","setAllowedSocialKey(string,bool)":"83fda672","setApprovalForAll(address,bool)":"a22cb465","setMigrationAdmin(address)":"70ae07a1","supportsInterface(bytes4)":"01ffc9a7","symbol()":"95d89b41","tokenIdOf(address)":"773c02d4","tokenURI(uint256)":"c87b56dd","transferFrom(address,address,uint256)":"23b872dd","transferOwnership(address)":"f2fde38b","updateBio(uint256,string)":"f99c27c9","updateImageURI(uint256,string)":"8e5e6a28","updateNickname(uint256,string)":"c68905b9","upgradeToAndCall(address,bytes)":"4f1ef286"},"storageLayout":{"storage":[],"types":{}},"id":75}