{"abi":[{"type":"constructor","inputs":[],"stateMutability":"nonpayable"},{"type":"function","name":"UPGRADE_INTERFACE_VERSION","inputs":[],"outputs":[{"name":"","type":"string","internalType":"string"}],"stateMutability":"view"},{"type":"function","name":"approve","inputs":[{"name":"to","type":"address","internalType":"address"},{"name":"tokenId","type":"uint256","internalType":"uint256"}],"outputs":[],"stateMutability":"nonpayable"},{"type":"function","name":"balanceOf","inputs":[{"name":"owner","type":"address","internalType":"address"}],"outputs":[{"name":"","type":"uint256","internalType":"uint256"}],"stateMutability":"view"},{"type":"function","name":"burn","inputs":[{"name":"tokenId","type":"uint256","internalType":"uint256"}],"outputs":[],"stateMutability":"nonpayable"},{"type":"function","name":"editBaseCard","inputs":[{"name":"_tokenId","type":"uint256","internalType":"uint256"},{"name":"_newCardData","type":"tuple","internalType":"struct IBaseCard.CardData","components":[{"name":"imageURI","type":"string","internalType":"string"},{"name":"nickname","type":"string","internalType":"string"},{"name":"role","type":"string","internalType":"string"},{"name":"bio","type":"string","internalType":"string"}]},{"name":"_socialKeys","type":"string[]","internalType":"string[]"},{"name":"_socialValues","type":"string[]","internalType":"string[]"}],"outputs":[],"stateMutability":"nonpayable"},{"type":"function","name":"getApproved","inputs":[{"name":"tokenId","type":"uint256","internalType":"uint256"}],"outputs":[{"name":"","type":"address","internalType":"address"}],"stateMutability":"view"},{"type":"function","name":"getSocial","inputs":[{"name":"_tokenId","type":"uint256","internalType":"uint256"},{"name":"_key","type":"string","internalType":"string"}],"outputs":[{"name":"","type":"string","internalType":"string"}],"stateMutability":"view"},{"type":"function","name":"hasMinted","inputs":[{"name":"_address","type":"address","internalType":"address"}],"outputs":[{"name":"","type":"bool","internalType":"bool"}],"stateMutability":"view"},{"type":"function","name":"initialize","inputs":[{"name":"initialOwner","type":"address","internalType":"address"}],"outputs":[],"stateMutability":"nonpayable"},{"type":"function","name":"isAllowedRole","inputs":[{"name":"_role","type":"string","internalType":"string"}],"outputs":[{"name":"","type":"bool","internalType":"bool"}],"stateMutability":"view"},{"type":"function","name":"isAllowedSocialKey","inputs":[{"name":"_key","type":"string","internalType":"string"}],"outputs":[{"name":"","type":"bool","internalType":"bool"}],"stateMutability":"view"},{"type":"function","name":"isApprovedForAll","inputs":[{"name":"owner","type":"address","internalType":"address"},{"name":"operator","type":"address","internalType":"address"}],"outputs":[{"name":"","type":"bool","internalType":"bool"}],"stateMutability":"view"},{"type":"function","name":"linkSocial","inputs":[{"name":"_tokenId","type":"uint256","internalType":"uint256"},{"name":"_key","type":"string","internalType":"string"},{"name":"_value","type":"string","internalType":"string"}],"outputs":[],"stateMutability":"nonpayable"},{"type":"function","name":"migrationAdmin","inputs":[],"outputs":[{"name":"","type":"address","internalType":"address"}],"stateMutability":"view"},{"type":"function","name":"mintBaseCard","inputs":[{"name":"_initialCardData","type":"tuple","internalType":"struct IBaseCard.CardData","components":[{"name":"imageURI","type":"string","internalType":"string"},{"name":"nickname","type":"string","internalType":"string"},{"name":"role","type":"string","internalType":"string"},{"name":"bio","type":"string","internalType":"string"}]},{"name":"_socialKeys","type":"string[]","internalType":"string[]"},{"name":"_socialValues","type":"string[]","internalType":"string[]"}],"outputs":[],"stateMutability":"nonpayable"},{"type":"function","name":"name","inputs":[],"outputs":[{"name":"","type":"string","internalType":"string"}],"stateMutability":"view"},{"type":"function","name":"owner","inputs":[],"outputs":[{"name":"","type":"address","internalType":"address"}],"stateMutability":"view"},{"type":"function","name":"ownerOf","inputs":[{"name":"tokenId","type":"uint256","internalType":"uint256"}],"outputs":[{"name":"","type":"address","internalType":"address"}],"stateMutability":"view"},{"type":"function","name":"proxiableUUID","inputs":[],"outputs":[{"name":"","type":"bytes32","internalType":"bytes32"}],"stateMutability":"view"},{"type":"function","name":"renounceOwnership","inputs":[],"outputs":[],"stateMutability":"nonpayable"},{"type":"function","name":"safeTransferFrom","inputs":[{"name":"from","type":"address","internalType":"address"},{"name":"to","type":"address","internalType":"address"},{"name":"tokenId","type":"uint256","internalType":"uint256"}],"outputs":[],"stateMutability":"nonpayable"},{"type":"function","name":"safeTransferFrom","inputs":[{"name":"from","type":"address","internalType":"address"},{"name":"to","type":"address","internalType":"address"},{"name":"tokenId","type":"uint256","internalType":"uint256"},{"name":"data","type":"bytes","internalType":"bytes"}],"outputs":[],"stateMutability":"nonpayable"},{"type":"function","name":"setAllowedRole","inputs":[{"name":"_role","type":"string","internalType":"string"},{"name":"_isAllowed","type":"bool","internalType":"bool"}],"outputs":[],"stateMutability":"nonpayable"},{"type":"function","name":"setAllowedSocialKey","inputs":[{"name":"_key","type":"string","internalType":"string"},{"name":"_isAllowed","type":"bool","internalType":"bool"}],"outputs":[],"stateMutability":"nonpayable"},{"type":"function","name":"setApprovalForAll","inputs":[{"name":"operator","type":"address","internalType":"address"},{"name":"approved","type":"bool","internalType":"bool"}],"outputs":[],"stateMutability":"nonpayable"},{"type":"function","name":"setMigrationAdmin","inputs":[{"name":"_migrationAdmin","type":"address","internalType":"address"}],"outputs":[],"stateMutability":"nonpayable"},{"type":"function","name":"supportsInterface","inputs":[{"name":"interfaceId","type":"bytes4","internalType":"bytes4"}],"outputs":[{"name":"","type":"bool","internalType":"bool"}],"stateMutability":"view"},{"type":"function","name":"symbol","inputs":[],"outputs":[{"name":"","type":"string","internalType":"string"}],"stateMutability":"view"},{"type":"function","name":"tokenIdOf","inputs":[{"name":"_owner","type":"address","internalType":"address"}],"outputs":[{"name":"","type":"uint256","internalType":"uint256"}],"stateMutability":"view"},{"type":"function","name":"tokenURI","inputs":[{"name":"_tokenId","type":"uint256","internalType":"uint256"}],"outputs":[{"name":"","type":"string","internalType":"string"}],"stateMutability":"view"},{"type":"function","name":"transferFrom","inputs":[{"name":"from","type":"address","internalType":"address"},{"name":"to","type":"address","internalType":"address"},{"name":"tokenId","type":"uint256","internalType":"uint256"}],"outputs":[],"stateMutability":"nonpayable"},{"type":"function","name":"transferOwnership","inputs":[{"name":"newOwner","type":"address","internalType":"address"}],"outputs":[],"stateMutability":"nonpayable"},{"type":"function","name":"updateBio","inputs":[{"name":"_tokenId","type":"uint256","internalType":"uint256"},{"name":"_newBio","type":"string","internalType":"string"}],"outputs":[],"stateMutability":"nonpayable"},{"type":"function","name":"updateImageURI","inputs":[{"name":"_tokenId","type":"uint256","internalType":"uint256"},{"name":"_newImageUri","type":"string","internalType":"string"}],"outputs":[],"stateMutability":"nonpayable"},{"type":"function","name":"updateNickname","inputs":[{"name":"_tokenId","type":"uint256","internalType":"uint256"},{"name":"_newNickname","type":"string","internalType":"string"}],"outputs":[],"stateMutability":"nonpayable"},{"type":"function","name":"upgradeToAndCall","inputs":[{"name":"newImplementation","type":"address","internalType":"address"},{"name":"data","type":"bytes","internalType":"bytes"}],"outputs":[],"stateMutability":"payable"},{"type":"event","name":"Approval","inputs":[{"name":"owner","type":"address","indexed":true,"internalType":"address"},{"name":"approved","type":"address","indexed":true,"internalType":"address"},{"name":"tokenId","type":"uint256","indexed":true,"internalType":"uint256"}],"anonymous":false},{"type":"event","name":"ApprovalForAll","inputs":[{"name":"owner","type":"address","indexed":true,"internalType":"address"},{"name":"operator","type":"address","indexed":true,"internalType":"address"},{"name":"approved","type":"bool","indexed":false,"internalType":"bool"}],"anonymous":false},{"type":"event","name":"BaseCardEdited","inputs":[{"name":"tokenId","type":"uint256","indexed":true,"internalType":"uint256"}],"anonymous":false},{"type":"event","name":"BatchMetadataUpdate","inputs":[{"name":"_fromTokenId","type":"uint256","indexed":false,"internalType":"uint256"},{"name":"_toTokenId","type":"uint256","indexed":false,"internalType":"uint256"}],"anonymous":false},{"type":"event","name":"Initialized","inputs":[{"name":"version","type":"uint64","indexed":false,"internalType":"uint64"}],"anonymous":false},{"type":"event","name":"MetadataUpdate","inputs":[{"name":"_tokenId","type":"uint256","indexed":false,"internalType":"uint256"}],"anonymous":false},{"type":"event","name":"MintBaseCard","inputs":[{"name":"user","type":"address","indexed":true,"internalType":"address"},{"name":"tokenId","type":"uint256","indexed":true,"internalType":"uint256"}],"anonymous":false},{"type":"event","name":"OwnershipTransferred","inputs":[{"name":"previousOwner","type":"address","indexed":true,"internalType":"address"},{"name":"newOwner","type":"address","indexed":true,"internalType":"address"}],"anonymous":false},{"type":"event","name":"SocialLinked","inputs":[{"name":"tokenId","type":"uint256","indexed":true,"internalType":"uint256"},{"name":"key","type":"string","indexed":false,"internalType":"string"},{"name":"value","type":"string","indexed":false,"internalType":"string"}],"anonymous":false},{"type":"event","name":"SocialUnlinked","inputs":[{"name":"tokenId","type":"uint256","indexed":true,"internalType":"uint256"},{"name":"key","type":"string","indexed":false,"internalType":"string"}],"anonymous":false},{"type":"event","name":"Transfer","inputs":[{"name":"from","type":"address","indexed":true,"internalType":"address"},{"name":"to","type":"address","indexed":true,"internalType":"address"},{"name":"tokenId","type":"uint256","indexed":true,"internalType":"uint256"}],"anonymous":false},{"type":"event","name":"Upgraded","inputs":[{"name":"implementation","type":"address","indexed":true,"internalType":"address"}],"anonymous":false},{"type":"error","name":"AddressEmptyCode","inputs":[{"name":"target","type":"address","internalType":"address"}]},{"type":"error","name":"AddressZero","inputs":[]},{"type":"error","name":"AlreadyMinted","inputs":[{"name":"user","type":"address","internalType":"address"}]},{"type":"error","name":"ERC1967InvalidImplementation","inputs":[{"name":"implementation","type":"address","internalType":"address"}]},{"type":"error","name":"ERC1967NonPayable","inputs":[]},{"type":"error","name":"ERC721IncorrectOwner","inputs":[{"name":"sender","type":"address","internalType":"address"},{"name":"tokenId","type":"uint256","internalType":"uint256"},{"name":"owner","type":"address","internalType":"address"}]},{"type":"error","name":"ERC721InsufficientApproval","inputs":[{"name":"operator","type":"address","internalType":"address"},{"name":"tokenId","type":"uint256","internalType":"uint256"}]},{"type":"error","name":"ERC721InvalidApprover","inputs":[{"name":"approver","type":"address","internalType":"address"}]},{"type":"error","name":"ERC721InvalidOperator","inputs":[{"name":"operator","type":"address","internalType":"address"}]},{"type":"error","name":"ERC721InvalidOwner","inputs":[{"name":"owner","type":"address","internalType":"address"}]},{"type":"error","name":"ERC721InvalidReceiver","inputs":[{"name":"receiver","type":"address","internalType":"address"}]},{"type":"error","name":"ERC721InvalidSender","inputs":[{"name":"sender","type":"address","internalType":"address"}]},{"type":"error","name":"ERC721NonexistentToken","inputs":[{"name":"tokenId","type":"uint256","internalType":"uint256"}]},{"type":"error","name":"EmptyImageURI","inputs":[]},{"type":"error","name":"EmptyNickname","inputs":[]},{"type":"error","name":"FailedCall","inputs":[]},{"type":"error","name":"InvalidInitialization","inputs":[]},{"type":"error","name":"InvalidTokenId","inputs":[{"name":"tokenId","type":"uint256","internalType":"uint256"}]},{"type":"error","name":"MismatchedSocialKeysAndValues","inputs":[]},{"type":"error","name":"NotAllowedRole","inputs":[{"name":"role","type":"string","internalType":"string"}]},{"type":"error","name":"NotAllowedSocialKey","inputs":[{"name":"key","type":"string","internalType":"string"}]},{"type":"error","name":"NotInitializing","inputs":[]},{"type":"error","name":"NotTokenOwner","inputs":[{"name":"caller","type":"address","internalType":"address"},{"name":"tokenId","type":"uint256","internalType":"uint256"}]},{"type":"error","name":"OwnableInvalidOwner","inputs":[{"name":"owner","type":"address","internalType":"address"}]},{"type":"error","name":"OwnableUnauthorizedAccount","inputs":[{"name":"account","type":"address","internalType":"address"}]},{"type":"error","name":"UUPSUnauthorizedCallContext","inputs":[]},{"type":"error","name":"UUPSUnsupportedProxiableUUID","inputs":[{"name":"slot","type":"bytes32","internalType":"bytes32"}]}],"bytecode":{"object":"0x60a06040523073ffffffffffffffffffffffffffffffffffffffff1660809073ffffffffffffffffffffffffffffffffffffffff16815250348015610042575f5ffd5b5061005161005660201b60201c565b6101d1565b5f61006561015460201b60201c565b9050805f0160089054906101000a900460ff16156100af576040517ff92ee8a900000000000000000000000000000000000000000000000000000000815260040160405180910390fd5b67ffffffffffffffff8016815f015f9054906101000a900467ffffffffffffffff1667ffffffffffffffff16146101515767ffffffffffffffff815f015f6101000a81548167ffffffffffffffff021916908367ffffffffffffffff1602179055507fc7f505b2f371ae2175ee4913f4499e1f2633a7b5936321eed1cdaeb6115181d267ffffffffffffffff60405161014891906101b8565b60405180910390a15b50565b5f5f61016461016d60201b60201c565b90508091505090565b5f7ff0c57e16840df040f15088dc2f81fe391c3923bec73e23a9662efc9c229c6a005f1b905090565b5f67ffffffffffffffff82169050919050565b6101b281610196565b82525050565b5f6020820190506101cb5f8301846101a9565b92915050565b608051615baa6101f75f395f8181612cdd01528181612d320152612eec0152615baa5ff3fe60806040526004361061020e575f3560e01c8063773c02d411610117578063ad3cb1cc1161009f578063c68905b91161006e578063c68905b91461078c578063c87b56dd146107b4578063e985e9c5146107f0578063f2fde38b1461082c578063f99c27c9146108545761020e565b8063ad3cb1cc146106ea578063b88d4fde14610714578063c13d81581461073c578063c4d66de8146107645761020e565b80638da5cb5b116100e65780638da5cb5b1461060a5780638e5e6a281461063457806395d89b411461065c57806397ac747a14610686578063a22cb465146106c25761020e565b8063773c02d41461055657806383fda67214610592578063876e1bc6146105ba5780638c37dda5146105e25761020e565b806342842e0e1161019a5780636352211e116101695780636352211e1461047657806370a08231146104b257806370ae07a1146104ee578063715018a61461051657806374df25581461052c5761020e565b806342842e0e146103e057806342966c68146104085780634f1ef2861461043057806352d1902d1461044c5761020e565b8063095ea7b3116101e1578063095ea7b3146102dc5780630c5aa80714610304578063171b92191461034057806323b872dd1461037c57806338e21cce146103a45761020e565b806301ffc9a7146102125780630327fff61461024e57806306fdde0314610276578063081812fc146102a0575b5f5ffd5b34801561021d575f5ffd5b506102386004803603810190610233919061443b565b61087c565b6040516102459190614480565b60405180910390f35b348015610259575f5ffd5b50610274600480360381019061026f9190614608565b61088d565b005b348015610281575f5ffd5b5061028a610a0e565b60405161029791906146f0565b60405180910390f35b3480156102ab575f5ffd5b506102c660048036038101906102c19190614710565b610aab565b6040516102d3919061477a565b60405180910390f35b3480156102e7575f5ffd5b5061030260048036038101906102fd91906147bd565b610ac6565b005b34801561030f575f5ffd5b5061032a600480360381019061032591906147fb565b610adc565b6040516103379190614480565b60405180910390f35b34801561034b575f5ffd5b5061036660048036038101906103619190614842565b610b1d565b60405161037391906146f0565b60405180910390f35b348015610387575f5ffd5b506103a2600480360381019061039d919061489c565b610be9565b005b3480156103af575f5ffd5b506103ca60048036038101906103c591906148ec565b610ce8565b6040516103d79190614480565b60405180910390f35b3480156103eb575f5ffd5b506104066004803603810190610401919061489c565b610d48565b005b348015610413575f5ffd5b5061042e60048036038101906104299190614710565b610d67565b005b61044a600480360381019061044591906149b5565b610d7d565b005b348015610457575f5ffd5b50610460610d9c565b60405161046d9190614a27565b60405180910390f35b348015610481575f5ffd5b5061049c60048036038101906104979190614710565b610dcd565b6040516104a9919061477a565b60405180910390f35b3480156104bd575f5ffd5b506104d860048036038101906104d391906148ec565b610dde565b6040516104e59190614a4f565b60405180910390f35b3480156104f9575f5ffd5b50610514600480360381019061050f91906148ec565b610ea2565b005b348015610521575f5ffd5b5061052a610f60565b005b348015610537575f5ffd5b50610540610f73565b60405161054d919061477a565b60405180910390f35b348015610561575f5ffd5b5061057c600480360381019061057791906148ec565b610fa9565b6040516105899190614a4f565b60405180910390f35b34801561059d575f5ffd5b506105b860048036038101906105b39190614a92565b610ffd565b005b3480156105c5575f5ffd5b506105e060048036038101906105db9190614cbb565b611133565b005b3480156105ed575f5ffd5b5061060860048036038101906106039190614a92565b6114c6565b005b348015610615575f5ffd5b5061061e6115fc565b60405161062b919061477a565b60405180910390f35b34801561063f575f5ffd5b5061065a60048036038101906106559190614842565b611631565b005b348015610667575f5ffd5b506106706116a9565b60405161067d91906146f0565b60405180910390f35b348015610691575f5ffd5b506106ac60048036038101906106a791906147fb565b611747565b6040516106b99190614480565b60405180910390f35b3480156106cd575f5ffd5b506106e860048036038101906106e39190614d5f565b611788565b005b3480156106f5575f5ffd5b506106fe61179e565b60405161070b91906146f0565b60405180910390f35b34801561071f575f5ffd5b5061073a60048036038101906107359190614d9d565b6117d7565b005b348015610747575f5ffd5b50610762600480360381019061075d9190614e1d565b6117fc565b005b34801561076f575f5ffd5b5061078a600480360381019061078591906148ec565b611ab6565b005b348015610797575f5ffd5b506107b260048036038101906107ad9190614842565b61211a565b005b3480156107bf575f5ffd5b506107da60048036038101906107d59190614710565b612193565b6040516107e791906146f0565b60405180910390f35b3480156107fb575f5ffd5b5061081660048036038101906108119190614ed5565b61274e565b6040516108239190614480565b60405180910390f35b348015610837575f5ffd5b50610852600480360381019061084d91906148ec565b6127ea565b005b34801561085f575f5ffd5b5061087a60048036038101906108759190614842565b61286e565b005b5f610886826128ad565b9050919050565b826108978161290d565b5f6108a061298a565b905080600401846040516108b49190614f4d565b90815260200160405180910390205f9054906101000a900460ff1661091057836040517f531101bf00000000000000000000000000000000000000000000000000000000815260040161090791906146f0565b60405180910390fd5b5f83510361098f57806003015f8681526020019081526020015f20846040516109399190614f4d565b90815260200160405180910390205f610952919061437d565b847f17d57f0e8e59050d105e4ef1df4ea07969bd0f1f6c1e9188e6a1f5228dbfe48b8560405161098291906146f0565b60405180910390a2610a07565b82816003015f8781526020019081526020015f20856040516109b19190614f4d565b908152602001604051809103902090816109cb9190615160565b50847f8b490e7b0a60733bb17982917e471c69228883c096a425f2dece0819ce92e7bb85856040516109fe92919061522f565b60405180910390a25b5050505050565b60605f610a196129b1565b9050805f018054610a2990614f90565b80601f0160208091040260200160405190810160405280929190818152602001828054610a5590614f90565b8015610aa05780601f10610a7757610100808354040283529160200191610aa0565b820191905f5260205f20905b815481529060010190602001808311610a8357829003601f168201915b505050505091505090565b5f610ab5826129d8565b50610abf82612a5e565b9050919050565b610ad88282610ad3612aa5565b612aac565b5050565b5f5f610ae661298a565b90508060060183604051610afa9190614f4d565b90815260200160405180910390205f9054906101000a900460ff16915050919050565b60605f610b2861298a565b9050806003015f8581526020019081526020015f2083604051610b4b9190614f4d565b90815260200160405180910390208054610b6490614f90565b80601f0160208091040260200160405190810160405280929190818152602001828054610b9090614f90565b8015610bdb5780601f10610bb257610100808354040283529160200191610bdb565b820191905f5260205f20905b815481529060010190602001808311610bbe57829003601f168201915b505050505091505092915050565b5f73ffffffffffffffffffffffffffffffffffffffff168273ffffffffffffffffffffffffffffffffffffffff1603610c59575f6040517f64a0ae92000000000000000000000000000000000000000000000000000000008152600401610c50919061477a565b60405180910390fd5b5f610c6c8383610c67612aa5565b612abe565b90508373ffffffffffffffffffffffffffffffffffffffff168173ffffffffffffffffffffffffffffffffffffffff1614610ce2578382826040517f64283d7b000000000000000000000000000000000000000000000000000000008152600401610cd993929190615264565b60405180910390fd5b50505050565b5f5f610cf261298a565b9050806002015f8473ffffffffffffffffffffffffffffffffffffffff1673ffffffffffffffffffffffffffffffffffffffff1681526020019081526020015f205f9054906101000a900460ff16915050919050565b610d6283838360405180602001604052805f8152506117d7565b505050565b610d795f82610d74612aa5565b612abe565b5050565b610d85612cdb565b610d8e82612dc1565b610d988282612dcc565b5050565b5f610da5612eea565b7f360894a13ba1a3210667c828492db98dca3e2076cc3735a920a3ca505d382bbc5f1b905090565b5f610dd7826129d8565b9050919050565b5f5f610de86129b1565b90505f73ffffffffffffffffffffffffffffffffffffffff168373ffffffffffffffffffffffffffffffffffffffff1603610e5a575f6040517f89c62b64000000000000000000000000000000000000000000000000000000008152600401610e51919061477a565b60405180910390fd5b806003015f8473ffffffffffffffffffffffffffffffffffffffff1673ffffffffffffffffffffffffffffffffffffffff1681526020019081526020015f2054915050919050565b610eaa612f71565b5f73ffffffffffffffffffffffffffffffffffffffff168173ffffffffffffffffffffffffffffffffffffffff1603610f0f576040517f9fabe1c100000000000000000000000000000000000000000000000000000000815260040160405180910390fd5b5f610f1861298a565b905081816009015f6101000a81548173ffffffffffffffffffffffffffffffffffffffff021916908373ffffffffffffffffffffffffffffffffffffffff1602179055505050565b610f68612f71565b610f715f612ff8565b565b5f5f610f7d61298a565b9050806009015f9054906101000a900473ffffffffffffffffffffffffffffffffffffffff1691505090565b5f5f610fb361298a565b9050806008015f8473ffffffffffffffffffffffffffffffffffffffff1673ffffffffffffffffffffffffffffffffffffffff1681526020019081526020015f2054915050919050565b611005612f71565b5f61100e61298a565b90508180156110475750806004018360405161102a9190614f4d565b90815260200160405180910390205f9054906101000a900460ff16155b156110f7575f5f90505f5f90505b82600501805490508110156110ba57848051906020012083600501828154811061108257611081615299565b5b905f5260205f20016040516110979190615362565b6040518091039020036110ad57600191506110ba565b8080600101915050611055565b50806110f5578160050184908060018154018082558091505060019003905f5260205f20015f9091909190915090816110f39190615160565b505b505b81816004018460405161110a9190614f4d565b90815260200160405180910390205f6101000a81548160ff021916908315150217905550505050565b5f61113c61298a565b9050806002015f3373ffffffffffffffffffffffffffffffffffffffff1673ffffffffffffffffffffffffffffffffffffffff1681526020019081526020015f205f9054906101000a900460ff16156111cc57336040517f893cc5760000000000000000000000000000000000000000000000000000000081526004016111c3919061477a565b60405180910390fd5b8151835114611207576040517fb00e9b6200000000000000000000000000000000000000000000000000000000815260040160405180910390fd5b611210846130c9565b6001816002015f3373ffffffffffffffffffffffffffffffffffffffff1673ffffffffffffffffffffffffffffffffffffffff1681526020019081526020015f205f6101000a81548160ff0219169083151502179055505f815f015f81548092919061127b906153a5565b91905055905084826001015f8381526020019081526020015f205f820151815f0190816112a89190615160565b5060208201518160010190816112be9190615160565b5060408201518160020190816112d49190615160565b5060608201518160030190816112ea9190615160565b509050506112f833826131c9565b80826008015f3373ffffffffffffffffffffffffffffffffffffffff1673ffffffffffffffffffffffffffffffffffffffff1681526020019081526020015f20819055505f5f90505b845181101561147a575f85828151811061135e5761135d615299565b5b602002602001015190505f85838151811061137c5761137b615299565b5b6020026020010151905084600401826040516113989190614f4d565b90815260200160405180910390205f9054906101000a900460ff166113f457816040517f531101bf0000000000000000000000000000000000000000000000000000000081526004016113eb91906146f0565b60405180910390fd5b80856003015f8681526020019081526020015f20836040516114169190614f4d565b908152602001604051809103902090816114309190615160565b50837f8b490e7b0a60733bb17982917e471c69228883c096a425f2dece0819ce92e7bb838360405161146392919061522f565b60405180910390a250508080600101915050611341565b50803373ffffffffffffffffffffffffffffffffffffffff167f53f3e9a832a8c21b2c8955fbf6dc0bd4b59bb2c4306d5a81eaa517ccbf6d9f7360405160405180910390a35050505050565b6114ce612f71565b5f6114d761298a565b9050818015611510575080600601836040516114f39190614f4d565b90815260200160405180910390205f9054906101000a900460ff16155b156115c0575f5f90505f5f90505b826007018054905081101561158357848051906020012083600701828154811061154b5761154a615299565b5b905f5260205f20016040516115609190615362565b6040518091039020036115765760019150611583565b808060010191505061151e565b50806115be578160070184908060018154018082558091505060019003905f5260205f20015f9091909190915090816115bc9190615160565b505b505b8181600601846040516115d39190614f4d565b90815260200160405180910390205f6101000a81548160ff021916908315150217905550505050565b5f5f6116066131e6565b9050805f015f9054906101000a900473ffffffffffffffffffffffffffffffffffffffff1691505090565b8161163b8161290d565b5f825103611675576040517f9be4ff5400000000000000000000000000000000000000000000000000000000815260040160405180910390fd5b5f61167e61298a565b905082816001015f8681526020019081526020015f205f0190816116a29190615160565b5050505050565b60605f6116b46129b1565b90508060010180546116c590614f90565b80601f01602080910402602001604051908101604052809291908181526020018280546116f190614f90565b801561173c5780601f106117135761010080835404028352916020019161173c565b820191905f5260205f20905b81548152906001019060200180831161171f57829003601f168201915b505050505091505090565b5f5f61175161298a565b905080600401836040516117659190614f4d565b90815260200160405180910390205f9054906101000a900460ff16915050919050565b61179a611793612aa5565b838361320d565b5050565b6040518060400160405280600581526020017f352e302e3000000000000000000000000000000000000000000000000000000081525081565b6117e2848484610be9565b6117f66117ed612aa5565b85858585613384565b50505050565b836118068161290d565b5f61180f61298a565b9050825184511461184c576040517fb00e9b6200000000000000000000000000000000000000000000000000000000815260040160405180910390fd5b611855856130c9565b84816001015f8881526020019081526020015f205f820151815f01908161187c9190615160565b5060208201518160010190816118929190615160565b5060408201518160020190816118a89190615160565b5060608201518160030190816118be9190615160565b509050505f5f90505b8451811015611a80575f8582815181106118e4576118e3615299565b5b602002602001015190505f85838151811061190257611901615299565b5b60200260200101519050836004018260405161191e9190614f4d565b90815260200160405180910390205f9054906101000a900460ff1661197a57816040517f531101bf00000000000000000000000000000000000000000000000000000000815260040161197191906146f0565b60405180910390fd5b5f8151036119f957836003015f8a81526020019081526020015f20826040516119a39190614f4d565b90815260200160405180910390205f6119bc919061437d565b887f17d57f0e8e59050d105e4ef1df4ea07969bd0f1f6c1e9188e6a1f5228dbfe48b836040516119ec91906146f0565b60405180910390a2611a71565b80846003015f8b81526020019081526020015f2083604051611a1b9190614f4d565b90815260200160405180910390209081611a359190615160565b50887f8b490e7b0a60733bb17982917e471c69228883c096a425f2dece0819ce92e7bb8383604051611a6892919061522f565b60405180910390a25b505080806001019150506118c7565b50857f6a4ce9bca42b76f6f9a08d3d0d5052fc9fcb67ca45c945b00c16b4ba6e2ba29960405160405180910390a2505050505050565b5f611abf613530565b90505f815f0160089054906101000a900460ff161590505f825f015f9054906101000a900467ffffffffffffffff1690505f5f8267ffffffffffffffff16148015611b075750825b90505f60018367ffffffffffffffff16148015611b3a57505f3073ffffffffffffffffffffffffffffffffffffffff163b145b905081158015611b48575080155b15611b7f576040517ff92ee8a900000000000000000000000000000000000000000000000000000000815260040160405180910390fd5b6001855f015f6101000a81548167ffffffffffffffff021916908367ffffffffffffffff1602179055508315611bcc576001855f0160086101000a81548160ff0219169083151502179055505b611c406040518060400160405280600881526020017f42617365436172640000000000000000000000000000000000000000000000008152506040518060400160405280600581526020017f4243415244000000000000000000000000000000000000000000000000000000815250613543565b611c48613559565b611c50613563565b611c598661356d565b5f611c6261298a565b90506001815f01819055505f6040518060c001604052806040518060400160405280600181526020017f780000000000000000000000000000000000000000000000000000000000000081525081526020016040518060400160405280600981526020017f666172636173746572000000000000000000000000000000000000000000000081525081526020016040518060400160405280600781526020017f776562736974650000000000000000000000000000000000000000000000000081525081526020016040518060400160405280600681526020017f676974687562000000000000000000000000000000000000000000000000000081525081526020016040518060400160405280600881526020017f6c696e6b6564696e00000000000000000000000000000000000000000000000081525081526020016040518060400160405280600881526020017f626173656e616d6500000000000000000000000000000000000000000000000081525081525090505f5f90505b6006811015611e9057600183600401838360068110611e0257611e01615299565b5b6020020151604051611e149190614f4d565b90815260200160405180910390205f6101000a81548160ff02191690831515021790555082600501828260068110611e4f57611e4e615299565b5b6020020151908060018154018082558091505060019003905f5260205f20015f909190919091509081611e829190615160565b508080600101915050611de0565b505f6040518060c001604052806040518060400160405280600981526020017f446576656c6f706572000000000000000000000000000000000000000000000081525081526020016040518060400160405280600881526020017f44657369676e657200000000000000000000000000000000000000000000000081525081526020016040518060400160405280600881526020017f4d61726b6574657200000000000000000000000000000000000000000000000081525081526020016040518060400160405280600781526020017f466f756e6465720000000000000000000000000000000000000000000000000081525081526020016040518060400160405280600281526020017f424400000000000000000000000000000000000000000000000000000000000081525081526020016040518060400160405280600281526020017f504d00000000000000000000000000000000000000000000000000000000000081525081525090505f5f90505b60068110156120b45760018460060183836006811061202657612025615299565b5b60200201516040516120389190614f4d565b90815260200160405180910390205f6101000a81548160ff0219169083151502179055508360070182826006811061207357612072615299565b5b6020020151908060018154018082558091505060019003905f5260205f20015f9091909190915090816120a69190615160565b508080600101915050612004565b505050508315612112575f855f0160086101000a81548160ff0219169083151502179055507fc7f505b2f371ae2175ee4913f4499e1f2633a7b5936321eed1cdaeb6115181d260016040516121099190615438565b60405180910390a15b505050505050565b816121248161290d565b5f82510361215e576040517fc15fcd5e00000000000000000000000000000000000000000000000000000000815260040160405180910390fd5b5f61216761298a565b905082816001015f8681526020019081526020015f20600101908161218c9190615160565b5050505050565b60605f61219e61298a565b90505f8314806121b15750805f01548310155b156121f357826040517fed15e6cf0000000000000000000000000000000000000000000000000000000081526004016121ea9190614a4f565b60405180910390fd5b5f816001015f8581526020019081526020015f206040518060800160405290815f8201805461222190614f90565b80601f016020809104026020016040519081016040528092919081815260200182805461224d90614f90565b80156122985780601f1061226f57610100808354040283529160200191612298565b820191905f5260205f20905b81548152906001019060200180831161227b57829003601f168201915b505050505081526020016001820180546122b190614f90565b80601f01602080910402602001604051908101604052809291908181526020018280546122dd90614f90565b80156123285780601f106122ff57610100808354040283529160200191612328565b820191905f5260205f20905b81548152906001019060200180831161230b57829003601f168201915b5050505050815260200160028201805461234190614f90565b80601f016020809104026020016040519081016040528092919081815260200182805461236d90614f90565b80156123b85780601f1061238f576101008083540402835291602001916123b8565b820191905f5260205f20905b81548152906001019060200180831161239b57829003601f168201915b505050505081526020016003820180546123d190614f90565b80601f01602080910402602001604051908101604052809291908181526020018280546123fd90614f90565b80156124485780601f1061241f57610100808354040283529160200191612448565b820191905f5260205f20905b81548152906001019060200180831161242b57829003601f168201915b50505050508152505090505f6040518060400160405280600181526020017f5b0000000000000000000000000000000000000000000000000000000000000081525090505f83600501805480602002602001604051908101604052809291908181526020015f905b82821015612558578382905f5260205f200180546124cd90614f90565b80601f01602080910402602001604051908101604052809291908181526020018280546124f990614f90565b80156125445780601f1061251b57610100808354040283529160200191612544565b820191905f5260205f20905b81548152906001019060200180831161252757829003601f168201915b5050505050815260200190600101906124b0565b5050505090505f600190505f5f90505b82518110156126b2575f83828151811061258557612584615299565b5b602002602001015190505f876003015f8b81526020019081526020015f20826040516125b19190614f4d565b908152602001604051809103902080546125ca90614f90565b80601f01602080910402602001604051908101604052809291908181526020018280546125f690614f90565b80156126415780601f1061261857610100808354040283529160200191612641565b820191905f5260205f20905b81548152906001019060200180831161262457829003601f168201915b505050505090505f815111156126a3578361267957856040516020016126679190615477565b60405160208183030381529060405295505b85828260405160200161268e9392919061550e565b60405160208183030381529060405295505f93505b50508080600101915050612568565b50826040516020016126c49190615591565b60405160208183030381529060405292505f6126df88613581565b855f01518660200151876040015188606001518860405160200161270896959493929190615806565b60405160208183030381529060405290506127228161364b565b604051602001612732919061592b565b6040516020818303038152906040529650505050505050919050565b5f5f6127586129b1565b9050806005015f8573ffffffffffffffffffffffffffffffffffffffff1673ffffffffffffffffffffffffffffffffffffffff1681526020019081526020015f205f8473ffffffffffffffffffffffffffffffffffffffff1673ffffffffffffffffffffffffffffffffffffffff1681526020019081526020015f205f9054906101000a900460ff1691505092915050565b6127f2612f71565b5f73ffffffffffffffffffffffffffffffffffffffff168173ffffffffffffffffffffffffffffffffffffffff1603612862575f6040517f1e4fbdf7000000000000000000000000000000000000000000000000000000008152600401612859919061477a565b60405180910390fd5b61286b81612ff8565b50565b816128788161290d565b5f61288161298a565b905082816001015f8681526020019081526020015f2060030190816128a69190615160565b5050505050565b5f634906490660e01b7bffffffffffffffffffffffffffffffffffffffffffffffffffffffff1916827bffffffffffffffffffffffffffffffffffffffffffffffffffffffff1916148061290657506129058261365e565b5b9050919050565b3373ffffffffffffffffffffffffffffffffffffffff1661292d82610dcd565b73ffffffffffffffffffffffffffffffffffffffff16146129875733816040517f58a5e22200000000000000000000000000000000000000000000000000000000815260040161297e92919061594c565b60405180910390fd5b50565b5f7f27203bc8d62caad0b56b7f1020c3acf2cd00bb7fa7c320bee6a88ad2dbdc6500905090565b5f7f80bb2b638cc20bc4d0a60d66940f3ab4a00c1d7b313497ca82fb0b4ab0079300905090565b5f5f6129e38361373f565b90505f73ffffffffffffffffffffffffffffffffffffffff168173ffffffffffffffffffffffffffffffffffffffff1603612a5557826040517f7e273289000000000000000000000000000000000000000000000000000000008152600401612a4c9190614a4f565b60405180910390fd5b80915050919050565b5f5f612a686129b1565b9050806004015f8481526020019081526020015f205f9054906101000a900473ffffffffffffffffffffffffffffffffffffffff16915050919050565b5f33905090565b612ab98383836001613786565b505050565b5f5f612ac86129b1565b90505f612ad48561373f565b90505f73ffffffffffffffffffffffffffffffffffffffff168473ffffffffffffffffffffffffffffffffffffffff1614612b1557612b14818587613953565b5b5f73ffffffffffffffffffffffffffffffffffffffff168173ffffffffffffffffffffffffffffffffffffffff1614612ba257612b545f865f5f613786565b6001826003015f8373ffffffffffffffffffffffffffffffffffffffff1673ffffffffffffffffffffffffffffffffffffffff1681526020019081526020015f205f82825403925050819055505b5f73ffffffffffffffffffffffffffffffffffffffff168673ffffffffffffffffffffffffffffffffffffffff1614612c23576001826003015f8873ffffffffffffffffffffffffffffffffffffffff1673ffffffffffffffffffffffffffffffffffffffff1681526020019081526020015f205f82825401925050819055505b85826002015f8781526020019081526020015f205f6101000a81548173ffffffffffffffffffffffffffffffffffffffff021916908373ffffffffffffffffffffffffffffffffffffffff160217905550848673ffffffffffffffffffffffffffffffffffffffff168273ffffffffffffffffffffffffffffffffffffffff167fddf252ad1be2c89b69c2b068fc378daa952ba7f163c4a11628f55a4df523b3ef60405160405180910390a480925050509392505050565b7f000000000000000000000000000000000000000000000000000000000000000073ffffffffffffffffffffffffffffffffffffffff163073ffffffffffffffffffffffffffffffffffffffff161480612d8857507f000000000000000000000000000000000000000000000000000000000000000073ffffffffffffffffffffffffffffffffffffffff16612d6f613a16565b73ffffffffffffffffffffffffffffffffffffffff1614155b15612dbf576040517fe07c8dba00000000000000000000000000000000000000000000000000000000815260040160405180910390fd5b565b612dc9612f71565b50565b8173ffffffffffffffffffffffffffffffffffffffff166352d1902d6040518163ffffffff1660e01b8152600401602060405180830381865afa925050508015612e3457506040513d601f19601f82011682018060405250810190612e31919061599d565b60015b612e7557816040517f4c9c8ce3000000000000000000000000000000000000000000000000000000008152600401612e6c919061477a565b60405180910390fd5b7f360894a13ba1a3210667c828492db98dca3e2076cc3735a920a3ca505d382bbc5f1b8114612edb57806040517faa1d49a4000000000000000000000000000000000000000000000000000000008152600401612ed29190614a27565b60405180910390fd5b612ee58383613a69565b505050565b7f000000000000000000000000000000000000000000000000000000000000000073ffffffffffffffffffffffffffffffffffffffff163073ffffffffffffffffffffffffffffffffffffffff1614612f6f576040517fe07c8dba00000000000000000000000000000000000000000000000000000000815260040160405180910390fd5b565b612f79612aa5565b73ffffffffffffffffffffffffffffffffffffffff16612f976115fc565b73ffffffffffffffffffffffffffffffffffffffff1614612ff657612fba612aa5565b6040517f118cdaa7000000000000000000000000000000000000000000000000000000008152600401612fed919061477a565b60405180910390fd5b565b5f6130016131e6565b90505f815f015f9054906101000a900473ffffffffffffffffffffffffffffffffffffffff16905082825f015f6101000a81548173ffffffffffffffffffffffffffffffffffffffff021916908373ffffffffffffffffffffffffffffffffffffffff1602179055508273ffffffffffffffffffffffffffffffffffffffff168173ffffffffffffffffffffffffffffffffffffffff167f8be0079c531659141344cd1fd0a4f28419497f9722a3daafe3b4186f6b6457e060405160405180910390a3505050565b5f6130d261298a565b90505f82602001515103613112576040517fc15fcd5e00000000000000000000000000000000000000000000000000000000815260040160405180910390fd5b5f825f0151510361314f576040517f9be4ff5400000000000000000000000000000000000000000000000000000000815260040160405180910390fd5b8060060182604001516040516131659190614f4d565b90815260200160405180910390205f9054906101000a900460ff166131c55781604001516040517f6835a3820000000000000000000000000000000000000000000000000000000081526004016131bc91906146f0565b60405180910390fd5b5050565b6131e2828260405180602001604052805f815250613adb565b5050565b5f7f9016d09d72d40fdae2fd8ceac6b6234c7706214fd39c1cd1e609a0528c199300905090565b5f6132166129b1565b90505f73ffffffffffffffffffffffffffffffffffffffff168373ffffffffffffffffffffffffffffffffffffffff160361328857826040517f5b08ba1800000000000000000000000000000000000000000000000000000000815260040161327f919061477a565b60405180910390fd5b81816005015f8673ffffffffffffffffffffffffffffffffffffffff1673ffffffffffffffffffffffffffffffffffffffff1681526020019081526020015f205f8573ffffffffffffffffffffffffffffffffffffffff1673ffffffffffffffffffffffffffffffffffffffff1681526020019081526020015f205f6101000a81548160ff0219169083151502179055508273ffffffffffffffffffffffffffffffffffffffff168473ffffffffffffffffffffffffffffffffffffffff167f17307eab39ab6107e8899845ad3d59bd9653f200f220920489ca2b5937696c31846040516133769190614480565b60405180910390a350505050565b5f8373ffffffffffffffffffffffffffffffffffffffff163b1115613529578273ffffffffffffffffffffffffffffffffffffffff1663150b7a02868685856040518563ffffffff1660e01b81526004016133e29493929190615a1a565b6020604051808303815f875af192505050801561341d57506040513d601f19601f8201168201806040525081019061341a9190615a78565b60015b61349e573d805f811461344b576040519150601f19603f3d011682016040523d82523d5f602084013e613450565b606091505b505f81510361349657836040517f64a0ae9200000000000000000000000000000000000000000000000000000000815260040161348d919061477a565b60405180910390fd5b805160208201fd5b63150b7a0260e01b7bffffffffffffffffffffffffffffffffffffffffffffffffffffffff1916817bffffffffffffffffffffffffffffffffffffffffffffffffffffffff19161461352757836040517f64a0ae9200000000000000000000000000000000000000000000000000000000815260040161351e919061477a565b60405180910390fd5b505b5050505050565b5f5f61353a613afe565b90508091505090565b61354b613b27565b6135558282613b67565b5050565b613561613b27565b565b61356b613b27565b565b613575613b27565b61357e81613ba2565b50565b60605f600161358f84613c26565b0190505f8167ffffffffffffffff8111156135ad576135ac6144e4565b5b6040519080825280601f01601f1916602001820160405280156135df5781602001600182028036833780820191505090505b5090505f82602083010190505b600115613640578080600190039150507f3031323334353637383961626364656600000000000000000000000000000000600a86061a8153600a858161363557613634615aa3565b5b0494505f85036135ec575b819350505050919050565b6060613657825f613d77565b9050919050565b5f7f80ac58cd000000000000000000000000000000000000000000000000000000007bffffffffffffffffffffffffffffffffffffffffffffffffffffffff1916827bffffffffffffffffffffffffffffffffffffffffffffffffffffffff1916148061372857507f5b5e139f000000000000000000000000000000000000000000000000000000007bffffffffffffffffffffffffffffffffffffffffffffffffffffffff1916827bffffffffffffffffffffffffffffffffffffffffffffffffffffffff1916145b80613738575061373782613f01565b5b9050919050565b5f5f6137496129b1565b9050806002015f8481526020019081526020015f205f9054906101000a900473ffffffffffffffffffffffffffffffffffffffff16915050919050565b5f61378f6129b1565b905081806137c957505f73ffffffffffffffffffffffffffffffffffffffff168373ffffffffffffffffffffffffffffffffffffffff1614155b156138fb575f6137d8856129d8565b90505f73ffffffffffffffffffffffffffffffffffffffff168473ffffffffffffffffffffffffffffffffffffffff161415801561384257508373ffffffffffffffffffffffffffffffffffffffff168173ffffffffffffffffffffffffffffffffffffffff1614155b80156138555750613853818561274e565b155b1561389757836040517fa9fbf51f00000000000000000000000000000000000000000000000000000000815260040161388e919061477a565b60405180910390fd5b82156138f957848673ffffffffffffffffffffffffffffffffffffffff168273ffffffffffffffffffffffffffffffffffffffff167f8c5be1e5ebec7d5bd14f71427d1e84f3dd0314c0f7b2291e5b200ac8c7c3b92560405160405180910390a45b505b84816004015f8681526020019081526020015f205f6101000a81548173ffffffffffffffffffffffffffffffffffffffff021916908373ffffffffffffffffffffffffffffffffffffffff1602179055505050505050565b61395e838383613f6a565b613a11575f73ffffffffffffffffffffffffffffffffffffffff168373ffffffffffffffffffffffffffffffffffffffff16036139d257806040517f7e2732890000000000000000000000000000000000000000000000000000000081526004016139c99190614a4f565b60405180910390fd5b81816040517f177e802f000000000000000000000000000000000000000000000000000000008152600401613a0892919061594c565b60405180910390fd5b505050565b5f613a427f360894a13ba1a3210667c828492db98dca3e2076cc3735a920a3ca505d382bbc5f1b61402a565b5f015f9054906101000a900473ffffffffffffffffffffffffffffffffffffffff16905090565b613a7282614033565b8173ffffffffffffffffffffffffffffffffffffffff167fbc7cd75a20ee27fd9adebab32041f755214dbc6bffa90cc0225b39da2e5c2d3b60405160405180910390a25f81511115613ace57613ac882826140fc565b50613ad7565b613ad66141ed565b5b5050565b613ae58383614229565b613af9613af0612aa5565b5f858585613384565b505050565b5f7ff0c57e16840df040f15088dc2f81fe391c3923bec73e23a9662efc9c229c6a005f1b905090565b613b2f61431c565b613b65576040517fd7e6bcf800000000000000000000000000000000000000000000000000000000815260040160405180910390fd5b565b613b6f613b27565b5f613b786129b1565b905082815f019081613b8a9190615160565b5081816001019081613b9c9190615160565b50505050565b613baa613b27565b5f73ffffffffffffffffffffffffffffffffffffffff168173ffffffffffffffffffffffffffffffffffffffff1603613c1a575f6040517f1e4fbdf7000000000000000000000000000000000000000000000000000000008152600401613c11919061477a565b60405180910390fd5b613c2381612ff8565b50565b5f5f5f90507a184f03e93ff9f4daa797ed6e38ed64bf6a1f0100000000000000008310613c82577a184f03e93ff9f4daa797ed6e38ed64bf6a1f0100000000000000008381613c7857613c77615aa3565b5b0492506040810190505b6d04ee2d6d415b85acef81000000008310613cbf576d04ee2d6d415b85acef81000000008381613cb557613cb4615aa3565b5b0492506020810190505b662386f26fc100008310613cee57662386f26fc100008381613ce457613ce3615aa3565b5b0492506010810190505b6305f5e1008310613d17576305f5e1008381613d0d57613d0c615aa3565b5b0492506008810190505b6127108310613d3c576127108381613d3257613d31615aa3565b5b0492506004810190505b60648310613d5f5760648381613d5557613d54615aa3565b5b0492506002810190505b600a8310613d6e576001810190505b80915050919050565b60605f835103613d975760405180602001604052805f8152509050613efb565b5f82613dc857600360028551613dad9190615ad0565b613db79190615b03565b6004613dc39190615b33565b613def565b6003600285516004613dda9190615b33565b613de49190615ad0565b613dee9190615b03565b5b905060405191507f4142434445464748494a4b4c4d4e4f505152535455565758595a616263646566601f5261067083027f6768696a6b6c6d6e6f707172737475767778797a303132333435363738392b2f18603f526020820181810185865187016020810180515f82525b82841015613ead576003840193508351603f8160121c16518753600187019650603f81600c1c16518753600187019650603f8160061c16518753600187019650603f811651875360018701965050613e5a565b80825288613eec5760038a510660018114613ecf5760028114613ee257613eea565b603d6001880353603d6002880353613eea565b603d60018803535b505b86885284604052505050505050505b92915050565b5f7f01ffc9a7000000000000000000000000000000000000000000000000000000007bffffffffffffffffffffffffffffffffffffffffffffffffffffffff1916827bffffffffffffffffffffffffffffffffffffffffffffffffffffffff1916149050919050565b5f5f73ffffffffffffffffffffffffffffffffffffffff168373ffffffffffffffffffffffffffffffffffffffff161415801561402157508273ffffffffffffffffffffffffffffffffffffffff168473ffffffffffffffffffffffffffffffffffffffff161480613fe25750613fe1848461274e565b5b8061402057508273ffffffffffffffffffffffffffffffffffffffff1661400883612a5e565b73ffffffffffffffffffffffffffffffffffffffff16145b5b90509392505050565b5f819050919050565b5f8173ffffffffffffffffffffffffffffffffffffffff163b0361408e57806040517f4c9c8ce3000000000000000000000000000000000000000000000000000000008152600401614085919061477a565b60405180910390fd5b806140ba7f360894a13ba1a3210667c828492db98dca3e2076cc3735a920a3ca505d382bbc5f1b61402a565b5f015f6101000a81548173ffffffffffffffffffffffffffffffffffffffff021916908373ffffffffffffffffffffffffffffffffffffffff16021790555050565b60605f614109848461433a565b905080801561413f57505f61411c61434e565b118061413e57505f8473ffffffffffffffffffffffffffffffffffffffff163b115b5b156141545761414c614355565b9150506141e7565b801561419757836040517f9996b31500000000000000000000000000000000000000000000000000000000815260040161418e919061477a565b60405180910390fd5b5f6141a061434e565b11156141b3576141ae614372565b6141e5565b6040517fd6bda27500000000000000000000000000000000000000000000000000000000815260040160405180910390fd5b505b92915050565b5f341115614227576040517fb398979f00000000000000000000000000000000000000000000000000000000815260040160405180910390fd5b565b5f73ffffffffffffffffffffffffffffffffffffffff168273ffffffffffffffffffffffffffffffffffffffff1603614299575f6040517f64a0ae92000000000000000000000000000000000000000000000000000000008152600401614290919061477a565b60405180910390fd5b5f6142a583835f612abe565b90505f73ffffffffffffffffffffffffffffffffffffffff168173ffffffffffffffffffffffffffffffffffffffff1614614317575f6040517f73c6ac6e00000000000000000000000000000000000000000000000000000000815260040161430e919061477a565b60405180910390fd5b505050565b5f614325613530565b5f0160089054906101000a900460ff16905090565b5f5f5f835160208501865af4905092915050565b5f3d905090565b606060405190503d81523d5f602083013e3d602001810160405290565b6040513d5f823e3d81fd5b50805461438990614f90565b5f825580601f1061439a57506143b7565b601f0160209004905f5260205f20908101906143b691906143ba565b5b50565b5b808211156143d1575f815f9055506001016143bb565b5090565b5f604051905090565b5f5ffd5b5f5ffd5b5f7fffffffff0000000000000000000000000000000000000000000000000000000082169050919050565b61441a816143e6565b8114614424575f5ffd5b50565b5f8135905061443581614411565b92915050565b5f602082840312156144505761444f6143de565b5b5f61445d84828501614427565b91505092915050565b5f8115159050919050565b61447a81614466565b82525050565b5f6020820190506144935f830184614471565b92915050565b5f819050919050565b6144ab81614499565b81146144b5575f5ffd5b50565b5f813590506144c6816144a2565b92915050565b5f5ffd5b5f5ffd5b5f601f19601f8301169050919050565b7f4e487b71000000000000000000000000000000000000000000000000000000005f52604160045260245ffd5b61451a826144d4565b810181811067ffffffffffffffff82111715614539576145386144e4565b5b80604052505050565b5f61454b6143d5565b90506145578282614511565b919050565b5f67ffffffffffffffff821115614576576145756144e4565b5b61457f826144d4565b9050602081019050919050565b828183375f83830152505050565b5f6145ac6145a78461455c565b614542565b9050828152602081018484840111156145c8576145c76144d0565b5b6145d384828561458c565b509392505050565b5f82601f8301126145ef576145ee6144cc565b5b81356145ff84826020860161459a565b91505092915050565b5f5f5f6060848603121561461f5761461e6143de565b5b5f61462c868287016144b8565b935050602084013567ffffffffffffffff81111561464d5761464c6143e2565b5b614659868287016145db565b925050604084013567ffffffffffffffff81111561467a576146796143e2565b5b614686868287016145db565b9150509250925092565b5f81519050919050565b5f82825260208201905092915050565b8281835e5f83830152505050565b5f6146c282614690565b6146cc818561469a565b93506146dc8185602086016146aa565b6146e5816144d4565b840191505092915050565b5f6020820190508181035f83015261470881846146b8565b905092915050565b5f60208284031215614725576147246143de565b5b5f614732848285016144b8565b91505092915050565b5f73ffffffffffffffffffffffffffffffffffffffff82169050919050565b5f6147648261473b565b9050919050565b6147748161475a565b82525050565b5f60208201905061478d5f83018461476b565b92915050565b61479c8161475a565b81146147a6575f5ffd5b50565b5f813590506147b781614793565b92915050565b5f5f604083850312156147d3576147d26143de565b5b5f6147e0858286016147a9565b92505060206147f1858286016144b8565b9150509250929050565b5f602082840312156148105761480f6143de565b5b5f82013567ffffffffffffffff81111561482d5761482c6143e2565b5b614839848285016145db565b91505092915050565b5f5f60408385031215614858576148576143de565b5b5f614865858286016144b8565b925050602083013567ffffffffffffffff811115614886576148856143e2565b5b614892858286016145db565b9150509250929050565b5f5f5f606084860312156148b3576148b26143de565b5b5f6148c0868287016147a9565b93505060206148d1868287016147a9565b92505060406148e2868287016144b8565b9150509250925092565b5f60208284031215614901576149006143de565b5b5f61490e848285016147a9565b91505092915050565b5f67ffffffffffffffff821115614931576149306144e4565b5b61493a826144d4565b9050602081019050919050565b5f61495961495484614917565b614542565b905082815260208101848484011115614975576149746144d0565b5b61498084828561458c565b509392505050565b5f82601f83011261499c5761499b6144cc565b5b81356149ac848260208601614947565b91505092915050565b5f5f604083850312156149cb576149ca6143de565b5b5f6149d8858286016147a9565b925050602083013567ffffffffffffffff8111156149f9576149f86143e2565b5b614a0585828601614988565b9150509250929050565b5f819050919050565b614a2181614a0f565b82525050565b5f602082019050614a3a5f830184614a18565b92915050565b614a4981614499565b82525050565b5f602082019050614a625f830184614a40565b92915050565b614a7181614466565b8114614a7b575f5ffd5b50565b5f81359050614a8c81614a68565b92915050565b5f5f60408385031215614aa857614aa76143de565b5b5f83013567ffffffffffffffff811115614ac557614ac46143e2565b5b614ad1858286016145db565b9250506020614ae285828601614a7e565b9150509250929050565b5f5ffd5b5f5ffd5b5f60808284031215614b0957614b08614aec565b5b614b136080614542565b90505f82013567ffffffffffffffff811115614b3257614b31614af0565b5b614b3e848285016145db565b5f83015250602082013567ffffffffffffffff811115614b6157614b60614af0565b5b614b6d848285016145db565b602083015250604082013567ffffffffffffffff811115614b9157614b90614af0565b5b614b9d848285016145db565b604083015250606082013567ffffffffffffffff811115614bc157614bc0614af0565b5b614bcd848285016145db565b60608301525092915050565b5f67ffffffffffffffff821115614bf357614bf26144e4565b5b602082029050602081019050919050565b5f5ffd5b5f614c1a614c1584614bd9565b614542565b90508083825260208201905060208402830185811115614c3d57614c3c614c04565b5b835b81811015614c8457803567ffffffffffffffff811115614c6257614c616144cc565b5b808601614c6f89826145db565b85526020850194505050602081019050614c3f565b5050509392505050565b5f82601f830112614ca257614ca16144cc565b5b8135614cb2848260208601614c08565b91505092915050565b5f5f5f60608486031215614cd257614cd16143de565b5b5f84013567ffffffffffffffff811115614cef57614cee6143e2565b5b614cfb86828701614af4565b935050602084013567ffffffffffffffff811115614d1c57614d1b6143e2565b5b614d2886828701614c8e565b925050604084013567ffffffffffffffff811115614d4957614d486143e2565b5b614d5586828701614c8e565b9150509250925092565b5f5f60408385031215614d7557614d746143de565b5b5f614d82858286016147a9565b9250506020614d9385828601614a7e565b9150509250929050565b5f5f5f5f60808587031215614db557614db46143de565b5b5f614dc2878288016147a9565b9450506020614dd3878288016147a9565b9350506040614de4878288016144b8565b925050606085013567ffffffffffffffff811115614e0557614e046143e2565b5b614e1187828801614988565b91505092959194509250565b5f5f5f5f60808587031215614e3557614e346143de565b5b5f614e42878288016144b8565b945050602085013567ffffffffffffffff811115614e6357614e626143e2565b5b614e6f87828801614af4565b935050604085013567ffffffffffffffff811115614e9057614e8f6143e2565b5b614e9c87828801614c8e565b925050606085013567ffffffffffffffff811115614ebd57614ebc6143e2565b5b614ec987828801614c8e565b91505092959194509250565b5f5f60408385031215614eeb57614eea6143de565b5b5f614ef8858286016147a9565b9250506020614f09858286016147a9565b9150509250929050565b5f81905092915050565b5f614f2782614690565b614f318185614f13565b9350614f418185602086016146aa565b80840191505092915050565b5f614f588284614f1d565b915081905092915050565b7f4e487b71000000000000000000000000000000000000000000000000000000005f52602260045260245ffd5b5f6002820490506001821680614fa757607f821691505b602082108103614fba57614fb9614f63565b5b50919050565b5f819050815f5260205f209050919050565b5f6020601f8301049050919050565b5f82821b905092915050565b5f6008830261501c7fffffffffffffffffffffffffffffffffffffffffffffffffffffffffffffffff82614fe1565b6150268683614fe1565b95508019841693508086168417925050509392505050565b5f819050919050565b5f61506161505c61505784614499565b61503e565b614499565b9050919050565b5f819050919050565b61507a83615047565b61508e61508682615068565b848454614fed565b825550505050565b5f5f905090565b6150a5615096565b6150b0818484615071565b505050565b5b818110156150d3576150c85f8261509d565b6001810190506150b6565b5050565b601f821115615118576150e981614fc0565b6150f284614fd2565b81016020851015615101578190505b61511561510d85614fd2565b8301826150b5565b50505b505050565b5f82821c905092915050565b5f6151385f198460080261511d565b1980831691505092915050565b5f6151508383615129565b9150826002028217905092915050565b61516982614690565b67ffffffffffffffff811115615182576151816144e4565b5b61518c8254614f90565b6151978282856150d7565b5f60209050601f8311600181146151c8575f84156151b6578287015190505b6151c08582615145565b865550615227565b601f1984166151d686614fc0565b5f5b828110156151fd578489015182556001820191506020850194506020810190506151d8565b8683101561521a5784890151615216601f891682615129565b8355505b6001600288020188555050505b505050505050565b5f6040820190508181035f83015261524781856146b8565b9050818103602083015261525b81846146b8565b90509392505050565b5f6060820190506152775f83018661476b565b6152846020830185614a40565b615291604083018461476b565b949350505050565b7f4e487b71000000000000000000000000000000000000000000000000000000005f52603260045260245ffd5b5f81905092915050565b5f819050815f5260205f209050919050565b5f81546152ee81614f90565b6152f881866152c6565b9450600182165f8114615312576001811461532757615359565b60ff1983168652811515820286019350615359565b615330856152d0565b5f5b8381101561535157815481890152600182019150602081019050615332565b838801955050505b50505092915050565b5f61536d82846152e2565b915081905092915050565b7f4e487b71000000000000000000000000000000000000000000000000000000005f52601160045260245ffd5b5f6153af82614499565b91507fffffffffffffffffffffffffffffffffffffffffffffffffffffffffffffffff82036153e1576153e0615378565b5b600182019050919050565b5f819050919050565b5f67ffffffffffffffff82169050919050565b5f61542261541d615418846153ec565b61503e565b6153f5565b9050919050565b61543281615408565b82525050565b5f60208201905061544b5f830184615429565b92915050565b7f2c00000000000000000000000000000000000000000000000000000000000000815250565b5f6154828284614f1d565b915061548d82615451565b60018201915081905092915050565b7f7b226b6579223a22000000000000000000000000000000000000000000000000815250565b7f222c2276616c7565223a22000000000000000000000000000000000000000000815250565b7f227d000000000000000000000000000000000000000000000000000000000000815250565b5f6155198286614f1d565b91506155248261549c565b6008820191506155348285614f1d565b915061553f826154c2565b600b8201915061554f8284614f1d565b915061555a826154e8565b600282019150819050949350505050565b7f5d00000000000000000000000000000000000000000000000000000000000000815250565b5f61559c8284614f1d565b91506155a78261556b565b60018201915081905092915050565b7f7b226e616d65223a202242617365436172643a202300000000000000000000005f82015250565b5f6155ea601583614f13565b91506155f5826155b6565b601582019050919050565b7f222c0000000000000000000000000000000000000000000000000000000000005f82015250565b5f615634600283614f13565b915061563f82615600565b600282019050919050565b7f22696d616765223a2022000000000000000000000000000000000000000000005f82015250565b5f61567e600a83614f13565b91506156898261564a565b600a82019050919050565b7f226e69636b6e616d65223a2022000000000000000000000000000000000000005f82015250565b5f6156c8600d83614f13565b91506156d382615694565b600d82019050919050565b7f22726f6c65223a202200000000000000000000000000000000000000000000005f82015250565b5f615712600983614f13565b915061571d826156de565b600982019050919050565b7f2262696f223a20220000000000000000000000000000000000000000000000005f82015250565b5f61575c600883614f13565b915061576782615728565b600882019050919050565b7f22736f6369616c73223a200000000000000000000000000000000000000000005f82015250565b5f6157a6600b83614f13565b91506157b182615772565b600b82019050919050565b7f7d000000000000000000000000000000000000000000000000000000000000005f82015250565b5f6157f0600183614f13565b91506157fb826157bc565b600182019050919050565b5f615810826155de565b915061581c8289614f1d565b915061582782615628565b915061583282615672565b915061583e8288614f1d565b915061584982615628565b9150615854826156bc565b91506158608287614f1d565b915061586b82615628565b915061587682615706565b91506158828286614f1d565b915061588d82615628565b915061589882615750565b91506158a48285614f1d565b91506158af82615628565b91506158ba8261579a565b91506158c68284614f1d565b91506158d1826157e4565b9150819050979650505050505050565b7f646174613a6170706c69636174696f6e2f6a736f6e3b6261736536342c0000005f82015250565b5f615915601d83614f13565b9150615920826158e1565b601d82019050919050565b5f61593582615909565b91506159418284614f1d565b915081905092915050565b5f60408201905061595f5f83018561476b565b61596c6020830184614a40565b9392505050565b61597c81614a0f565b8114615986575f5ffd5b50565b5f8151905061599781615973565b92915050565b5f602082840312156159b2576159b16143de565b5b5f6159bf84828501615989565b91505092915050565b5f81519050919050565b5f82825260208201905092915050565b5f6159ec826159c8565b6159f681856159d2565b9350615a068185602086016146aa565b615a0f816144d4565b840191505092915050565b5f608082019050615a2d5f83018761476b565b615a3a602083018661476b565b615a476040830185614a40565b8181036060830152615a5981846159e2565b905095945050505050565b5f81519050615a7281614411565b92915050565b5f60208284031215615a8d57615a8c6143de565b5b5f615a9a84828501615a64565b91505092915050565b7f4e487b71000000000000000000000000000000000000000000000000000000005f52601260045260245ffd5b5f615ada82614499565b9150615ae583614499565b9250828201905080821115615afd57615afc615378565b5b92915050565b5f615b0d82614499565b9150615b1883614499565b925082615b2857615b27615aa3565b5b828204905092915050565b5f615b3d82614499565b9150615b4883614499565b9250828202615b5681614499565b91508282048414831517615b6d57615b6c615378565b5b509291505056fea2646970667358221220470b05421f47a2c9197ce703e3f081e259ebb5b31963efc32282c6d66a0f4c6064736f6c634300081e0033","linkReferences":{}},"methodIdentifiers":{"UPGRADE_INTERFACE_VERSION()":"ad3cb1cc","approve(address,uint256)":"095ea7b3","balanceOf(address)":"70a08231","burn(uint256)":"42966c68","editBaseCard(uint256,(string,string,string,string),string[],string[])":"c13d8158","getApproved(uint256)":"081812fc","getSocial(uint256,string)":"171b9219","hasMinted(address)":"38e21cce","initialize(address)":"c4d66de8","isAllowedRole(string)":"0c5aa807","isAllowedSocialKey(string)":"97ac747a","isApprovedForAll(address,address)":"e985e9c5","linkSocial(uint256,string,string)":"0327fff6","migrationAdmin()":"74df2558","mintBaseCard((string,string,string,string),string[],string[])":"876e1bc6","name()":"06fdde03","owner()":"8da5cb5b","ownerOf(uint256)":"6352211e","proxiableUUID()":"52d1902d","renounceOwnership()":"715018a6","safeTransferFrom(address,address,uint256)":"42842e0e","safeTransferFrom(address,address,uint256,bytes)":"b88d4fde","setAllowedRole(string,bool)":"8c37dda5","setAllowedSocialKey(string,bool)":"83fda672","setApprovalForAll(address,bool)":"a22cb465","setMigrationAdmin(address)":"70ae07a1","supportsInterface(bytes4)":"01ffc9a7","symbol()":"95d89b41","tokenIdOf(address)":"773c02d4","tokenURI(uint256)":"c87b56dd","transferFrom(address,address,uint256)":"23b872dd","transferOwnership(address)":"f2fde38b","updateBio(uint256,string)":"f99c27c9","updateImageURI(uint256,string)":"8e5e6a28","updateNickname(uint256,string)":"c68905b9","upgradeToAndCall(address,bytes)":"4f1ef286"},"storageLayout":{"storage":[],"types":{}},"id":75}