{
    "abi": [
        {
            "type": "constructor",
            "inputs": [],
            "stateMutability": "nonpayable"
        },
        {
            "type": "function",
            "name": "UPGRADE_INTERFACE_VERSION",
            "inputs": [],
            "outputs": [
                {
                    "name": "",
                    "type": "string",
                    "internalType": "string"
                }
            ],
            "stateMutability": "view"
        },
        {
            "type": "function",
            "name": "approve",
            "inputs": [
                {
                    "name": "to",
                    "type": "address",
                    "internalType": "address"
                },
                {
                    "name": "tokenId",
                    "type": "uint256",
                    "internalType": "uint256"
                }
            ],
            "outputs": [],
            "stateMutability": "nonpayable"
        },
        {
            "type": "function",
            "name": "balanceOf",
            "inputs": [
                {
                    "name": "owner",
                    "type": "address",
                    "internalType": "address"
                }
            ],
            "outputs": [
                {
                    "name": "",
                    "type": "uint256",
                    "internalType": "uint256"
                }
            ],
            "stateMutability": "view"
        },
        {
            "type": "function",
            "name": "burn",
            "inputs": [
                {
                    "name": "tokenId",
                    "type": "uint256",
                    "internalType": "uint256"
                }
            ],
            "outputs": [],
            "stateMutability": "nonpayable"
        },
        {
            "type": "function",
            "name": "getApproved",
            "inputs": [
                {
                    "name": "tokenId",
                    "type": "uint256",
                    "internalType": "uint256"
                }
            ],
            "outputs": [
                {
                    "name": "",
                    "type": "address",
                    "internalType": "address"
                }
            ],
            "stateMutability": "view"
        },
        {
            "type": "function",
            "name": "getSocial",
            "inputs": [
                {
                    "name": "_tokenId",
                    "type": "uint256",
                    "internalType": "uint256"
                },
                {
                    "name": "_key",
                    "type": "string",
                    "internalType": "string"
                }
            ],
            "outputs": [
                {
                    "name": "",
                    "type": "string",
                    "internalType": "string"
                }
            ],
            "stateMutability": "view"
        },
        {
            "type": "function",
            "name": "hasMinted",
            "inputs": [
                {
                    "name": "_address",
                    "type": "address",
                    "internalType": "address"
                }
            ],
            "outputs": [
                {
                    "name": "",
                    "type": "bool",
                    "internalType": "bool"
                }
            ],
            "stateMutability": "view"
        },
        {
            "type": "function",
            "name": "initialize",
            "inputs": [
                {
                    "name": "initialOwner",
                    "type": "address",
                    "internalType": "address"
                }
            ],
            "outputs": [],
            "stateMutability": "nonpayable"
        },
        {
            "type": "function",
            "name": "isAllowedSocialKey",
            "inputs": [
                {
                    "name": "_key",
                    "type": "string",
                    "internalType": "string"
                }
            ],
            "outputs": [
                {
                    "name": "",
                    "type": "bool",
                    "internalType": "bool"
                }
            ],
            "stateMutability": "view"
        },
        {
            "type": "function",
            "name": "isApprovedForAll",
            "inputs": [
                {
                    "name": "owner",
                    "type": "address",
                    "internalType": "address"
                },
                {
                    "name": "operator",
                    "type": "address",
                    "internalType": "address"
                }
            ],
            "outputs": [
                {
                    "name": "",
                    "type": "bool",
                    "internalType": "bool"
                }
            ],
            "stateMutability": "view"
        },
        {
            "type": "function",
            "name": "linkSocial",
            "inputs": [
                {
                    "name": "_tokenId",
                    "type": "uint256",
                    "internalType": "uint256"
                },
                {
                    "name": "_key",
                    "type": "string",
                    "internalType": "string"
                },
                {
                    "name": "_value",
                    "type": "string",
                    "internalType": "string"
                }
            ],
            "outputs": [],
            "stateMutability": "nonpayable"
        },
        {
            "type": "function",
            "name": "migrateBaseCardFromTestnet",
            "inputs": [
                {
                    "name": "_recipient",
                    "type": "address",
                    "internalType": "address"
                },
                {
                    "name": "_initialCardData",
                    "type": "tuple",
                    "internalType": "struct IBaseCard.CardData",
                    "components": [
                        {
                            "name": "imageURI",
                            "type": "string",
                            "internalType": "string"
                        },
                        {
                            "name": "nickname",
                            "type": "string",
                            "internalType": "string"
                        },
                        {
                            "name": "role",
                            "type": "string",
                            "internalType": "string"
                        },
                        {
                            "name": "bio",
                            "type": "string",
                            "internalType": "string"
                        }
                    ]
                },
                {
                    "name": "_socialKeys",
                    "type": "string[]",
                    "internalType": "string[]"
                },
                {
                    "name": "_socialValues",
                    "type": "string[]",
                    "internalType": "string[]"
                }
            ],
            "outputs": [],
            "stateMutability": "nonpayable"
        },
        {
            "type": "function",
            "name": "migrationAdmin",
            "inputs": [],
            "outputs": [
                {
                    "name": "",
                    "type": "address",
                    "internalType": "address"
                }
            ],
            "stateMutability": "view"
        },
        {
            "type": "function",
            "name": "mintBaseCard",
            "inputs": [
                {
                    "name": "_initialCardData",
                    "type": "tuple",
                    "internalType": "struct IBaseCard.CardData",
                    "components": [
                        {
                            "name": "imageURI",
                            "type": "string",
                            "internalType": "string"
                        },
                        {
                            "name": "nickname",
                            "type": "string",
                            "internalType": "string"
                        },
                        {
                            "name": "role",
                            "type": "string",
                            "internalType": "string"
                        },
                        {
                            "name": "bio",
                            "type": "string",
                            "internalType": "string"
                        }
                    ]
                },
                {
                    "name": "_socialKeys",
                    "type": "string[]",
                    "internalType": "string[]"
                },
                {
                    "name": "_socialValues",
                    "type": "string[]",
                    "internalType": "string[]"
                }
            ],
            "outputs": [],
            "stateMutability": "nonpayable"
        },
        {
            "type": "function",
            "name": "name",
            "inputs": [],
            "outputs": [
                {
                    "name": "",
                    "type": "string",
                    "internalType": "string"
                }
            ],
            "stateMutability": "view"
        },
        {
            "type": "function",
            "name": "owner",
            "inputs": [],
            "outputs": [
                {
                    "name": "",
                    "type": "address",
                    "internalType": "address"
                }
            ],
            "stateMutability": "view"
        },
        {
            "type": "function",
            "name": "ownerOf",
            "inputs": [
                {
                    "name": "tokenId",
                    "type": "uint256",
                    "internalType": "uint256"
                }
            ],
            "outputs": [
                {
                    "name": "",
                    "type": "address",
                    "internalType": "address"
                }
            ],
            "stateMutability": "view"
        },
        {
            "type": "function",
            "name": "proxiableUUID",
            "inputs": [],
            "outputs": [
                {
                    "name": "",
                    "type": "bytes32",
                    "internalType": "bytes32"
                }
            ],
            "stateMutability": "view"
        },
        {
            "type": "function",
            "name": "renounceOwnership",
            "inputs": [],
            "outputs": [],
            "stateMutability": "nonpayable"
        },
        {
            "type": "function",
            "name": "safeTransferFrom",
            "inputs": [
                {
                    "name": "from",
                    "type": "address",
                    "internalType": "address"
                },
                {
                    "name": "to",
                    "type": "address",
                    "internalType": "address"
                },
                {
                    "name": "tokenId",
                    "type": "uint256",
                    "internalType": "uint256"
                }
            ],
            "outputs": [],
            "stateMutability": "nonpayable"
        },
        {
            "type": "function",
            "name": "safeTransferFrom",
            "inputs": [
                {
                    "name": "from",
                    "type": "address",
                    "internalType": "address"
                },
                {
                    "name": "to",
                    "type": "address",
                    "internalType": "address"
                },
                {
                    "name": "tokenId",
                    "type": "uint256",
                    "internalType": "uint256"
                },
                {
                    "name": "data",
                    "type": "bytes",
                    "internalType": "bytes"
                }
            ],
            "outputs": [],
            "stateMutability": "nonpayable"
        },
        {
            "type": "function",
            "name": "setAllowedSocialKey",
            "inputs": [
                {
                    "name": "_key",
                    "type": "string",
                    "internalType": "string"
                },
                {
                    "name": "_isAllowed",
                    "type": "bool",
                    "internalType": "bool"
                }
            ],
            "outputs": [],
            "stateMutability": "nonpayable"
        },
        {
            "type": "function",
            "name": "setApprovalForAll",
            "inputs": [
                {
                    "name": "operator",
                    "type": "address",
                    "internalType": "address"
                },
                {
                    "name": "approved",
                    "type": "bool",
                    "internalType": "bool"
                }
            ],
            "outputs": [],
            "stateMutability": "nonpayable"
        },
        {
            "type": "function",
            "name": "setMigrationAdmin",
            "inputs": [
                {
                    "name": "_migrationAdmin",
                    "type": "address",
                    "internalType": "address"
                }
            ],
            "outputs": [],
            "stateMutability": "nonpayable"
        },
        {
            "type": "function",
            "name": "supportsInterface",
            "inputs": [
                {
                    "name": "interfaceId",
                    "type": "bytes4",
                    "internalType": "bytes4"
                }
            ],
            "outputs": [
                {
                    "name": "",
                    "type": "bool",
                    "internalType": "bool"
                }
            ],
            "stateMutability": "view"
        },
        {
            "type": "function",
            "name": "symbol",
            "inputs": [],
            "outputs": [
                {
                    "name": "",
                    "type": "string",
                    "internalType": "string"
                }
            ],
            "stateMutability": "view"
        },
        {
            "type": "function",
            "name": "tokenURI",
            "inputs": [
                {
                    "name": "_tokenId",
                    "type": "uint256",
                    "internalType": "uint256"
                }
            ],
            "outputs": [
                {
                    "name": "",
                    "type": "string",
                    "internalType": "string"
                }
            ],
            "stateMutability": "view"
        },
        {
            "type": "function",
            "name": "transferFrom",
            "inputs": [
                {
                    "name": "from",
                    "type": "address",
                    "internalType": "address"
                },
                {
                    "name": "to",
                    "type": "address",
                    "internalType": "address"
                },
                {
                    "name": "tokenId",
                    "type": "uint256",
                    "internalType": "uint256"
                }
            ],
            "outputs": [],
            "stateMutability": "nonpayable"
        },
        {
            "type": "function",
            "name": "transferOwnership",
            "inputs": [
                {
                    "name": "newOwner",
                    "type": "address",
                    "internalType": "address"
                }
            ],
            "outputs": [],
            "stateMutability": "nonpayable"
        },
        {
            "type": "function",
            "name": "updateBio",
            "inputs": [
                {
                    "name": "_tokenId",
                    "type": "uint256",
                    "internalType": "uint256"
                },
                {
                    "name": "_newBio",
                    "type": "string",
                    "internalType": "string"
                }
            ],
            "outputs": [],
            "stateMutability": "nonpayable"
        },
        {
            "type": "function",
            "name": "updateImageURI",
            "inputs": [
                {
                    "name": "_tokenId",
                    "type": "uint256",
                    "internalType": "uint256"
                },
                {
                    "name": "_newImageUri",
                    "type": "string",
                    "internalType": "string"
                }
            ],
            "outputs": [],
            "stateMutability": "nonpayable"
        },
        {
            "type": "function",
            "name": "updateNickname",
            "inputs": [
                {
                    "name": "_tokenId",
                    "type": "uint256",
                    "internalType": "uint256"
                },
                {
                    "name": "_newNickname",
                    "type": "string",
                    "internalType": "string"
                }
            ],
            "outputs": [],
            "stateMutability": "nonpayable"
        },
        {
            "type": "function",
            "name": "upgradeToAndCall",
            "inputs": [
                {
                    "name": "newImplementation",
                    "type": "address",
                    "internalType": "address"
                },
                {
                    "name": "data",
                    "type": "bytes",
                    "internalType": "bytes"
                }
            ],
            "outputs": [],
            "stateMutability": "payable"
        },
        {
            "type": "event",
            "name": "Approval",
            "inputs": [
                {
                    "name": "owner",
                    "type": "address",
                    "indexed": true,
                    "internalType": "address"
                },
                {
                    "name": "approved",
                    "type": "address",
                    "indexed": true,
                    "internalType": "address"
                },
                {
                    "name": "tokenId",
                    "type": "uint256",
                    "indexed": true,
                    "internalType": "uint256"
                }
            ],
            "anonymous": false
        },
        {
            "type": "event",
            "name": "ApprovalForAll",
            "inputs": [
                {
                    "name": "owner",
                    "type": "address",
                    "indexed": true,
                    "internalType": "address"
                },
                {
                    "name": "operator",
                    "type": "address",
                    "indexed": true,
                    "internalType": "address"
                },
                {
                    "name": "approved",
                    "type": "bool",
                    "indexed": false,
                    "internalType": "bool"
                }
            ],
            "anonymous": false
        },
        {
            "type": "event",
            "name": "BatchMetadataUpdate",
            "inputs": [
                {
                    "name": "_fromTokenId",
                    "type": "uint256",
                    "indexed": false,
                    "internalType": "uint256"
                },
                {
                    "name": "_toTokenId",
                    "type": "uint256",
                    "indexed": false,
                    "internalType": "uint256"
                }
            ],
            "anonymous": false
        },
        {
            "type": "event",
            "name": "Initialized",
            "inputs": [
                {
                    "name": "version",
                    "type": "uint64",
                    "indexed": false,
                    "internalType": "uint64"
                }
            ],
            "anonymous": false
        },
        {
            "type": "event",
            "name": "MetadataUpdate",
            "inputs": [
                {
                    "name": "_tokenId",
                    "type": "uint256",
                    "indexed": false,
                    "internalType": "uint256"
                }
            ],
            "anonymous": false
        },
        {
            "type": "event",
            "name": "MintBaseCard",
            "inputs": [
                {
                    "name": "user",
                    "type": "address",
                    "indexed": true,
                    "internalType": "address"
                },
                {
                    "name": "tokenId",
                    "type": "uint256",
                    "indexed": true,
                    "internalType": "uint256"
                }
            ],
            "anonymous": false
        },
        {
            "type": "event",
            "name": "OwnershipTransferred",
            "inputs": [
                {
                    "name": "previousOwner",
                    "type": "address",
                    "indexed": true,
                    "internalType": "address"
                },
                {
                    "name": "newOwner",
                    "type": "address",
                    "indexed": true,
                    "internalType": "address"
                }
            ],
            "anonymous": false
        },
        {
            "type": "event",
            "name": "SocialLinked",
            "inputs": [
                {
                    "name": "tokenId",
                    "type": "uint256",
                    "indexed": true,
                    "internalType": "uint256"
                },
                {
                    "name": "key",
                    "type": "string",
                    "indexed": false,
                    "internalType": "string"
                },
                {
                    "name": "value",
                    "type": "string",
                    "indexed": false,
                    "internalType": "string"
                }
            ],
            "anonymous": false
        },
        {
            "type": "event",
            "name": "Transfer",
            "inputs": [
                {
                    "name": "from",
                    "type": "address",
                    "indexed": true,
                    "internalType": "address"
                },
                {
                    "name": "to",
                    "type": "address",
                    "indexed": true,
                    "internalType": "address"
                },
                {
                    "name": "tokenId",
                    "type": "uint256",
                    "indexed": true,
                    "internalType": "uint256"
                }
            ],
            "anonymous": false
        },
        {
            "type": "event",
            "name": "Upgraded",
            "inputs": [
                {
                    "name": "implementation",
                    "type": "address",
                    "indexed": true,
                    "internalType": "address"
                }
            ],
            "anonymous": false
        },
        {
            "type": "error",
            "name": "AddressEmptyCode",
            "inputs": [
                {
                    "name": "target",
                    "type": "address",
                    "internalType": "address"
                }
            ]
        },
        {
            "type": "error",
            "name": "AddressZero",
            "inputs": []
        },
        {
            "type": "error",
            "name": "AlreadyMinted",
            "inputs": [
                {
                    "name": "user",
                    "type": "address",
                    "internalType": "address"
                }
            ]
        },
        {
            "type": "error",
            "name": "ERC1967InvalidImplementation",
            "inputs": [
                {
                    "name": "implementation",
                    "type": "address",
                    "internalType": "address"
                }
            ]
        },
        {
            "type": "error",
            "name": "ERC1967NonPayable",
            "inputs": []
        },
        {
            "type": "error",
            "name": "ERC721IncorrectOwner",
            "inputs": [
                {
                    "name": "sender",
                    "type": "address",
                    "internalType": "address"
                },
                {
                    "name": "tokenId",
                    "type": "uint256",
                    "internalType": "uint256"
                },
                {
                    "name": "owner",
                    "type": "address",
                    "internalType": "address"
                }
            ]
        },
        {
            "type": "error",
            "name": "ERC721InsufficientApproval",
            "inputs": [
                {
                    "name": "operator",
                    "type": "address",
                    "internalType": "address"
                },
                {
                    "name": "tokenId",
                    "type": "uint256",
                    "internalType": "uint256"
                }
            ]
        },
        {
            "type": "error",
            "name": "ERC721InvalidApprover",
            "inputs": [
                {
                    "name": "approver",
                    "type": "address",
                    "internalType": "address"
                }
            ]
        },
        {
            "type": "error",
            "name": "ERC721InvalidOperator",
            "inputs": [
                {
                    "name": "operator",
                    "type": "address",
                    "internalType": "address"
                }
            ]
        },
        {
            "type": "error",
            "name": "ERC721InvalidOwner",
            "inputs": [
                {
                    "name": "owner",
                    "type": "address",
                    "internalType": "address"
                }
            ]
        },
        {
            "type": "error",
            "name": "ERC721InvalidReceiver",
            "inputs": [
                {
                    "name": "receiver",
                    "type": "address",
                    "internalType": "address"
                }
            ]
        },
        {
            "type": "error",
            "name": "ERC721InvalidSender",
            "inputs": [
                {
                    "name": "sender",
                    "type": "address",
                    "internalType": "address"
                }
            ]
        },
        {
            "type": "error",
            "name": "ERC721NonexistentToken",
            "inputs": [
                {
                    "name": "tokenId",
                    "type": "uint256",
                    "internalType": "uint256"
                }
            ]
        },
        {
            "type": "error",
            "name": "FailedCall",
            "inputs": []
        },
        {
            "type": "error",
            "name": "InvalidInitialization",
            "inputs": []
        },
        {
            "type": "error",
            "name": "InvalidTokenId",
            "inputs": [
                {
                    "name": "tokenId",
                    "type": "uint256",
                    "internalType": "uint256"
                }
            ]
        },
        {
            "type": "error",
            "name": "MismatchedSocialKeysAndValues",
            "inputs": []
        },
        {
            "type": "error",
            "name": "NotAllowedSocialKey",
            "inputs": [
                {
                    "name": "key",
                    "type": "string",
                    "internalType": "string"
                }
            ]
        },
        {
            "type": "error",
            "name": "NotInitializing",
            "inputs": []
        },
        {
            "type": "error",
            "name": "NotMigrationAdmin",
            "inputs": [
                {
                    "name": "caller",
                    "type": "address",
                    "internalType": "address"
                }
            ]
        },
        {
            "type": "error",
            "name": "NotTokenOwner",
            "inputs": [
                {
                    "name": "caller",
                    "type": "address",
                    "internalType": "address"
                },
                {
                    "name": "tokenId",
                    "type": "uint256",
                    "internalType": "uint256"
                }
            ]
        },
        {
            "type": "error",
            "name": "OwnableInvalidOwner",
            "inputs": [
                {
                    "name": "owner",
                    "type": "address",
                    "internalType": "address"
                }
            ]
        },
        {
            "type": "error",
            "name": "OwnableUnauthorizedAccount",
            "inputs": [
                {
                    "name": "account",
                    "type": "address",
                    "internalType": "address"
                }
            ]
        },
        {
            "type": "error",
            "name": "UUPSUnauthorizedCallContext",
            "inputs": []
        },
        {
            "type": "error",
            "name": "UUPSUnsupportedProxiableUUID",
            "inputs": [
                {
                    "name": "slot",
                    "type": "bytes32",
                    "internalType": "bytes32"
                }
            ]
        }
    ],
    "bytecode": {
        "object": "0x60a06040523073ffffffffffffffffffffffffffffffffffffffff1660809073ffffffffffffffffffffffffffffffffffffffff16815250348015610042575f5ffd5b5061005161005660201b60201c565b6101d1565b5f61006561015460201b60201c565b9050805f0160089054906101000a900460ff16156100af576040517ff92ee8a900000000000000000000000000000000000000000000000000000000815260040160405180910390fd5b67ffffffffffffffff8016815f015f9054906101000a900467ffffffffffffffff1667ffffffffffffffff16146101515767ffffffffffffffff815f015f6101000a81548167ffffffffffffffff021916908367ffffffffffffffff1602179055507fc7f505b2f371ae2175ee4913f4499e1f2633a7b5936321eed1cdaeb6115181d267ffffffffffffffff60405161014891906101b8565b60405180910390a15b50565b5f5f61016461016d60201b60201c565b90508091505090565b5f7ff0c57e16840df040f15088dc2f81fe391c3923bec73e23a9662efc9c229c6a005f1b905090565b5f67ffffffffffffffff82169050919050565b6101b281610196565b82525050565b5f6020820190506101cb5f8301846101a9565b92915050565b6080516155fb6101f75f395f81816128a3015281816128f80152612ab201526155fb5ff3fe6080604052600436106101ed575f3560e01c8063715018a61161010c578063a22cb4651161009f578063c68905b91161006e578063c68905b9146106cb578063c87b56dd146106f3578063e985e9c51461072f578063f2fde38b1461076b578063f99c27c914610793576101ed565b8063a22cb46514610629578063ad3cb1cc14610651578063b88d4fde1461067b578063c4d66de8146106a3576101ed565b80638da5cb5b116100db5780638da5cb5b146105715780638e5e6a281461059b57806395d89b41146105c357806397ac747a146105ed576101ed565b8063715018a6146104e157806374df2558146104f757806383fda67214610521578063876e1bc614610549576101ed565b806338e21cce1161018457806352d1902d1161015357806352d1902d146104175780636352211e1461044157806370a082311461047d57806370ae07a1146104b9576101ed565b806338e21cce1461036f57806342842e0e146103ab57806342966c68146103d35780634f1ef286146103fb576101ed565b8063081812fc116101c0578063081812fc146102a7578063095ea7b3146102e3578063171b92191461030b57806323b872dd14610347576101ed565b806301debcc7146101f157806301ffc9a7146102195780630327fff61461025557806306fdde031461027d575b5f5ffd5b3480156101fc575f5ffd5b506102176004803603810190610212919061419c565b6107bb565b005b348015610224575f5ffd5b5061023f600480360381019061023a91906142a9565b610b6f565b60405161024c91906142ee565b60405180910390f35b348015610260575f5ffd5b5061027b6004803603810190610276919061433a565b610b80565b005b348015610288575f5ffd5b50610291610c81565b60405161029e9190614422565b60405180910390f35b3480156102b2575f5ffd5b506102cd60048036038101906102c89190614442565b610d1e565b6040516102da919061447c565b60405180910390f35b3480156102ee575f5ffd5b5061030960048036038101906103049190614495565b610d39565b005b348015610316575f5ffd5b50610331600480360381019061032c91906144d3565b610d4f565b60405161033e9190614422565b60405180910390f35b348015610352575f5ffd5b5061036d6004803603810190610368919061452d565b610e1b565b005b34801561037a575f5ffd5b506103956004803603810190610390919061457d565b610f1a565b6040516103a291906142ee565b60405180910390f35b3480156103b6575f5ffd5b506103d160048036038101906103cc919061452d565b610f7a565b005b3480156103de575f5ffd5b506103f960048036038101906103f49190614442565b610f99565b005b61041560048036038101906104109190614646565b610faf565b005b348015610422575f5ffd5b5061042b610fce565b60405161043891906146b8565b60405180910390f35b34801561044c575f5ffd5b5061046760048036038101906104629190614442565b610fff565b604051610474919061447c565b60405180910390f35b348015610488575f5ffd5b506104a3600480360381019061049e919061457d565b611010565b6040516104b091906146e0565b60405180910390f35b3480156104c4575f5ffd5b506104df60048036038101906104da919061457d565b6110d4565b005b3480156104ec575f5ffd5b506104f5611192565b005b348015610502575f5ffd5b5061050b6111a5565b604051610518919061447c565b60405180910390f35b34801561052c575f5ffd5b5061054760048036038101906105429190614723565b6111db565b005b348015610554575f5ffd5b5061056f600480360381019061056a919061477d565b611311565b005b34801561057c575f5ffd5b50610585611657565b604051610592919061447c565b60405180910390f35b3480156105a6575f5ffd5b506105c160048036038101906105bc91906144d3565b61168c565b005b3480156105ce575f5ffd5b506105d76116ca565b6040516105e49190614422565b60405180910390f35b3480156105f8575f5ffd5b50610613600480360381019061060e9190614821565b611768565b60405161062091906142ee565b60405180910390f35b348015610634575f5ffd5b5061064f600480360381019061064a9190614868565b6117a9565b005b34801561065c575f5ffd5b506106656117bf565b6040516106729190614422565b60405180910390f35b348015610686575f5ffd5b506106a1600480360381019061069c91906148a6565b6117f8565b005b3480156106ae575f5ffd5b506106c960048036038101906106c4919061457d565b61181d565b005b3480156106d6575f5ffd5b506106f160048036038101906106ec91906144d3565b611c5c565b005b3480156106fe575f5ffd5b5061071960048036038101906107149190614442565b611c9b565b6040516107269190614422565b60405180910390f35b34801561073a575f5ffd5b5061075560048036038101906107509190614926565b612256565b60405161076291906142ee565b60405180910390f35b348015610776575f5ffd5b50610791600480360381019061078c919061457d565b6122f2565b005b34801561079e575f5ffd5b506107b960048036038101906107b491906144d3565b612376565b005b6107c36123b5565b5f6107cc612456565b90505f73ffffffffffffffffffffffffffffffffffffffff168573ffffffffffffffffffffffffffffffffffffffff1603610833576040517f9fabe1c100000000000000000000000000000000000000000000000000000000815260040160405180910390fd5b806002015f8673ffffffffffffffffffffffffffffffffffffffff1673ffffffffffffffffffffffffffffffffffffffff1681526020019081526020015f205f9054906101000a900460ff16156108c157846040517f893cc5760000000000000000000000000000000000000000000000000000000081526004016108b8919061447c565b60405180910390fd5b81518351146108fc576040517fb00e9b6200000000000000000000000000000000000000000000000000000000815260040160405180910390fd5b6001816002015f8773ffffffffffffffffffffffffffffffffffffffff1673ffffffffffffffffffffffffffffffffffffffff1681526020019081526020015f205f6101000a81548160ff0219169083151502179055505f815f015f81548092919061096790614991565b91905055905084826001015f8381526020019081526020015f205f820151815f0190816109949190614bd5565b5060208201518160010190816109aa9190614bd5565b5060408201518160020190816109c09190614bd5565b5060608201518160030190816109d69190614bd5565b509050506109e4868261247d565b5f5f90505b8451811015610b22575f858281518110610a0657610a05614ca4565b5b602002602001015190505f858381518110610a2457610a23614ca4565b5b602002602001015190508460040182604051610a409190614d0b565b90815260200160405180910390205f9054906101000a900460ff16610a9c57816040517f531101bf000000000000000000000000000000000000000000000000000000008152600401610a939190614422565b60405180910390fd5b80856003015f8681526020019081526020015f2083604051610abe9190614d0b565b90815260200160405180910390209081610ad89190614bd5565b50837f8b490e7b0a60733bb17982917e471c69228883c096a425f2dece0819ce92e7bb8383604051610b0b929190614d21565b60405180910390a2505080806001019150506109e9565b50808673ffffffffffffffffffffffffffffffffffffffff167f53f3e9a832a8c21b2c8955fbf6dc0bd4b59bb2c4306d5a81eaa517ccbf6d9f7360405160405180910390a3505050505050565b5f610b798261249a565b9050919050565b82610b8a816124fa565b5f610b93612456565b90508060040184604051610ba79190614d0b565b90815260200160405180910390205f9054906101000a900460ff16610c0357836040517f531101bf000000000000000000000000000000000000000000000000000000008152600401610bfa9190614422565b60405180910390fd5b82816003015f8781526020019081526020015f2085604051610c259190614d0b565b90815260200160405180910390209081610c3f9190614bd5565b50847f8b490e7b0a60733bb17982917e471c69228883c096a425f2dece0819ce92e7bb8585604051610c72929190614d21565b60405180910390a25050505050565b60605f610c8c612577565b9050805f018054610c9c90614a05565b80601f0160208091040260200160405190810160405280929190818152602001828054610cc890614a05565b8015610d135780601f10610cea57610100808354040283529160200191610d13565b820191905f5260205f20905b815481529060010190602001808311610cf657829003601f168201915b505050505091505090565b5f610d288261259e565b50610d3282612624565b9050919050565b610d4b8282610d4661266b565b612672565b5050565b60605f610d5a612456565b9050806003015f8581526020019081526020015f2083604051610d7d9190614d0b565b90815260200160405180910390208054610d9690614a05565b80601f0160208091040260200160405190810160405280929190818152602001828054610dc290614a05565b8015610e0d5780601f10610de457610100808354040283529160200191610e0d565b820191905f5260205f20905b815481529060010190602001808311610df057829003601f168201915b505050505091505092915050565b5f73ffffffffffffffffffffffffffffffffffffffff168273ffffffffffffffffffffffffffffffffffffffff1603610e8b575f6040517f64a0ae92000000000000000000000000000000000000000000000000000000008152600401610e82919061447c565b60405180910390fd5b5f610e9e8383610e9961266b565b612684565b90508373ffffffffffffffffffffffffffffffffffffffff168173ffffffffffffffffffffffffffffffffffffffff1614610f14578382826040517f64283d7b000000000000000000000000000000000000000000000000000000008152600401610f0b93929190614d56565b60405180910390fd5b50505050565b5f5f610f24612456565b9050806002015f8473ffffffffffffffffffffffffffffffffffffffff1673ffffffffffffffffffffffffffffffffffffffff1681526020019081526020015f205f9054906101000a900460ff16915050919050565b610f9483838360405180602001604052805f8152506117f8565b505050565b610fab5f82610fa661266b565b612684565b5050565b610fb76128a1565b610fc082612987565b610fca8282612992565b5050565b5f610fd7612ab0565b7f360894a13ba1a3210667c828492db98dca3e2076cc3735a920a3ca505d382bbc5f1b905090565b5f6110098261259e565b9050919050565b5f5f61101a612577565b90505f73ffffffffffffffffffffffffffffffffffffffff168373ffffffffffffffffffffffffffffffffffffffff160361108c575f6040517f89c62b64000000000000000000000000000000000000000000000000000000008152600401611083919061447c565b60405180910390fd5b806003015f8473ffffffffffffffffffffffffffffffffffffffff1673ffffffffffffffffffffffffffffffffffffffff1681526020019081526020015f2054915050919050565b6110dc612b37565b5f73ffffffffffffffffffffffffffffffffffffffff168173ffffffffffffffffffffffffffffffffffffffff1603611141576040517f9fabe1c100000000000000000000000000000000000000000000000000000000815260040160405180910390fd5b5f61114a612456565b905081816005015f6101000a81548173ffffffffffffffffffffffffffffffffffffffff021916908373ffffffffffffffffffffffffffffffffffffffff1602179055505050565b61119a612b37565b6111a35f612bbe565b565b5f5f6111af612456565b9050806005015f9054906101000a900473ffffffffffffffffffffffffffffffffffffffff1691505090565b6111e3612b37565b5f6111ec612456565b9050818015611225575080600401836040516112089190614d0b565b90815260200160405180910390205f9054906101000a900460ff16155b156112d5575f5f90505f5f90505b82600601805490508110156112985784805190602001208360060182815481106112605761125f614ca4565b5b905f5260205f20016040516112759190614e27565b60405180910390200361128b5760019150611298565b8080600101915050611233565b50806112d3578160060184908060018154018082558091505060019003905f5260205f20015f9091909190915090816112d19190614bd5565b505b505b8181600401846040516112e89190614d0b565b90815260200160405180910390205f6101000a81548160ff021916908315150217905550505050565b5f61131a612456565b9050806002015f3373ffffffffffffffffffffffffffffffffffffffff1673ffffffffffffffffffffffffffffffffffffffff1681526020019081526020015f205f9054906101000a900460ff16156113aa57336040517f893cc5760000000000000000000000000000000000000000000000000000000081526004016113a1919061447c565b60405180910390fd5b81518351146113e5576040517fb00e9b6200000000000000000000000000000000000000000000000000000000815260040160405180910390fd5b6001816002015f3373ffffffffffffffffffffffffffffffffffffffff1673ffffffffffffffffffffffffffffffffffffffff1681526020019081526020015f205f6101000a81548160ff0219169083151502179055505f815f015f81548092919061145090614991565b91905055905084826001015f8381526020019081526020015f205f820151815f01908161147d9190614bd5565b5060208201518160010190816114939190614bd5565b5060408201518160020190816114a99190614bd5565b5060608201518160030190816114bf9190614bd5565b509050506114cd338261247d565b5f5f90505b845181101561160b575f8582815181106114ef576114ee614ca4565b5b602002602001015190505f85838151811061150d5761150c614ca4565b5b6020026020010151905084600401826040516115299190614d0b565b90815260200160405180910390205f9054906101000a900460ff1661158557816040517f531101bf00000000000000000000000000000000000000000000000000000000815260040161157c9190614422565b60405180910390fd5b80856003015f8681526020019081526020015f20836040516115a79190614d0b565b908152602001604051809103902090816115c19190614bd5565b50837f8b490e7b0a60733bb17982917e471c69228883c096a425f2dece0819ce92e7bb83836040516115f4929190614d21565b60405180910390a2505080806001019150506114d2565b50803373ffffffffffffffffffffffffffffffffffffffff167f53f3e9a832a8c21b2c8955fbf6dc0bd4b59bb2c4306d5a81eaa517ccbf6d9f7360405160405180910390a35050505050565b5f5f611661612c8f565b9050805f015f9054906101000a900473ffffffffffffffffffffffffffffffffffffffff1691505090565b81611696816124fa565b5f61169f612456565b905082816001015f8681526020019081526020015f205f0190816116c39190614bd5565b5050505050565b60605f6116d5612577565b90508060010180546116e690614a05565b80601f016020809104026020016040519081016040528092919081815260200182805461171290614a05565b801561175d5780601f106117345761010080835404028352916020019161175d565b820191905f5260205f20905b81548152906001019060200180831161174057829003601f168201915b505050505091505090565b5f5f611772612456565b905080600401836040516117869190614d0b565b90815260200160405180910390205f9054906101000a900460ff16915050919050565b6117bb6117b461266b565b8383612cb6565b5050565b6040518060400160405280600581526020017f352e302e3000000000000000000000000000000000000000000000000000000081525081565b611803848484610e1b565b61181761180e61266b565b85858585612e2d565b50505050565b5f611826612fd9565b90505f815f0160089054906101000a900460ff161590505f825f015f9054906101000a900467ffffffffffffffff1690505f5f8267ffffffffffffffff1614801561186e5750825b90505f60018367ffffffffffffffff161480156118a157505f3073ffffffffffffffffffffffffffffffffffffffff163b145b9050811580156118af575080155b156118e6576040517ff92ee8a900000000000000000000000000000000000000000000000000000000815260040160405180910390fd5b6001855f015f6101000a81548167ffffffffffffffff021916908367ffffffffffffffff1602179055508315611933576001855f0160086101000a81548160ff0219169083151502179055505b6119a76040518060400160405280600881526020017f42617365436172640000000000000000000000000000000000000000000000008152506040518060400160405280600581526020017f4243415244000000000000000000000000000000000000000000000000000000815250612fec565b6119af613002565b6119b761300c565b6119c086613016565b5f6119c9612456565b90506001815f01819055505f6040518060c001604052806040518060400160405280600181526020017f780000000000000000000000000000000000000000000000000000000000000081525081526020016040518060400160405280600981526020017f666172636173746572000000000000000000000000000000000000000000000081525081526020016040518060400160405280600781526020017f776562736974650000000000000000000000000000000000000000000000000081525081526020016040518060400160405280600681526020017f676974687562000000000000000000000000000000000000000000000000000081525081526020016040518060400160405280600881526020017f6c696e6b6564696e00000000000000000000000000000000000000000000000081525081526020016040518060400160405280600881526020017f626173656e616d6500000000000000000000000000000000000000000000000081525081525090505f5f90505b6006811015611bf757600183600401838360068110611b6957611b68614ca4565b5b6020020151604051611b7b9190614d0b565b90815260200160405180910390205f6101000a81548160ff02191690831515021790555082600601828260068110611bb657611bb5614ca4565b5b6020020151908060018154018082558091505060019003905f5260205f20015f909190919091509081611be99190614bd5565b508080600101915050611b47565b5050508315611c54575f855f0160086101000a81548160ff0219169083151502179055507fc7f505b2f371ae2175ee4913f4499e1f2633a7b5936321eed1cdaeb6115181d26001604051611c4b9190614e89565b60405180910390a15b505050505050565b81611c66816124fa565b5f611c6f612456565b905082816001015f8681526020019081526020015f206001019081611c949190614bd5565b5050505050565b60605f611ca6612456565b90505f831480611cb95750805f01548310155b15611cfb57826040517fed15e6cf000000000000000000000000000000000000000000000000000000008152600401611cf291906146e0565b60405180910390fd5b5f816001015f8581526020019081526020015f206040518060800160405290815f82018054611d2990614a05565b80601f0160208091040260200160405190810160405280929190818152602001828054611d5590614a05565b8015611da05780601f10611d7757610100808354040283529160200191611da0565b820191905f5260205f20905b815481529060010190602001808311611d8357829003601f168201915b50505050508152602001600182018054611db990614a05565b80601f0160208091040260200160405190810160405280929190818152602001828054611de590614a05565b8015611e305780601f10611e0757610100808354040283529160200191611e30565b820191905f5260205f20905b815481529060010190602001808311611e1357829003601f168201915b50505050508152602001600282018054611e4990614a05565b80601f0160208091040260200160405190810160405280929190818152602001828054611e7590614a05565b8015611ec05780601f10611e9757610100808354040283529160200191611ec0565b820191905f5260205f20905b815481529060010190602001808311611ea357829003601f168201915b50505050508152602001600382018054611ed990614a05565b80601f0160208091040260200160405190810160405280929190818152602001828054611f0590614a05565b8015611f505780601f10611f2757610100808354040283529160200191611f50565b820191905f5260205f20905b815481529060010190602001808311611f3357829003601f168201915b50505050508152505090505f6040518060400160405280600181526020017f5b0000000000000000000000000000000000000000000000000000000000000081525090505f83600601805480602002602001604051908101604052809291908181526020015f905b82821015612060578382905f5260205f20018054611fd590614a05565b80601f016020809104026020016040519081016040528092919081815260200182805461200190614a05565b801561204c5780601f106120235761010080835404028352916020019161204c565b820191905f5260205f20905b81548152906001019060200180831161202f57829003601f168201915b505050505081526020019060010190611fb8565b5050505090505f600190505f5f90505b82518110156121ba575f83828151811061208d5761208c614ca4565b5b602002602001015190505f876003015f8b81526020019081526020015f20826040516120b99190614d0b565b908152602001604051809103902080546120d290614a05565b80601f01602080910402602001604051908101604052809291908181526020018280546120fe90614a05565b80156121495780601f1061212057610100808354040283529160200191612149565b820191905f5260205f20905b81548152906001019060200180831161212c57829003601f168201915b505050505090505f815111156121ab5783612181578560405160200161216f9190614ec8565b60405160208183030381529060405295505b85828260405160200161219693929190614f5f565b60405160208183030381529060405295505f93505b50508080600101915050612070565b50826040516020016121cc9190614fe2565b60405160208183030381529060405292505f6121e78861302a565b855f01518660200151876040015188606001518860405160200161221096959493929190615257565b604051602081830303815290604052905061222a816130f4565b60405160200161223a919061537c565b6040516020818303038152906040529650505050505050919050565b5f5f612260612577565b9050806005015f8573ffffffffffffffffffffffffffffffffffffffff1673ffffffffffffffffffffffffffffffffffffffff1681526020019081526020015f205f8473ffffffffffffffffffffffffffffffffffffffff1673ffffffffffffffffffffffffffffffffffffffff1681526020019081526020015f205f9054906101000a900460ff1691505092915050565b6122fa612b37565b5f73ffffffffffffffffffffffffffffffffffffffff168173ffffffffffffffffffffffffffffffffffffffff160361236a575f6040517f1e4fbdf7000000000000000000000000000000000000000000000000000000008152600401612361919061447c565b60405180910390fd5b61237381612bbe565b50565b81612380816124fa565b5f612389612456565b905082816001015f8681526020019081526020015f2060030190816123ae9190614bd5565b5050505050565b5f6123be612456565b9050806005015f9054906101000a900473ffffffffffffffffffffffffffffffffffffffff1673ffffffffffffffffffffffffffffffffffffffff163373ffffffffffffffffffffffffffffffffffffffff161461245357336040517f3466b8fc00000000000000000000000000000000000000000000000000000000815260040161244a919061447c565b60405180910390fd5b50565b5f7f27203bc8d62caad0b56b7f1020c3acf2cd00bb7fa7c320bee6a88ad2dbdc6500905090565b612496828260405180602001604052805f815250613107565b5050565b5f634906490660e01b7bffffffffffffffffffffffffffffffffffffffffffffffffffffffff1916827bffffffffffffffffffffffffffffffffffffffffffffffffffffffff191614806124f357506124f28261312a565b5b9050919050565b3373ffffffffffffffffffffffffffffffffffffffff1661251a82610fff565b73ffffffffffffffffffffffffffffffffffffffff16146125745733816040517f58a5e22200000000000000000000000000000000000000000000000000000000815260040161256b92919061539d565b60405180910390fd5b50565b5f7f80bb2b638cc20bc4d0a60d66940f3ab4a00c1d7b313497ca82fb0b4ab0079300905090565b5f5f6125a98361320b565b90505f73ffffffffffffffffffffffffffffffffffffffff168173ffffffffffffffffffffffffffffffffffffffff160361261b57826040517f7e27328900000000000000000000000000000000000000000000000000000000815260040161261291906146e0565b60405180910390fd5b80915050919050565b5f5f61262e612577565b9050806004015f8481526020019081526020015f205f9054906101000a900473ffffffffffffffffffffffffffffffffffffffff16915050919050565b5f33905090565b61267f8383836001613252565b505050565b5f5f61268e612577565b90505f61269a8561320b565b90505f73ffffffffffffffffffffffffffffffffffffffff168473ffffffffffffffffffffffffffffffffffffffff16146126db576126da81858761341f565b5b5f73ffffffffffffffffffffffffffffffffffffffff168173ffffffffffffffffffffffffffffffffffffffff16146127685761271a5f865f5f613252565b6001826003015f8373ffffffffffffffffffffffffffffffffffffffff1673ffffffffffffffffffffffffffffffffffffffff1681526020019081526020015f205f82825403925050819055505b5f73ffffffffffffffffffffffffffffffffffffffff168673ffffffffffffffffffffffffffffffffffffffff16146127e9576001826003015f8873ffffffffffffffffffffffffffffffffffffffff1673ffffffffffffffffffffffffffffffffffffffff1681526020019081526020015f205f82825401925050819055505b85826002015f8781526020019081526020015f205f6101000a81548173ffffffffffffffffffffffffffffffffffffffff021916908373ffffffffffffffffffffffffffffffffffffffff160217905550848673ffffffffffffffffffffffffffffffffffffffff168273ffffffffffffffffffffffffffffffffffffffff167fddf252ad1be2c89b69c2b068fc378daa952ba7f163c4a11628f55a4df523b3ef60405160405180910390a480925050509392505050565b7f000000000000000000000000000000000000000000000000000000000000000073ffffffffffffffffffffffffffffffffffffffff163073ffffffffffffffffffffffffffffffffffffffff16148061294e57507f000000000000000000000000000000000000000000000000000000000000000073ffffffffffffffffffffffffffffffffffffffff166129356134e2565b73ffffffffffffffffffffffffffffffffffffffff1614155b15612985576040517fe07c8dba00000000000000000000000000000000000000000000000000000000815260040160405180910390fd5b565b61298f612b37565b50565b8173ffffffffffffffffffffffffffffffffffffffff166352d1902d6040518163ffffffff1660e01b8152600401602060405180830381865afa9250505080156129fa57506040513d601f19601f820116820180604052508101906129f791906153ee565b60015b612a3b57816040517f4c9c8ce3000000000000000000000000000000000000000000000000000000008152600401612a32919061447c565b60405180910390fd5b7f360894a13ba1a3210667c828492db98dca3e2076cc3735a920a3ca505d382bbc5f1b8114612aa157806040517faa1d49a4000000000000000000000000000000000000000000000000000000008152600401612a9891906146b8565b60405180910390fd5b612aab8383613535565b505050565b7f000000000000000000000000000000000000000000000000000000000000000073ffffffffffffffffffffffffffffffffffffffff163073ffffffffffffffffffffffffffffffffffffffff1614612b35576040517fe07c8dba00000000000000000000000000000000000000000000000000000000815260040160405180910390fd5b565b612b3f61266b565b73ffffffffffffffffffffffffffffffffffffffff16612b5d611657565b73ffffffffffffffffffffffffffffffffffffffff1614612bbc57612b8061266b565b6040517f118cdaa7000000000000000000000000000000000000000000000000000000008152600401612bb3919061447c565b60405180910390fd5b565b5f612bc7612c8f565b90505f815f015f9054906101000a900473ffffffffffffffffffffffffffffffffffffffff16905082825f015f6101000a81548173ffffffffffffffffffffffffffffffffffffffff021916908373ffffffffffffffffffffffffffffffffffffffff1602179055508273ffffffffffffffffffffffffffffffffffffffff168173ffffffffffffffffffffffffffffffffffffffff167f8be0079c531659141344cd1fd0a4f28419497f9722a3daafe3b4186f6b6457e060405160405180910390a3505050565b5f7f9016d09d72d40fdae2fd8ceac6b6234c7706214fd39c1cd1e609a0528c199300905090565b5f612cbf612577565b90505f73ffffffffffffffffffffffffffffffffffffffff168373ffffffffffffffffffffffffffffffffffffffff1603612d3157826040517f5b08ba18000000000000000000000000000000000000000000000000000000008152600401612d28919061447c565b60405180910390fd5b81816005015f8673ffffffffffffffffffffffffffffffffffffffff1673ffffffffffffffffffffffffffffffffffffffff1681526020019081526020015f205f8573ffffffffffffffffffffffffffffffffffffffff1673ffffffffffffffffffffffffffffffffffffffff1681526020019081526020015f205f6101000a81548160ff0219169083151502179055508273ffffffffffffffffffffffffffffffffffffffff168473ffffffffffffffffffffffffffffffffffffffff167f17307eab39ab6107e8899845ad3d59bd9653f200f220920489ca2b5937696c3184604051612e1f91906142ee565b60405180910390a350505050565b5f8373ffffffffffffffffffffffffffffffffffffffff163b1115612fd2578273ffffffffffffffffffffffffffffffffffffffff1663150b7a02868685856040518563ffffffff1660e01b8152600401612e8b949392919061546b565b6020604051808303815f875af1925050508015612ec657506040513d601f19601f82011682018060405250810190612ec391906154c9565b60015b612f47573d805f8114612ef4576040519150601f19603f3d011682016040523d82523d5f602084013e612ef9565b606091505b505f815103612f3f57836040517f64a0ae92000000000000000000000000000000000000000000000000000000008152600401612f36919061447c565b60405180910390fd5b805160208201fd5b63150b7a0260e01b7bffffffffffffffffffffffffffffffffffffffffffffffffffffffff1916817bffffffffffffffffffffffffffffffffffffffffffffffffffffffff191614612fd057836040517f64a0ae92000000000000000000000000000000000000000000000000000000008152600401612fc7919061447c565b60405180910390fd5b505b5050505050565b5f5f612fe36135a7565b90508091505090565b612ff46135d0565b612ffe8282613610565b5050565b61300a6135d0565b565b6130146135d0565b565b61301e6135d0565b6130278161364b565b50565b60605f6001613038846136cf565b0190505f8167ffffffffffffffff81111561305657613055613ea5565b5b6040519080825280601f01601f1916602001820160405280156130885781602001600182028036833780820191505090505b5090505f82602083010190505b6001156130e9578080600190039150507f3031323334353637383961626364656600000000000000000000000000000000600a86061a8153600a85816130de576130dd6154f4565b5b0494505f8503613095575b819350505050919050565b6060613100825f613820565b9050919050565b61311183836139aa565b61312561311c61266b565b5f858585612e2d565b505050565b5f7f80ac58cd000000000000000000000000000000000000000000000000000000007bffffffffffffffffffffffffffffffffffffffffffffffffffffffff1916827bffffffffffffffffffffffffffffffffffffffffffffffffffffffff191614806131f457507f5b5e139f000000000000000000000000000000000000000000000000000000007bffffffffffffffffffffffffffffffffffffffffffffffffffffffff1916827bffffffffffffffffffffffffffffffffffffffffffffffffffffffff1916145b80613204575061320382613a9d565b5b9050919050565b5f5f613215612577565b9050806002015f8481526020019081526020015f205f9054906101000a900473ffffffffffffffffffffffffffffffffffffffff16915050919050565b5f61325b612577565b9050818061329557505f73ffffffffffffffffffffffffffffffffffffffff168373ffffffffffffffffffffffffffffffffffffffff1614155b156133c7575f6132a48561259e565b90505f73ffffffffffffffffffffffffffffffffffffffff168473ffffffffffffffffffffffffffffffffffffffff161415801561330e57508373ffffffffffffffffffffffffffffffffffffffff168173ffffffffffffffffffffffffffffffffffffffff1614155b8015613321575061331f8185612256565b155b1561336357836040517fa9fbf51f00000000000000000000000000000000000000000000000000000000815260040161335a919061447c565b60405180910390fd5b82156133c557848673ffffffffffffffffffffffffffffffffffffffff168273ffffffffffffffffffffffffffffffffffffffff167f8c5be1e5ebec7d5bd14f71427d1e84f3dd0314c0f7b2291e5b200ac8c7c3b92560405160405180910390a45b505b84816004015f8681526020019081526020015f205f6101000a81548173ffffffffffffffffffffffffffffffffffffffff021916908373ffffffffffffffffffffffffffffffffffffffff1602179055505050505050565b61342a838383613b06565b6134dd575f73ffffffffffffffffffffffffffffffffffffffff168373ffffffffffffffffffffffffffffffffffffffff160361349e57806040517f7e27328900000000000000000000000000000000000000000000000000000000815260040161349591906146e0565b60405180910390fd5b81816040517f177e802f0000000000000000000000000000000000000000000000000000000081526004016134d492919061539d565b60405180910390fd5b505050565b5f61350e7f360894a13ba1a3210667c828492db98dca3e2076cc3735a920a3ca505d382bbc5f1b613bc6565b5f015f9054906101000a900473ffffffffffffffffffffffffffffffffffffffff16905090565b61353e82613bcf565b8173ffffffffffffffffffffffffffffffffffffffff167fbc7cd75a20ee27fd9adebab32041f755214dbc6bffa90cc0225b39da2e5c2d3b60405160405180910390a25f8151111561359a576135948282613c98565b506135a3565b6135a2613d89565b5b5050565b5f7ff0c57e16840df040f15088dc2f81fe391c3923bec73e23a9662efc9c229c6a005f1b905090565b6135d8613dc5565b61360e576040517fd7e6bcf800000000000000000000000000000000000000000000000000000000815260040160405180910390fd5b565b6136186135d0565b5f613621612577565b905082815f0190816136339190614bd5565b50818160010190816136459190614bd5565b50505050565b6136536135d0565b5f73ffffffffffffffffffffffffffffffffffffffff168173ffffffffffffffffffffffffffffffffffffffff16036136c3575f6040517f1e4fbdf70000000000000000000000000000000000000000000000000000000081526004016136ba919061447c565b60405180910390fd5b6136cc81612bbe565b50565b5f5f5f90507a184f03e93ff9f4daa797ed6e38ed64bf6a1f010000000000000000831061372b577a184f03e93ff9f4daa797ed6e38ed64bf6a1f0100000000000000008381613721576137206154f4565b5b0492506040810190505b6d04ee2d6d415b85acef81000000008310613768576d04ee2d6d415b85acef8100000000838161375e5761375d6154f4565b5b0492506020810190505b662386f26fc10000831061379757662386f26fc10000838161378d5761378c6154f4565b5b0492506010810190505b6305f5e10083106137c0576305f5e10083816137b6576137b56154f4565b5b0492506008810190505b61271083106137e55761271083816137db576137da6154f4565b5b0492506004810190505b6064831061380857606483816137fe576137fd6154f4565b5b0492506002810190505b600a8310613817576001810190505b80915050919050565b60605f8351036138405760405180602001604052805f81525090506139a4565b5f82613871576003600285516138569190615521565b6138609190615554565b600461386c9190615584565b613898565b60036002855160046138839190615584565b61388d9190615521565b6138979190615554565b5b905060405191507f4142434445464748494a4b4c4d4e4f505152535455565758595a616263646566601f5261067083027f6768696a6b6c6d6e6f707172737475767778797a303132333435363738392b2f18603f526020820181810185865187016020810180515f82525b82841015613956576003840193508351603f8160121c16518753600187019650603f81600c1c16518753600187019650603f8160061c16518753600187019650603f811651875360018701965050613903565b808252886139955760038a510660018114613978576002811461398b57613993565b603d6001880353603d6002880353613993565b603d60018803535b505b86885284604052505050505050505b92915050565b5f73ffffffffffffffffffffffffffffffffffffffff168273ffffffffffffffffffffffffffffffffffffffff1603613a1a575f6040517f64a0ae92000000000000000000000000000000000000000000000000000000008152600401613a11919061447c565b60405180910390fd5b5f613a2683835f612684565b90505f73ffffffffffffffffffffffffffffffffffffffff168173ffffffffffffffffffffffffffffffffffffffff1614613a98575f6040517f73c6ac6e000000000000000000000000000000000000000000000000000000008152600401613a8f919061447c565b60405180910390fd5b505050565b5f7f01ffc9a7000000000000000000000000000000000000000000000000000000007bffffffffffffffffffffffffffffffffffffffffffffffffffffffff1916827bffffffffffffffffffffffffffffffffffffffffffffffffffffffff1916149050919050565b5f5f73ffffffffffffffffffffffffffffffffffffffff168373ffffffffffffffffffffffffffffffffffffffff1614158015613bbd57508273ffffffffffffffffffffffffffffffffffffffff168473ffffffffffffffffffffffffffffffffffffffff161480613b7e5750613b7d8484612256565b5b80613bbc57508273ffffffffffffffffffffffffffffffffffffffff16613ba483612624565b73ffffffffffffffffffffffffffffffffffffffff16145b5b90509392505050565b5f819050919050565b5f8173ffffffffffffffffffffffffffffffffffffffff163b03613c2a57806040517f4c9c8ce3000000000000000000000000000000000000000000000000000000008152600401613c21919061447c565b60405180910390fd5b80613c567f360894a13ba1a3210667c828492db98dca3e2076cc3735a920a3ca505d382bbc5f1b613bc6565b5f015f6101000a81548173ffffffffffffffffffffffffffffffffffffffff021916908373ffffffffffffffffffffffffffffffffffffffff16021790555050565b60605f613ca58484613de3565b9050808015613cdb57505f613cb8613df7565b1180613cda57505f8473ffffffffffffffffffffffffffffffffffffffff163b115b5b15613cf057613ce8613dfe565b915050613d83565b8015613d3357836040517f9996b315000000000000000000000000000000000000000000000000000000008152600401613d2a919061447c565b60405180910390fd5b5f613d3c613df7565b1115613d4f57613d4a613e1b565b613d81565b6040517fd6bda27500000000000000000000000000000000000000000000000000000000815260040160405180910390fd5b505b92915050565b5f341115613dc3576040517fb398979f00000000000000000000000000000000000000000000000000000000815260040160405180910390fd5b565b5f613dce612fd9565b5f0160089054906101000a900460ff16905090565b5f5f5f835160208501865af4905092915050565b5f3d905090565b606060405190503d81523d5f602083013e3d602001810160405290565b6040513d5f823e3d81fd5b5f604051905090565b5f5ffd5b5f5ffd5b5f73ffffffffffffffffffffffffffffffffffffffff82169050919050565b5f613e6082613e37565b9050919050565b613e7081613e56565b8114613e7a575f5ffd5b50565b5f81359050613e8b81613e67565b92915050565b5f5ffd5b5f601f19601f8301169050919050565b7f4e487b71000000000000000000000000000000000000000000000000000000005f52604160045260245ffd5b613edb82613e95565b810181811067ffffffffffffffff82111715613efa57613ef9613ea5565b5b80604052505050565b5f613f0c613e26565b9050613f188282613ed2565b919050565b5f5ffd5b5f5ffd5b5f5ffd5b5f67ffffffffffffffff821115613f4357613f42613ea5565b5b613f4c82613e95565b9050602081019050919050565b828183375f83830152505050565b5f613f79613f7484613f29565b613f03565b905082815260208101848484011115613f9557613f94613f25565b5b613fa0848285613f59565b509392505050565b5f82601f830112613fbc57613fbb613f21565b5b8135613fcc848260208601613f67565b91505092915050565b5f60808284031215613fea57613fe9613e91565b5b613ff46080613f03565b90505f82013567ffffffffffffffff81111561401357614012613f1d565b5b61401f84828501613fa8565b5f83015250602082013567ffffffffffffffff81111561404257614041613f1d565b5b61404e84828501613fa8565b602083015250604082013567ffffffffffffffff81111561407257614071613f1d565b5b61407e84828501613fa8565b604083015250606082013567ffffffffffffffff8111156140a2576140a1613f1d565b5b6140ae84828501613fa8565b60608301525092915050565b5f67ffffffffffffffff8211156140d4576140d3613ea5565b5b602082029050602081019050919050565b5f5ffd5b5f6140fb6140f6846140ba565b613f03565b9050808382526020820190506020840283018581111561411e5761411d6140e5565b5b835b8181101561416557803567ffffffffffffffff81111561414357614142613f21565b5b8086016141508982613fa8565b85526020850194505050602081019050614120565b5050509392505050565b5f82601f83011261418357614182613f21565b5b81356141938482602086016140e9565b91505092915050565b5f5f5f5f608085870312156141b4576141b3613e2f565b5b5f6141c187828801613e7d565b945050602085013567ffffffffffffffff8111156141e2576141e1613e33565b5b6141ee87828801613fd5565b935050604085013567ffffffffffffffff81111561420f5761420e613e33565b5b61421b8782880161416f565b925050606085013567ffffffffffffffff81111561423c5761423b613e33565b5b6142488782880161416f565b91505092959194509250565b5f7fffffffff0000000000000000000000000000000000000000000000000000000082169050919050565b61428881614254565b8114614292575f5ffd5b50565b5f813590506142a38161427f565b92915050565b5f602082840312156142be576142bd613e2f565b5b5f6142cb84828501614295565b91505092915050565b5f8115159050919050565b6142e8816142d4565b82525050565b5f6020820190506143015f8301846142df565b92915050565b5f819050919050565b61431981614307565b8114614323575f5ffd5b50565b5f8135905061433481614310565b92915050565b5f5f5f6060848603121561435157614350613e2f565b5b5f61435e86828701614326565b935050602084013567ffffffffffffffff81111561437f5761437e613e33565b5b61438b86828701613fa8565b925050604084013567ffffffffffffffff8111156143ac576143ab613e33565b5b6143b886828701613fa8565b9150509250925092565b5f81519050919050565b5f82825260208201905092915050565b8281835e5f83830152505050565b5f6143f4826143c2565b6143fe81856143cc565b935061440e8185602086016143dc565b61441781613e95565b840191505092915050565b5f6020820190508181035f83015261443a81846143ea565b905092915050565b5f6020828403121561445757614456613e2f565b5b5f61446484828501614326565b91505092915050565b61447681613e56565b82525050565b5f60208201905061448f5f83018461446d565b92915050565b5f5f604083850312156144ab576144aa613e2f565b5b5f6144b885828601613e7d565b92505060206144c985828601614326565b9150509250929050565b5f5f604083850312156144e9576144e8613e2f565b5b5f6144f685828601614326565b925050602083013567ffffffffffffffff81111561451757614516613e33565b5b61452385828601613fa8565b9150509250929050565b5f5f5f6060848603121561454457614543613e2f565b5b5f61455186828701613e7d565b935050602061456286828701613e7d565b925050604061457386828701614326565b9150509250925092565b5f6020828403121561459257614591613e2f565b5b5f61459f84828501613e7d565b91505092915050565b5f67ffffffffffffffff8211156145c2576145c1613ea5565b5b6145cb82613e95565b9050602081019050919050565b5f6145ea6145e5846145a8565b613f03565b90508281526020810184848401111561460657614605613f25565b5b614611848285613f59565b509392505050565b5f82601f83011261462d5761462c613f21565b5b813561463d8482602086016145d8565b91505092915050565b5f5f6040838503121561465c5761465b613e2f565b5b5f61466985828601613e7d565b925050602083013567ffffffffffffffff81111561468a57614689613e33565b5b61469685828601614619565b9150509250929050565b5f819050919050565b6146b2816146a0565b82525050565b5f6020820190506146cb5f8301846146a9565b92915050565b6146da81614307565b82525050565b5f6020820190506146f35f8301846146d1565b92915050565b614702816142d4565b811461470c575f5ffd5b50565b5f8135905061471d816146f9565b92915050565b5f5f6040838503121561473957614738613e2f565b5b5f83013567ffffffffffffffff81111561475657614755613e33565b5b61476285828601613fa8565b92505060206147738582860161470f565b9150509250929050565b5f5f5f6060848603121561479457614793613e2f565b5b5f84013567ffffffffffffffff8111156147b1576147b0613e33565b5b6147bd86828701613fd5565b935050602084013567ffffffffffffffff8111156147de576147dd613e33565b5b6147ea8682870161416f565b925050604084013567ffffffffffffffff81111561480b5761480a613e33565b5b6148178682870161416f565b9150509250925092565b5f6020828403121561483657614835613e2f565b5b5f82013567ffffffffffffffff81111561485357614852613e33565b5b61485f84828501613fa8565b91505092915050565b5f5f6040838503121561487e5761487d613e2f565b5b5f61488b85828601613e7d565b925050602061489c8582860161470f565b9150509250929050565b5f5f5f5f608085870312156148be576148bd613e2f565b5b5f6148cb87828801613e7d565b94505060206148dc87828801613e7d565b93505060406148ed87828801614326565b925050606085013567ffffffffffffffff81111561490e5761490d613e33565b5b61491a87828801614619565b91505092959194509250565b5f5f6040838503121561493c5761493b613e2f565b5b5f61494985828601613e7d565b925050602061495a85828601613e7d565b9150509250929050565b7f4e487b71000000000000000000000000000000000000000000000000000000005f52601160045260245ffd5b5f61499b82614307565b91507fffffffffffffffffffffffffffffffffffffffffffffffffffffffffffffffff82036149cd576149cc614964565b5b600182019050919050565b7f4e487b71000000000000000000000000000000000000000000000000000000005f52602260045260245ffd5b5f6002820490506001821680614a1c57607f821691505b602082108103614a2f57614a2e6149d8565b5b50919050565b5f819050815f5260205f209050919050565b5f6020601f8301049050919050565b5f82821b905092915050565b5f60088302614a917fffffffffffffffffffffffffffffffffffffffffffffffffffffffffffffffff82614a56565b614a9b8683614a56565b95508019841693508086168417925050509392505050565b5f819050919050565b5f614ad6614ad1614acc84614307565b614ab3565b614307565b9050919050565b5f819050919050565b614aef83614abc565b614b03614afb82614add565b848454614a62565b825550505050565b5f5f905090565b614b1a614b0b565b614b25818484614ae6565b505050565b5b81811015614b4857614b3d5f82614b12565b600181019050614b2b565b5050565b601f821115614b8d57614b5e81614a35565b614b6784614a47565b81016020851015614b76578190505b614b8a614b8285614a47565b830182614b2a565b50505b505050565b5f82821c905092915050565b5f614bad5f1984600802614b92565b1980831691505092915050565b5f614bc58383614b9e565b9150826002028217905092915050565b614bde826143c2565b67ffffffffffffffff811115614bf757614bf6613ea5565b5b614c018254614a05565b614c0c828285614b4c565b5f60209050601f831160018114614c3d575f8415614c2b578287015190505b614c358582614bba565b865550614c9c565b601f198416614c4b86614a35565b5f5b82811015614c7257848901518255600182019150602085019450602081019050614c4d565b86831015614c8f5784890151614c8b601f891682614b9e565b8355505b6001600288020188555050505b505050505050565b7f4e487b71000000000000000000000000000000000000000000000000000000005f52603260045260245ffd5b5f81905092915050565b5f614ce5826143c2565b614cef8185614cd1565b9350614cff8185602086016143dc565b80840191505092915050565b5f614d168284614cdb565b915081905092915050565b5f6040820190508181035f830152614d3981856143ea565b90508181036020830152614d4d81846143ea565b90509392505050565b5f606082019050614d695f83018661446d565b614d7660208301856146d1565b614d83604083018461446d565b949350505050565b5f81905092915050565b5f819050815f5260205f209050919050565b5f8154614db381614a05565b614dbd8186614d8b565b9450600182165f8114614dd75760018114614dec57614e1e565b60ff1983168652811515820286019350614e1e565b614df585614d95565b5f5b83811015614e1657815481890152600182019150602081019050614df7565b838801955050505b50505092915050565b5f614e328284614da7565b915081905092915050565b5f819050919050565b5f67ffffffffffffffff82169050919050565b5f614e73614e6e614e6984614e3d565b614ab3565b614e46565b9050919050565b614e8381614e59565b82525050565b5f602082019050614e9c5f830184614e7a565b92915050565b7f2c00000000000000000000000000000000000000000000000000000000000000815250565b5f614ed38284614cdb565b9150614ede82614ea2565b60018201915081905092915050565b7f7b226b6579223a22000000000000000000000000000000000000000000000000815250565b7f222c2276616c7565223a22000000000000000000000000000000000000000000815250565b7f227d000000000000000000000000000000000000000000000000000000000000815250565b5f614f6a8286614cdb565b9150614f7582614eed565b600882019150614f858285614cdb565b9150614f9082614f13565b600b82019150614fa08284614cdb565b9150614fab82614f39565b600282019150819050949350505050565b7f5d00000000000000000000000000000000000000000000000000000000000000815250565b5f614fed8284614cdb565b9150614ff882614fbc565b60018201915081905092915050565b7f7b226e616d65223a202242617365436172643a202300000000000000000000005f82015250565b5f61503b601583614cd1565b915061504682615007565b601582019050919050565b7f222c0000000000000000000000000000000000000000000000000000000000005f82015250565b5f615085600283614cd1565b915061509082615051565b600282019050919050565b7f22696d616765223a2022000000000000000000000000000000000000000000005f82015250565b5f6150cf600a83614cd1565b91506150da8261509b565b600a82019050919050565b7f226e69636b6e616d65223a2022000000000000000000000000000000000000005f82015250565b5f615119600d83614cd1565b9150615124826150e5565b600d82019050919050565b7f22726f6c65223a202200000000000000000000000000000000000000000000005f82015250565b5f615163600983614cd1565b915061516e8261512f565b600982019050919050565b7f2262696f223a20220000000000000000000000000000000000000000000000005f82015250565b5f6151ad600883614cd1565b91506151b882615179565b600882019050919050565b7f22736f6369616c73223a200000000000000000000000000000000000000000005f82015250565b5f6151f7600b83614cd1565b9150615202826151c3565b600b82019050919050565b7f7d000000000000000000000000000000000000000000000000000000000000005f82015250565b5f615241600183614cd1565b915061524c8261520d565b600182019050919050565b5f6152618261502f565b915061526d8289614cdb565b915061527882615079565b9150615283826150c3565b915061528f8288614cdb565b915061529a82615079565b91506152a58261510d565b91506152b18287614cdb565b91506152bc82615079565b91506152c782615157565b91506152d38286614cdb565b91506152de82615079565b91506152e9826151a1565b91506152f58285614cdb565b915061530082615079565b915061530b826151eb565b91506153178284614cdb565b915061532282615235565b9150819050979650505050505050565b7f646174613a6170706c69636174696f6e2f6a736f6e3b6261736536342c0000005f82015250565b5f615366601d83614cd1565b915061537182615332565b601d82019050919050565b5f6153868261535a565b91506153928284614cdb565b915081905092915050565b5f6040820190506153b05f83018561446d565b6153bd60208301846146d1565b9392505050565b6153cd816146a0565b81146153d7575f5ffd5b50565b5f815190506153e8816153c4565b92915050565b5f6020828403121561540357615402613e2f565b5b5f615410848285016153da565b91505092915050565b5f81519050919050565b5f82825260208201905092915050565b5f61543d82615419565b6154478185615423565b93506154578185602086016143dc565b61546081613e95565b840191505092915050565b5f60808201905061547e5f83018761446d565b61548b602083018661446d565b61549860408301856146d1565b81810360608301526154aa8184615433565b905095945050505050565b5f815190506154c38161427f565b92915050565b5f602082840312156154de576154dd613e2f565b5b5f6154eb848285016154b5565b91505092915050565b7f4e487b71000000000000000000000000000000000000000000000000000000005f52601260045260245ffd5b5f61552b82614307565b915061553683614307565b925082820190508082111561554e5761554d614964565b5b92915050565b5f61555e82614307565b915061556983614307565b925082615579576155786154f4565b5b828204905092915050565b5f61558e82614307565b915061559983614307565b92508282026155a781614307565b915082820484148315176155be576155bd614964565b5b509291505056fea2646970667358221220957b3982a41685724a326366938871e20ec7b97be4cd6fb2ce6b52083162a26064736f6c634300081e0033",
        "linkReferences": {}
    },
    "methodIdentifiers": {
        "UPGRADE_INTERFACE_VERSION()": "ad3cb1cc",
        "approve(address,uint256)": "095ea7b3",
        "balanceOf(address)": "70a08231",
        "burn(uint256)": "42966c68",
        "getApproved(uint256)": "081812fc",
        "getSocial(uint256,string)": "171b9219",
        "hasMinted(address)": "38e21cce",
        "initialize(address)": "c4d66de8",
        "isAllowedSocialKey(string)": "97ac747a",
        "isApprovedForAll(address,address)": "e985e9c5",
        "linkSocial(uint256,string,string)": "0327fff6",
        "migrateBaseCardFromTestnet(address,(string,string,string,string),string[],string[])": "01debcc7",
        "migrationAdmin()": "74df2558",
        "mintBaseCard((string,string,string,string),string[],string[])": "876e1bc6",
        "name()": "06fdde03",
        "owner()": "8da5cb5b",
        "ownerOf(uint256)": "6352211e",
        "proxiableUUID()": "52d1902d",
        "renounceOwnership()": "715018a6",
        "safeTransferFrom(address,address,uint256)": "42842e0e",
        "safeTransferFrom(address,address,uint256,bytes)": "b88d4fde",
        "setAllowedSocialKey(string,bool)": "83fda672",
        "setApprovalForAll(address,bool)": "a22cb465",
        "setMigrationAdmin(address)": "70ae07a1",
        "supportsInterface(bytes4)": "01ffc9a7",
        "symbol()": "95d89b41",
        "tokenURI(uint256)": "c87b56dd",
        "transferFrom(address,address,uint256)": "23b872dd",
        "transferOwnership(address)": "f2fde38b",
        "updateBio(uint256,string)": "f99c27c9",
        "updateImageURI(uint256,string)": "8e5e6a28",
        "updateNickname(uint256,string)": "c68905b9",
        "upgradeToAndCall(address,bytes)": "4f1ef286"
    },
    "storageLayout": {
        "storage": [],
        "types": {}
    },
    "id": 73
}