{"abi":[{"type":"constructor","inputs":[],"stateMutability":"nonpayable"},{"type":"function","name":"UPGRADE_INTERFACE_VERSION","inputs":[],"outputs":[{"name":"","type":"string","internalType":"string"}],"stateMutability":"view"},{"type":"function","name":"approve","inputs":[{"name":"to","type":"address","internalType":"address"},{"name":"tokenId","type":"uint256","internalType":"uint256"}],"outputs":[],"stateMutability":"nonpayable"},{"type":"function","name":"balanceOf","inputs":[{"name":"owner","type":"address","internalType":"address"}],"outputs":[{"name":"","type":"uint256","internalType":"uint256"}],"stateMutability":"view"},{"type":"function","name":"burn","inputs":[{"name":"tokenId","type":"uint256","internalType":"uint256"}],"outputs":[],"stateMutability":"nonpayable"},{"type":"function","name":"editBaseCard","inputs":[{"name":"_tokenId","type":"uint256","internalType":"uint256"},{"name":"_newCardData","type":"tuple","internalType":"struct IBaseCard.CardData","components":[{"name":"imageURI","type":"string","internalType":"string"},{"name":"nickname","type":"string","internalType":"string"},{"name":"role","type":"string","internalType":"string"},{"name":"bio","type":"string","internalType":"string"}]},{"name":"_socialKeys","type":"string[]","internalType":"string[]"},{"name":"_socialValues","type":"string[]","internalType":"string[]"}],"outputs":[],"stateMutability":"nonpayable"},{"type":"function","name":"getApproved","inputs":[{"name":"tokenId","type":"uint256","internalType":"uint256"}],"outputs":[{"name":"","type":"address","internalType":"address"}],"stateMutability":"view"},{"type":"function","name":"getSocial","inputs":[{"name":"_tokenId","type":"uint256","internalType":"uint256"},{"name":"_key","type":"string","internalType":"string"}],"outputs":[{"name":"","type":"string","internalType":"string"}],"stateMutability":"view"},{"type":"function","name":"grantTokenDelegate","inputs":[{"name":"_tokenId","type":"uint256","internalType":"uint256"},{"name":"_delegate","type":"address","internalType":"address"}],"outputs":[],"stateMutability":"nonpayable"},{"type":"function","name":"hasMinted","inputs":[{"name":"_address","type":"address","internalType":"address"}],"outputs":[{"name":"","type":"bool","internalType":"bool"}],"stateMutability":"view"},{"type":"function","name":"initialize","inputs":[{"name":"initialOwner","type":"address","internalType":"address"}],"outputs":[],"stateMutability":"nonpayable"},{"type":"function","name":"isAllowedRole","inputs":[{"name":"_role","type":"string","internalType":"string"}],"outputs":[{"name":"","type":"bool","internalType":"bool"}],"stateMutability":"view"},{"type":"function","name":"isAllowedSocialKey","inputs":[{"name":"_key","type":"string","internalType":"string"}],"outputs":[{"name":"","type":"bool","internalType":"bool"}],"stateMutability":"view"},{"type":"function","name":"isApprovedForAll","inputs":[{"name":"owner","type":"address","internalType":"address"},{"name":"operator","type":"address","internalType":"address"}],"outputs":[{"name":"","type":"bool","internalType":"bool"}],"stateMutability":"view"},{"type":"function","name":"isTokenDelegate","inputs":[{"name":"_tokenId","type":"uint256","internalType":"uint256"},{"name":"_delegate","type":"address","internalType":"address"}],"outputs":[{"name":"","type":"bool","internalType":"bool"}],"stateMutability":"view"},{"type":"function","name":"isTokenOperator","inputs":[{"name":"_tokenId","type":"uint256","internalType":"uint256"},{"name":"_account","type":"address","internalType":"address"}],"outputs":[{"name":"","type":"bool","internalType":"bool"}],"stateMutability":"view"},{"type":"function","name":"linkSocial","inputs":[{"name":"_tokenId","type":"uint256","internalType":"uint256"},{"name":"_key","type":"string","internalType":"string"},{"name":"_value","type":"string","internalType":"string"}],"outputs":[],"stateMutability":"nonpayable"},{"type":"function","name":"migrationAdmin","inputs":[],"outputs":[{"name":"","type":"address","internalType":"address"}],"stateMutability":"view"},{"type":"function","name":"mintBaseCard","inputs":[{"name":"_initialCardData","type":"tuple","internalType":"struct IBaseCard.CardData","components":[{"name":"imageURI","type":"string","internalType":"string"},{"name":"nickname","type":"string","internalType":"string"},{"name":"role","type":"string","internalType":"string"},{"name":"bio","type":"string","internalType":"string"}]},{"name":"_socialKeys","type":"string[]","internalType":"string[]"},{"name":"_socialValues","type":"string[]","internalType":"string[]"},{"name":"_initialDelegates","type":"address[]","internalType":"address[]"}],"outputs":[],"stateMutability":"nonpayable"},{"type":"function","name":"name","inputs":[],"outputs":[{"name":"","type":"string","internalType":"string"}],"stateMutability":"view"},{"type":"function","name":"owner","inputs":[],"outputs":[{"name":"","type":"address","internalType":"address"}],"stateMutability":"view"},{"type":"function","name":"ownerOf","inputs":[{"name":"tokenId","type":"uint256","internalType":"uint256"}],"outputs":[{"name":"","type":"address","internalType":"address"}],"stateMutability":"view"},{"type":"function","name":"proxiableUUID","inputs":[],"outputs":[{"name":"","type":"bytes32","internalType":"bytes32"}],"stateMutability":"view"},{"type":"function","name":"renounceOwnership","inputs":[],"outputs":[],"stateMutability":"nonpayable"},{"type":"function","name":"revokeTokenDelegate","inputs":[{"name":"_tokenId","type":"uint256","internalType":"uint256"},{"name":"_delegate","type":"address","internalType":"address"}],"outputs":[],"stateMutability":"nonpayable"},{"type":"function","name":"safeTransferFrom","inputs":[{"name":"from","type":"address","internalType":"address"},{"name":"to","type":"address","internalType":"address"},{"name":"tokenId","type":"uint256","internalType":"uint256"}],"outputs":[],"stateMutability":"nonpayable"},{"type":"function","name":"safeTransferFrom","inputs":[{"name":"from","type":"address","internalType":"address"},{"name":"to","type":"address","internalType":"address"},{"name":"tokenId","type":"uint256","internalType":"uint256"},{"name":"data","type":"bytes","internalType":"bytes"}],"outputs":[],"stateMutability":"nonpayable"},{"type":"function","name":"setAllowedRole","inputs":[{"name":"_role","type":"string","internalType":"string"},{"name":"_isAllowed","type":"bool","internalType":"bool"}],"outputs":[],"stateMutability":"nonpayable"},{"type":"function","name":"setAllowedSocialKey","inputs":[{"name":"_key","type":"string","internalType":"string"},{"name":"_isAllowed","type":"bool","internalType":"bool"}],"outputs":[],"stateMutability":"nonpayable"},{"type":"function","name":"setApprovalForAll","inputs":[{"name":"operator","type":"address","internalType":"address"},{"name":"approved","type":"bool","internalType":"bool"}],"outputs":[],"stateMutability":"nonpayable"},{"type":"function","name":"setMigrationAdmin","inputs":[{"name":"_migrationAdmin","type":"address","internalType":"address"}],"outputs":[],"stateMutability":"nonpayable"},{"type":"function","name":"supportsInterface","inputs":[{"name":"interfaceId","type":"bytes4","internalType":"bytes4"}],"outputs":[{"name":"","type":"bool","internalType":"bool"}],"stateMutability":"view"},{"type":"function","name":"symbol","inputs":[],"outputs":[{"name":"","type":"string","internalType":"string"}],"stateMutability":"view"},{"type":"function","name":"tokenIdOf","inputs":[{"name":"_owner","type":"address","internalType":"address"}],"outputs":[{"name":"","type":"uint256","internalType":"uint256"}],"stateMutability":"view"},{"type":"function","name":"tokenURI","inputs":[{"name":"_tokenId","type":"uint256","internalType":"uint256"}],"outputs":[{"name":"","type":"string","internalType":"string"}],"stateMutability":"view"},{"type":"function","name":"transferFrom","inputs":[{"name":"from","type":"address","internalType":"address"},{"name":"to","type":"address","internalType":"address"},{"name":"tokenId","type":"uint256","internalType":"uint256"}],"outputs":[],"stateMutability":"nonpayable"},{"type":"function","name":"transferOwnership","inputs":[{"name":"newOwner","type":"address","internalType":"address"}],"outputs":[],"stateMutability":"nonpayable"},{"type":"function","name":"updateBio","inputs":[{"name":"_tokenId","type":"uint256","internalType":"uint256"},{"name":"_newBio","type":"string","internalType":"string"}],"outputs":[],"stateMutability":"nonpayable"},{"type":"function","name":"updateImageURI","inputs":[{"name":"_tokenId","type":"uint256","internalType":"uint256"},{"name":"_newImageUri","type":"string","internalType":"string"}],"outputs":[],"stateMutability":"nonpayable"},{"type":"function","name":"updateNickname","inputs":[{"name":"_tokenId","type":"uint256","internalType":"uint256"},{"name":"_newNickname","type":"string","internalType":"string"}],"outputs":[],"stateMutability":"nonpayable"},{"type":"function","name":"upgradeToAndCall","inputs":[{"name":"newImplementation","type":"address","internalType":"address"},{"name":"data","type":"bytes","internalType":"bytes"}],"outputs":[],"stateMutability":"payable"},{"type":"event","name":"Approval","inputs":[{"name":"owner","type":"address","indexed":true,"internalType":"address"},{"name":"approved","type":"address","indexed":true,"internalType":"address"},{"name":"tokenId","type":"uint256","indexed":true,"internalType":"uint256"}],"anonymous":false},{"type":"event","name":"ApprovalForAll","inputs":[{"name":"owner","type":"address","indexed":true,"internalType":"address"},{"name":"operator","type":"address","indexed":true,"internalType":"address"},{"name":"approved","type":"bool","indexed":false,"internalType":"bool"}],"anonymous":false},{"type":"event","name":"BaseCardEdited","inputs":[{"name":"tokenId","type":"uint256","indexed":true,"internalType":"uint256"}],"anonymous":false},{"type":"event","name":"BatchMetadataUpdate","inputs":[{"name":"_fromTokenId","type":"uint256","indexed":false,"internalType":"uint256"},{"name":"_toTokenId","type":"uint256","indexed":false,"internalType":"uint256"}],"anonymous":false},{"type":"event","name":"Initialized","inputs":[{"name":"version","type":"uint64","indexed":false,"internalType":"uint64"}],"anonymous":false},{"type":"event","name":"MetadataUpdate","inputs":[{"name":"_tokenId","type":"uint256","indexed":false,"internalType":"uint256"}],"anonymous":false},{"type":"event","name":"MintBaseCard","inputs":[{"name":"user","type":"address","indexed":true,"internalType":"address"},{"name":"tokenId","type":"uint256","indexed":true,"internalType":"uint256"}],"anonymous":false},{"type":"event","name":"OwnershipTransferred","inputs":[{"name":"previousOwner","type":"address","indexed":true,"internalType":"address"},{"name":"newOwner","type":"address","indexed":true,"internalType":"address"}],"anonymous":false},{"type":"event","name":"SocialLinked","inputs":[{"name":"tokenId","type":"uint256","indexed":true,"internalType":"uint256"},{"name":"key","type":"string","indexed":false,"internalType":"string"},{"name":"value","type":"string","indexed":false,"internalType":"string"}],"anonymous":false},{"type":"event","name":"SocialUnlinked","inputs":[{"name":"tokenId","type":"uint256","indexed":true,"internalType":"uint256"},{"name":"key","type":"string","indexed":false,"internalType":"string"}],"anonymous":false},{"type":"event","name":"TokenDelegateGranted","inputs":[{"name":"tokenId","type":"uint256","indexed":true,"internalType":"uint256"},{"name":"delegate","type":"address","indexed":true,"internalType":"address"}],"anonymous":false},{"type":"event","name":"TokenDelegateRevoked","inputs":[{"name":"tokenId","type":"uint256","indexed":true,"internalType":"uint256"},{"name":"delegate","type":"address","indexed":true,"internalType":"address"}],"anonymous":false},{"type":"event","name":"Transfer","inputs":[{"name":"from","type":"address","indexed":true,"internalType":"address"},{"name":"to","type":"address","indexed":true,"internalType":"address"},{"name":"tokenId","type":"uint256","indexed":true,"internalType":"uint256"}],"anonymous":false},{"type":"event","name":"Upgraded","inputs":[{"name":"implementation","type":"address","indexed":true,"internalType":"address"}],"anonymous":false},{"type":"error","name":"AddressEmptyCode","inputs":[{"name":"target","type":"address","internalType":"address"}]},{"type":"error","name":"AddressZero","inputs":[]},{"type":"error","name":"AlreadyDelegate","inputs":[{"name":"delegate","type":"address","internalType":"address"},{"name":"tokenId","type":"uint256","internalType":"uint256"}]},{"type":"error","name":"AlreadyMinted","inputs":[{"name":"user","type":"address","internalType":"address"}]},{"type":"error","name":"ERC1967InvalidImplementation","inputs":[{"name":"implementation","type":"address","internalType":"address"}]},{"type":"error","name":"ERC1967NonPayable","inputs":[]},{"type":"error","name":"ERC721IncorrectOwner","inputs":[{"name":"sender","type":"address","internalType":"address"},{"name":"tokenId","type":"uint256","internalType":"uint256"},{"name":"owner","type":"address","internalType":"address"}]},{"type":"error","name":"ERC721InsufficientApproval","inputs":[{"name":"operator","type":"address","internalType":"address"},{"name":"tokenId","type":"uint256","internalType":"uint256"}]},{"type":"error","name":"ERC721InvalidApprover","inputs":[{"name":"approver","type":"address","internalType":"address"}]},{"type":"error","name":"ERC721InvalidOperator","inputs":[{"name":"operator","type":"address","internalType":"address"}]},{"type":"error","name":"ERC721InvalidOwner","inputs":[{"name":"owner","type":"address","internalType":"address"}]},{"type":"error","name":"ERC721InvalidReceiver","inputs":[{"name":"receiver","type":"address","internalType":"address"}]},{"type":"error","name":"ERC721InvalidSender","inputs":[{"name":"sender","type":"address","internalType":"address"}]},{"type":"error","name":"ERC721NonexistentToken","inputs":[{"name":"tokenId","type":"uint256","internalType":"uint256"}]},{"type":"error","name":"EmptyImageURI","inputs":[]},{"type":"error","name":"EmptyNickname","inputs":[]},{"type":"error","name":"FailedCall","inputs":[]},{"type":"error","name":"InvalidInitialization","inputs":[]},{"type":"error","name":"InvalidTokenId","inputs":[{"name":"tokenId","type":"uint256","internalType":"uint256"}]},{"type":"error","name":"MismatchedSocialKeysAndValues","inputs":[]},{"type":"error","name":"NotAllowedRole","inputs":[{"name":"role","type":"string","internalType":"string"}]},{"type":"error","name":"NotAllowedSocialKey","inputs":[{"name":"key","type":"string","internalType":"string"}]},{"type":"error","name":"NotDelegate","inputs":[{"name":"delegate","type":"address","internalType":"address"},{"name":"tokenId","type":"uint256","internalType":"uint256"}]},{"type":"error","name":"NotInitializing","inputs":[]},{"type":"error","name":"NotTokenOperator","inputs":[{"name":"caller","type":"address","internalType":"address"},{"name":"tokenId","type":"uint256","internalType":"uint256"}]},{"type":"error","name":"NotTokenOwner","inputs":[{"name":"caller","type":"address","internalType":"address"},{"name":"tokenId","type":"uint256","internalType":"uint256"}]},{"type":"error","name":"OwnableInvalidOwner","inputs":[{"name":"owner","type":"address","internalType":"address"}]},{"type":"error","name":"OwnableUnauthorizedAccount","inputs":[{"name":"account","type":"address","internalType":"address"}]},{"type":"error","name":"TransferToNonDelegate","inputs":[{"name":"to","type":"address","internalType":"address"},{"name":"tokenId","type":"uint256","internalType":"uint256"}]},{"type":"error","name":"UUPSUnauthorizedCallContext","inputs":[]},{"type":"error","name":"UUPSUnsupportedProxiableUUID","inputs":[{"name":"slot","type":"bytes32","internalType":"bytes32"}]}],"bytecode":{"object":"0x60a080604052346100c257306080525f516020613dff5f395f51905f525460ff8160401c166100b3576002600160401b03196001600160401b03821601610060575b604051613d3890816100c782396080518181816122c701526123590152f35b6001600160401b0319166001600160401b039081175f516020613dff5f395f51905f525581527fc7f505b2f371ae2175ee4913f4499e1f2633a7b5936321eed1cdaeb6115181d290602090a15f80610041565b63f92ee8a960e01b5f5260045ffd5b5f80fdfe6080806040526004361015610012575f80fd5b5f3560e01c90816301ffc9a714612995575080630327fff61461287d57806306fdde03146127c0578063081812fc14612798578063095ea7b3146126995780630c5aa8071461265d578063171b92191461262557806323b872dd1461260e57806330b8bb301461254657806338e21cce1461252157806342842e0e146124f257806342966c68146124d55780634f1ef2861461231b57806352d1902d146122b55780636352211e1461228557806370a082311461223f57806370ae07a1146121ab578063715018a61461214457806374df2558146120fd578063773c02d4146120d157806383fda67214611fcb5780638c37dda514611ea05780638da5cb5b14611e6c5780638e5e6a2814611e1f57806395d89b4114611d3d57806397ac747a14611cf5578063a22cb46514611c54578063ad3cb1cc14611c0d578063b88d4fde14611bb3578063c13d81581461180e578063c4d66de81461114b578063c68905b9146110fb578063c87b56dd14610ac1578063c96291ed14610435578063d50cbeab146103e0578063e985e9c514610394578063f2fde38b1461036b578063f35894d714610294578063f99c27c9146102585763fddfdb5f146101d4575f80fd5b34610254576040366003190112610254576004356101f0612b0a565b906101fa816134b3565b6001600160a01b0383811691161490811561021d575b6020826040519015158152f35b90505f525f516020613c435f395f51905f5260205260405f209060018060a01b03165f52602052602060ff60405f2054165f610210565b5f80fd5b346102545761029261026936612b20565b906102738161344c565b5f525f516020613c235f395f51905f52602052600360405f2001612deb565b005b34610254576040366003190112610254576004356102b0612b0a565b6102b982613746565b815f525f516020613c435f395f51905f5260205260405f2060018060a01b0382165f5260205260ff60405f2054161561034e575f8281525f516020613c435f395f51905f52602090815260408083206001600160a01b0394909416808452939091528120805460ff191690559091907fc9888116bd812436d2efe32c5aa247043e144d69a7ac5a98d6dcb77ad9220a849080a3005b63f1a3a4b360e01b5f5260018060a01b031660045260245260445ffd5b3461025457602036600319011261025457610292610387612af4565b61038f613779565b6133db565b34610254576040366003190112610254576103ad612af4565b6103be6103b8612b0a565b916132bc565b9060018060a01b03165f52602052602060ff60405f2054166040519015158152f35b34610254576040366003190112610254576103f9612b0a565b6004355f525f516020613c435f395f51905f5260205260405f209060018060a01b03165f52602052602060ff60405f2054166040519015158152f35b34610254576080366003190112610254576004356001600160401b03811161025457610465903690600401612bc6565b6024356001600160401b03811161025457610484903690600401612c84565b6044356001600160401b038111610254576104a3903690600401612c84565b91606435916001600160401b03831161025457366023840112156102545782600401356104cf81612c6d565b936104dd6040519586612a50565b8185526024602086019260051b8201019036821161025457602401915b818310610aa15750505060ff61050f33613214565b5416610a8e578051845103610a7f57610527826138e2565b61053033613214565b805460ff191660011790555f516020613be35f395f51905f5254915f198314610a6b576105bd90600184015f516020613be35f395f51905f5255835f525f516020613c235f395f51905f526020526003606060405f2092610592815185612deb565b6105a3602082015160018601612deb565b6105b4604082015160028601612deb565b01519101612deb565b6020906040516105cd8382612a50565b5f81523315610a58576105df84613934565b6001600160a01b038116151580610a50575b6109f4575b5061060084613934565b6001600160a01b03811680151591908690836109d6575b6106203361324c565b805460010190555f8281525f516020613c635f395f51905f5288526040812080546001600160a01b0319163390811790915591907fddf252ad1be2c89b69c2b068fc378daa952ba7f163c4a11628f55a4df523b3ef9080a4506109c357333b6108ac575b508261068f33613284565b555f5b8151811015610753576106a581836133b6565b516106b082886133b6565b519060ff6106bd82612d02565b54161561072c577f8b490e7b0a60733bb17982917e471c69228883c096a425f2dece0819ce92e7bb600193928792835f525f516020613cc35f395f51905f5288526107148261070f60405f2084612d7e565b612deb565b61072360405192839283612ede565b0390a201610692565b8461074f60405192839263531101bf60e01b845260048401526024830190612ad0565b0390fd5b838584825f525f516020613c435f395f51905f52815260405f2060018060a01b0333165f52815260405f20600160ff1982541617905533837ffb6810841a45a800775127fc827be97c977d8053f05328bbd47ded6e980266805f80a35f5b8251811015610884576001906001600160a01b036107cf82866133b6565b51168015158061087a575b80610848575b6107ec575b50016107b1565b855f525f516020613c435f395f51905f52845260405f20838060a01b0382165f52845260405f208360ff19825416179055857ffb6810841a45a800775127fc827be97c977d8053f05328bbd47ded6e980266805f80a3856107e5565b50855f525f516020613c435f395f51905f52845260405f20838060a01b0382165f52845260ff60405f205416156107e0565b50338114156107da565b83337f53f3e9a832a8c21b2c8955fbf6dc0bd4b59bb2c4306d5a81eaa517ccbf6d9f735f80a3005b826108ea91604097969594975180938192630a85bd0160e11b83523360048401525f6024840152876044840152608060648401526084830190612ad0565b03815f335af15f9181610983575b5061094c57853d15610944573d9061090f82612a71565b9161091d6040519384612a50565b82523d5f8284013e5b8151918261094157633250574960e11b5f523360045260245ffd5b01fd5b606090610926565b939492939192916001600160e01b03191663757a42ff60e11b016109705785610684565b633250574960e11b5f523360045260245ffd5b9091508681813d83116109bc575b61099b8183612a50565b8101031261025457516001600160e01b0319811681036102545790876108f8565b503d610991565b6339e3563760e11b5f525f60045260245ffd5b6109df8261395a565b6109e88361324c565b80545f19019055610617565b5f8581525f516020613c435f395f51905f5285526040808220338352865290205460ff1615610a3957610a275f91613284565b5583610a3233613284565b55866105f6565b8463190b552b60e01b5f523360045260245260445ffd5b5060016105f1565b633250574960e11b5f525f60045260245ffd5b634e487b7160e01b5f52601160045260245ffd5b6358074db160e11b5f5260045ffd5b63449e62bb60e11b5f523360045260245ffd5b82356001600160a01b0381168103610254578152602092830192016104fa565b3461025457602036600319011261025457600435801580156110e3575b6110d157805f525f516020613c235f395f51905f5260205260405f2090604051610b0781612a1a565b604051610b1f81610b188187612f52565b0382612a50565b8152600360405191610b3f83610b388160018901612f52565b0384612a50565b60208101928352610b8360405195610b6587610b5e8160028501612f52565b0388612a50565b60408301968752610b7c6040518095819301612f52565b0383612a50565b606081019182526040928351610b998582612a50565b60018152605b60f81b6020820152915f516020613ce35f395f51905f525491610bc183612c6d565b92610bce87519485612a50565b8084525f516020613ce35f395f51905f525f9081527ff593dc57c2fc9f75d6ba12dcb5e42c89ed5ac2eefd33bd6edeb8b945d90919a8602086015b8383106110ad57505050506001945f5b8451811015610d4c57610b7c610c2f82876133b6565b518a5f525f516020613cc35f395f51905f52602052610c5e610c538b5f2083612d7e565b8b5193848092612f52565b898251610c71575b505050600101610c19565b97600292600b926020969a610cf8969c15610d05575b9187808093600895519a878c985191829101848a015e870190673d9135b2bc911d1160c11b83830152805192839101602883015e0101906a1116113b30b63ab2911d1160a91b84830152805192839101601383015e010161227d60f01b838201520301601d19810184520182612a50565b9360015f96908b89610c66565b92918780809381610d3f6001826008998b519481869251918291018484015e8101600b60fa1b838201520301601e19810184520182612a50565b9693955093505050610c87565b509193945091508496855193610d886001602087818082019a8051918291018c5e8101605d60f81b838201520301601e19810188520186612a50565b87885f9972184f03e93ff9f4daa797ed6e38ed64bf6a1f0160401b811015611086575b50806d04ee2d6d415b85acef8100000000600a92101561106b575b662386f26fc10000811015611057575b6305f5e100811015611046575b612710811015611037575b6064811015611029575b101561101e575b600a6021610e2760018c01610e1f610e1682612a71565b9c519c8d612a50565b808c52612a71565b60208b019b90601f1901368d378a01015b5f1901916f181899199a1a9b1b9c1cb0b131b232b360811b8282061a8353048015610e6657600a9091610e38565b505051925190519151928851978897747b226e616d65223a202242617365436172643a202360581b60208a015251809160358a015e61088b60f21b603591890191820152691134b6b0b3b2911d101160b11b60378201528151918290602001604183015e0160350161088b60f21b600c8201526c113734b1b5b730b6b2911d101160991b600e82015281516020819301601b83015e01600c0161088b60f21b600f82015268113937b632911d101160b91b601182015281516020819301601a83015e01600f0161088b60f21b600b82015267113134b7911d101160c11b600d82015281516020819301601583015e01600b019061088b60f21b600a8301526a01139b7b1b4b0b639911d160ad1b600c830152518092601783015e01600a01600d8101607d60f81b905203600d01601e1981018252600101610fa79082612a50565b610fb0906139c1565b9080518092602082017f646174613a6170706c69636174696f6e2f6a736f6e3b6261736536342c000000905280516020819201603d84015e8101603d81015f905203603d01601f19810183526110069083612a50565b518091602082526020820161101a91612ad0565b0390f35b600190980197610dff565b6064600291049a0199610df8565b612710600491049a0199610dee565b6305f5e100600891049a0199610de3565b662386f26fc10000601091049a0199610dd6565b6d04ee2d6d415b85acef8100000000602091049a0199610dc6565b989950899872184f03e93ff9f4daa797ed6e38ed64bf6a1f0160401b90049050600a610dab565b6001602081928c516110c381610b188189612f52565b815201920192019190610c09565b63ed15e6cf60e01b5f5260045260245ffd5b505f516020613be35f395f51905f5254811015610ade565b346102545761110936612b20565b6111128261344c565b80511561113c57610292915f525f516020613c235f395f51905f52602052600160405f2001612deb565b6360afe6af60e11b5f5260045ffd5b3461025457602036600319011261025457611164612af4565b5f516020613c835f395f51905f525460ff8160401c1615906001600160401b03811680159081611806575b60011490816117fc575b1590816117f3575b506117e45767ffffffffffffffff1981166001175f516020613c835f395f51905f5255816117b8575b506040908151926111db8385612a50565b600884526710985cd950d85c9960c21b60208501528251936111fd8486612a50565b60058552641090d0549160da1b6020860152611217613996565b61121f613996565b8051906001600160401b0382116116cd576112475f516020613ba35f395f51905f5254612d9d565b601f811161175e575b50602090601f83116001146116e15761128092915f91836115dc575b50508160011b915f199060031b1c19161790565b5f516020613ba35f395f51905f52555b83516001600160401b0381116116cd576112b75f516020613ca35f395f51905f5254612d9d565b601f8111611668575b506020601f82116001146115e75790806112f4926113249596975f926115dc5750508160011b915f199060031b1c19161790565b5f516020613ca35f395f51905f52555b61130c613996565b611314613996565b61131c613996565b61038f613996565b60015f516020613be35f395f51905f5255815161134081612a35565b825161134c8482612a50565b60018152600f60fb1b6020820152815282516113688482612a50565b60098152683330b931b0b9ba32b960b91b60208201526020820152825161138f8482612a50565b60078152667765627369746560c81b60208201528382015282516113b38482612a50565b600681526533b4ba343ab160d11b6020820152606082015282516113d78482612a50565b60088152673634b735b2b234b760c11b6020820152608082015282516113fd8482612a50565b6008815267626173656e616d6560c01b602082015260a08201525f5b600681106115a3575050815161142e81612a35565b825161143a8482612a50565b60098152682232bb32b637b832b960b91b60208201528152825161145e8482612a50565b60088152672232b9b4b3b732b960c11b6020820152602082015282516114848482612a50565b600881526726b0b935b2ba32b960c11b60208201528382015282516114a98482612a50565b60078152662337bab73232b960c91b6020820152606082015282516114ce8482612a50565b6002815261109160f21b6020820152608082015282516114ee8482612a50565b6002815261504d60f01b602082015260a08201525f5b6006811061156a57505061151457005b60207fc7f505b2f371ae2175ee4913f4499e1f2633a7b5936321eed1cdaeb6115181d29168ff0000000000000000195f516020613c835f395f51905f5254165f516020613c835f395f51905f52555160018152a1005b8061158061157a600193856133ca565b51612d40565b805460ff19168317905561159d61159782856133ca565b51613371565b01611504565b806115b96115b3600193856133ca565b51612d02565b805460ff1916831790556115d66115d082856133ca565b51613309565b01611419565b01519050878061126c565b601f198216955f516020613ca35f395f51905f525f52815f20965f5b81811061165057509161132495969791846001959410611638575b505050811b015f516020613ca35f395f51905f5255611304565b01515f1960f88460031b161c1916905586808061161e565b83830151895560019098019760209384019301611603565b5f516020613ca35f395f51905f525f526116bd907ff4bad0a69248f59680a4f2b3000328cec71a413447c96781cfe5996daa8c456e601f840160051c810191602085106116c3575b601f0160051c0190612dd5565b856112c0565b90915081906116b0565b634e487b7160e01b5f52604160045260245ffd5b90601f198316915f516020613ba35f395f51905f525f52815f20925f5b818110611746575090846001959493921061172e575b505050811b015f516020613ba35f395f51905f5255611290565b01515f1960f88460031b161c19169055868080611714565b929360206001819287860151815501950193016116fe565b5f516020613ba35f395f51905f525f526117b2907f37c58c799b6609234b945e882912ee9ad34948a1dfaa20a97485e1a7752bbf81601f850160051c810191602086106116c357601f0160051c0190612dd5565b86611250565b68ffffffffffffffffff191668010000000000000001175f516020613c835f395f51905f5255826111ca565b63f92ee8a960e01b5f5260045ffd5b905015846111a1565b303b159150611199565b83915061118f565b34610254576080366003190112610254576004356024356001600160401b03811161025457611841903690600401612bc6565b6044356001600160401b03811161025457611860903690600401612c84565b916064356001600160401b03811161025457611880903690600401612c84565b9261188a8261344c565b8051845103610a7f5761189c836138e2565b5f92825f525f516020613c235f395f51905f5260205260405f20906040516118c381612a1a565b6040516118d481610b188187612f52565b815260036040516118ec81610b188160018901612f52565b602083019081526119226040519561190b87610b5e8160028501612f52565b60408501968752610b7c6040518095819301612f52565b81606084015251602081519101209360208401948551602081519101201492831593611b96575b508215611b76575b508115611b59575b50611b13575b50505f5b8151811015611ae55761197681836133b6565b5161198182876133b6565b5160ff61198d83612d02565b541615611ac357845f525f516020613cc35f395f51905f52602052610b186119c76119bb60405f2085612d7e565b60405192838092612f52565b60208151910120815190816020840120036119e8575b505050600101611963565b85939650155f14611a655750611a567f17d57f0e8e59050d105e4ef1df4ea07969bd0f1f6c1e9188e6a1f5228dbfe48b91835f525f516020613cc35f395f51905f52602052611a42611a3d60405f2083612d7e565b612f03565b604051918291602083526020830190612ad0565b0390a25b6001928386806119dd565b7f8b490e7b0a60733bb17982917e471c69228883c096a425f2dece0819ce92e7bb91835f525f516020613cc35f395f51905f52602052611aac8261070f60405f2084612d7e565b611abb60405192839283612ede565b0390a2611a5a565b60405163531101bf60e01b8152602060048201528061074f6024820185612ad0565b8284611aed57005b7f6a4ce9bca42b76f6f9a08d3d0d5052fc9fcb67ca45c945b00c16b4ba6e2ba2995f80a2005b611b4f9294506060600391855f525f516020613c235f395f51905f526020526105a360405f2094611b45835187612deb565b5160018601612deb565b600191848061195f565b905060208151910120606082015160208151910120141587611959565b909150516020815191012060408301516020815191012014159088611951565b909250516020815191012083516020815191012014159189611949565b3461025457608036600319011261025457611bcc612af4565b611bd4612b0a565b90604435606435926001600160401b03841161025457611bfb610292943690600401612a8c565b92611c07838383612fd3565b336137ac565b34610254575f3660031901126102545761101a604051611c2e604082612a50565b60058152640352e302e360dc1b6020820152604051918291602083526020830190612ad0565b3461025457604036600319011261025457611c6d612af4565b6024359081151590818303610254576001600160a01b0316918215611ce257611cb490611c99336132bc565b845f5260205260405f209060ff801983541691151516179055565b6040519081527f17307eab39ab6107e8899845ad3d59bd9653f200f220920489ca2b5937696c3160203392a3005b82630b61174360e31b5f5260045260245ffd5b34610254576020366003190112610254576004356001600160401b0381116102545760ff611d31611d2c6020933690600401612a8c565b612d02565b54166040519015158152f35b34610254575f366003190112610254576040515f5f516020613ca35f395f51905f5254611d6981612d9d565b8084529060018116908115611dfb5750600114611d91575b61101a83611a4281850382612a50565b5f516020613ca35f395f51905f525f9081527ff4bad0a69248f59680a4f2b3000328cec71a413447c96781cfe5996daa8c456e939250905b808210611de157509091508101602001611a42611d81565b919260018160209254838588010152019101909291611dc9565b60ff191660208086019190915291151560051b84019091019150611a429050611d81565b3461025457611e2d36612b20565b611e368261344c565b805115611e5d57610292915f525f516020613c235f395f51905f5260205260405f20612deb565b6326f93fd560e21b5f5260045ffd5b34610254575f366003190112610254575f516020613bc35f395f51905f52546040516001600160a01b039091168152602090f35b3461025457611eae36612b8c565b611eb6613779565b8080611fb7575b611edf575b611ece61029292612d40565b9060ff801983541691151516179055565b5f516020613b835f395f51905f52545f92906020820181855b838110611f28575b50505050611ece906102929315611f1a575b925050611ec2565b611f2381613371565b611f12565b81811015611fa3575f516020613b835f395f51905f525f52604051611f7381610b18817f253c62edd917582c0782c672ec559f3e3964e17d45830536e5eecf0c56743b578601612f52565b602081519101208551842014611f8b57600101611ef8565b505050506102929250611ece90600193819286611f00565b634e487b7160e01b5f52603260045260245ffd5b5060ff611fc383612d40565b541615611ebd565b3461025457611fd936612b8c565b611fe1613779565b80806120bd575b611ff9575b611ece61029292612d02565b5f516020613ce35f395f51905f52545f92906020820181855b838110612042575b50505050611ece906102929315612034575b925050611fed565b61203d81613309565b61202c565b81811015611fa3575f516020613ce35f395f51905f525f5260405161208d81610b18817ff593dc57c2fc9f75d6ba12dcb5e42c89ed5ac2eefd33bd6edeb8b945d90919a88601612f52565b6020815191012085518420146120a557600101612012565b505050506102929250611ece9060019381928661201a565b5060ff6120c983612d02565b541615611fe8565b346102545760203660031901126102545760206120f46120ef612af4565b613284565b54604051908152f35b34610254575f366003190112610254577f27203bc8d62caad0b56b7f1020c3acf2cd00bb7fa7c320bee6a88ad2dbdc6509546040516001600160a01b039091168152602090f35b34610254575f3660031901126102545761215c613779565b5f516020613bc35f395f51905f5280546001600160a01b031981169091555f906001600160a01b03167f8be0079c531659141344cd1fd0a4f28419497f9722a3daafe3b4186f6b6457e08280a3005b34610254576020366003190112610254576121c4612af4565b6121cc613779565b6001600160a01b03168015612230576001600160601b0360a01b7f27203bc8d62caad0b56b7f1020c3acf2cd00bb7fa7c320bee6a88ad2dbdc65095416177f27203bc8d62caad0b56b7f1020c3acf2cd00bb7fa7c320bee6a88ad2dbdc6509555f80f35b639fabe1c160e01b5f5260045ffd5b3461025457602036600319011261025457612258612af4565b6001600160a01b03811615612272576120f460209161324c565b6322718ad960e21b5f525f60045260245ffd5b346102545760203660031901126102545760206122a36004356134b3565b6040516001600160a01b039091168152f35b34610254575f366003190112610254577f00000000000000000000000000000000000000000000000000000000000000006001600160a01b0316300361230c5760206040515f516020613c035f395f51905f528152f35b63703e46dd60e11b5f5260045ffd5b60403660031901126102545761232f612af4565b6024356001600160401b0381116102545761234e903690600401612a8c565b906001600160a01b037f0000000000000000000000000000000000000000000000000000000000000000163081149081156124b3575b5061230c57612391613779565b6040516352d1902d60e01b81526001600160a01b0382169290602081600481875afa5f918161247f575b506123d35783634c9c8ce360e01b5f5260045260245ffd5b805f516020613c035f395f51905f5285920361246d5750823b1561245b575f516020613c035f395f51905f5280546001600160a01b031916821790557fbc7cd75a20ee27fd9adebab32041f755214dbc6bffa90cc0225b39da2e5c2d3b5f80a28051156124435761029291613af6565b50503461244c57005b63b398979f60e01b5f5260045ffd5b634c9c8ce360e01b5f5260045260245ffd5b632a87526960e21b5f5260045260245ffd5b9091506020813d6020116124ab575b8161249b60209383612a50565b81010312610254575190856123bb565b3d915061248e565b5f516020613c035f395f51905f52546001600160a01b03161415905083612384565b34610254576020366003190112610254576102923360043561351b565b346102545761029261250336612b52565b9060405192612513602085612a50565b5f8452611c07838383612fd3565b3461025457602036600319011261025457602060ff611d31612541612af4565b613214565b3461025457604036600319011261025457600435612562612b0a565b61256b82613746565b6001600160a01b031690811561223057805f525f516020613c435f395f51905f5260205260405f20825f5260205260ff60405f2054166125f857805f525f516020613c435f395f51905f5260205260405f20825f5260205260405f20600160ff198254161790557ffb6810841a45a800775127fc827be97c977d8053f05328bbd47ded6e980266805f80a3005b906359f5756d60e01b5f5260045260245260445ffd5b346102545761029261261f36612b52565b91612fd3565b346102545761101a610b18611a426119bb61263f36612b20565b905f525f516020613cc35f395f51905f5260205260405f2090612d7e565b34610254576020366003190112610254576004356001600160401b0381116102545760ff611d316126946020933690600401612a8c565b612d40565b34610254576040366003190112610254576126b2612af4565b6024356126be816134b3565b33151580612785575b80612762575b61274f5781906001600160a01b0384811691167f8c5be1e5ebec7d5bd14f71427d1e84f3dd0314c0f7b2291e5b200ac8c7c3b9255f80a45f9081527f80bb2b638cc20bc4d0a60d66940f3ab4a00c1d7b313497ca82fb0b4ab00793046020526040902080546001600160a01b0319166001600160a01b03909216919091179055005b63a9fbf51f60e01b5f523360045260245ffd5b5061276c816132bc565b335f908152602091909152604090205460ff16156126cd565b506001600160a01b0381163314156126c7565b346102545760203660031901126102545760206122a36004356127ba816134b3565b506134e2565b34610254575f366003190112610254576040515f5f516020613ba35f395f51905f52546127ec81612d9d565b8084529060018116908115611dfb57506001146128135761101a83611a4281850382612a50565b5f516020613ba35f395f51905f525f9081527f37c58c799b6609234b945e882912ee9ad34948a1dfaa20a97485e1a7752bbf81939250905b80821061286357509091508101602001611a42611d81565b91926001816020925483858801015201910190929161284b565b34610254576060366003190112610254576004356024356001600160401b038111610254576128b0903690600401612a8c565b6044356001600160401b038111610254576128cf903690600401612a8c565b6128d88361344c565b60ff6128e383612d02565b541615611ac357805161293f575061293a7f17d57f0e8e59050d105e4ef1df4ea07969bd0f1f6c1e9188e6a1f5228dbfe48b91835f525f516020613cc35f395f51905f52602052611a42611a3d60405f2083612d7e565b0390a2005b7f8b490e7b0a60733bb17982917e471c69228883c096a425f2dece0819ce92e7bb91835f525f516020613cc35f395f51905f526020526129868261070f60405f2084612d7e565b61293a60405192839283612ede565b34610254576020366003190112610254576004359063ffffffff60e01b821680920361025457602091632483248360e11b81149081156129d7575b5015158152f35b6380ac58cd60e01b811491508115612a09575b81156129f8575b50836129d0565b6301ffc9a760e01b149050836129f1565b635b5e139f60e01b811491506129ea565b608081019081106001600160401b038211176116cd57604052565b60c081019081106001600160401b038211176116cd57604052565b90601f801991011681019081106001600160401b038211176116cd57604052565b6001600160401b0381116116cd57601f01601f191660200190565b81601f8201121561025457602081359101612aa682612a71565b92612ab46040519485612a50565b8284528282011161025457815f92602092838601378301015290565b805180835260209291819084018484015e5f828201840152601f01601f1916010190565b600435906001600160a01b038216820361025457565b602435906001600160a01b038216820361025457565b9060406003198301126102545760043591602435906001600160401b03821161025457612b4f91600401612a8c565b90565b6060906003190112610254576004356001600160a01b038116810361025457906024356001600160a01b0381168103610254579060443590565b604060031982011261025457600435906001600160401b03821161025457612bb691600401612a8c565b9060243580151581036102545790565b91906080838203126102545760405190612bdf82612a1a565b819380356001600160401b0381116102545782612bfd918301612a8c565b835260208101356001600160401b0381116102545782612c1e918301612a8c565b602084015260408101356001600160401b0381116102545782612c42918301612a8c565b60408401526060810135916001600160401b03831161025457606092612c689201612a8c565b910152565b6001600160401b0381116116cd5760051b60200190565b9080601f83011215610254578135612c9b81612c6d565b92612ca96040519485612a50565b81845260208085019260051b820101918383116102545760208201905b838210612cd557505050505090565b81356001600160401b03811161025457602091612cf787848094880101612a8c565b815201910190612cc6565b60208091604051928184925191829101835e81017f27203bc8d62caad0b56b7f1020c3acf2cd00bb7fa7c320bee6a88ad2dbdc650481520301902090565b60208091604051928184925191829101835e81017f27203bc8d62caad0b56b7f1020c3acf2cd00bb7fa7c320bee6a88ad2dbdc650681520301902090565b6040518151909260209284929081908501845e82019081520301902090565b90600182811c92168015612dcb575b6020831014612db757565b634e487b7160e01b5f52602260045260245ffd5b91607f1691612dac565b818110612de0575050565b5f8155600101612dd5565b91909182516001600160401b0381116116cd57612e088254612d9d565b601f8111612eae575b506020601f8211600114612e50578190612e419394955f92612e455750508160011b915f199060031b1c19161790565b9055565b015190505f8061126c565b601f19821690835f52805f20915f5b818110612e9657509583600195969710612e7e575b505050811b019055565b01515f1960f88460031b161c191690555f8080612e74565b9192602060018192868b015181550194019201612e5f565b612ed890835f5260205f20601f840160051c810191602085106116c357601f0160051c0190612dd5565b5f612e11565b9091612ef5612b4f93604084526040840190612ad0565b916020818403910152612ad0565b612f0d8154612d9d565b9081612f17575050565b81601f5f9311600114612f295750555b565b81835260208320612f4591601f0160051c810190600101612dd5565b8082528160208120915555565b5f9291815491612f6183612d9d565b8083529260018116908115612fb65750600114612f7d57505050565b5f9081526020812093945091925b838310612f9c575060209250010190565b600181602092949394548385870101520191019190612f8b565b915050602093945060ff929192191683830152151560051b010190565b9091906001600160a01b0383168015610a5857612fef83613934565b6001600160a01b03811615158061320c575b6131ae575b508261301181613934565b91331515806130d7575b506001600160a01b0383169561303590876130b95761324c565b60018154019055815f525f516020613c635f395f51905f5260205260405f20816001600160601b0360a01b825416179055857fddf252ad1be2c89b69c2b068fc378daa952ba7f163c4a11628f55a4df523b3ef5f80a4506001600160a01b03168083036130a157505050565b6364283d7b60e01b5f5260045260245260445260645ffd5b6130c28461395a565b6130cb8561324c565b80545f1901905561324c565b90915080613159575b801561312b575b156130f45783905f61301b565b836001600160a01b03831661311557637e27328960e01b5f5260045260245ffd5b63177e802f60e01b5f523360045260245260445ffd5b505f8481525f516020613c435f395f51905f526020908152604080832033845290915290205460ff166130e7565b506001600160a01b0382163314801561318c575b806130e05750336001600160a01b03613185866134e2565b16146130e0565b50613196826132bc565b335f908152602091909152604090205460ff1661316d565b835f525f516020613c435f395f51905f5260205260405f20825f5260205260ff60405f205416156131f5576131e35f91613284565b55826131ee85613284565b555f613006565b838263190b552b60e01b5f5260045260245260445ffd5b506001613001565b6001600160a01b03165f9081527f27203bc8d62caad0b56b7f1020c3acf2cd00bb7fa7c320bee6a88ad2dbdc65026020526040902090565b6001600160a01b03165f9081527f80bb2b638cc20bc4d0a60d66940f3ab4a00c1d7b313497ca82fb0b4ab00793036020526040902090565b6001600160a01b03165f9081527f27203bc8d62caad0b56b7f1020c3acf2cd00bb7fa7c320bee6a88ad2dbdc65086020526040902090565b6001600160a01b03165f9081527f80bb2b638cc20bc4d0a60d66940f3ab4a00c1d7b313497ca82fb0b4ab00793056020526040902090565b8054821015611fa3575f5260205f2001905f90565b5f516020613ce35f395f51905f5254600160401b8110156116cd5780600161334e92015f516020613ce35f395f51905f52555f516020613ce35f395f51905f526132f4565b91909161335e57612f2791612deb565b634e487b7160e01b5f525f60045260245ffd5b5f516020613b835f395f51905f5254600160401b8110156116cd5780600161334e92015f516020613b835f395f51905f52555f516020613b835f395f51905f526132f4565b8051821015611fa35760209160051b010190565b906006811015611fa35760051b0190565b6001600160a01b03168015613439575f516020613bc35f395f51905f5280546001600160a01b0319811683179091556001600160a01b03167f8be0079c531659141344cd1fd0a4f28419497f9722a3daafe3b4186f6b6457e05f80a3565b631e4fbdf760e01b5f525f60045260245ffd5b613455816134b3565b6001600160a01b031633141580613484575b61346e5750565b6339b177e560e21b5f523360045260245260445ffd5b505f8181525f516020613c435f395f51905f526020908152604080832033845290915290205460ff1615613467565b6134bc81613934565b906001600160a01b038216156134d0575090565b637e27328960e01b5f5260045260245ffd5b5f9081527f80bb2b638cc20bc4d0a60d66940f3ab4a00c1d7b313497ca82fb0b4ab007930460205260409020546001600160a01b031690565b61352481613934565b6001600160a01b03811615158061373f575b6136a1575b5061354581613934565b916001600160a01b0316801515806135d7575b505f90506001600160a01b038316806135b9575b8282525f516020613c635f395f51905f526020526040822080546001600160a01b03191690557fddf252ad1be2c89b69c2b068fc378daa952ba7f163c4a11628f55a4df523b3ef8280a490565b6135c28361395a565b6135cb8461324c565b8219815401905561356c565b80613651575b8015613625575b156135ef5780613558565b6001600160a01b0383166136105750637e27328960e01b5f5260045260245ffd5b63177e802f60e01b5f5260045260245260445ffd5b50815f525f516020613c435f395f51905f5260205260405f20815f5260205260ff60405f2054166135e4565b506001600160a01b03831681148015613684575b806135dd5750806001600160a01b0361367d846134e2565b16146135dd565b5061368e836132bc565b815f5260205260ff60405f205416613665565b815f525f516020613c435f395f51905f5260205260405f205f805260205260ff60405f20541615613728576136d65f91613284565b555f8080527f27203bc8d62caad0b56b7f1020c3acf2cd00bb7fa7c320bee6a88ad2dbdc65086020527f3f536cd94ca3b059a573357e64239a81b9cb056b2b004607d5376ad704e0c40182905561353b565b5063190b552b60e01b5f525f60045260245260445ffd5b505f613536565b61374f816134b3565b336001600160a01b03909116036137635750565b632c52f11160e11b5f523360045260245260445ffd5b5f516020613bc35f395f51905f52546001600160a01b0316330361379957565b63118cdaa760e01b5f523360045260245ffd5b823b6137ba575b5050505050565b604051630a85bd0160e11b81526001600160a01b039182166004820152918116602483015260448201939093526080606482015291169160209082908190613806906084830190612ad0565b03815f865af15f918161389d575b5061386957503d15613862573d61382a81612a71565b906138386040519283612a50565b81523d5f602083013e5b8051908161385d5782633250574960e11b5f5260045260245ffd5b602001fd5b6060613842565b6001600160e01b03191663757a42ff60e11b0161388b57505f808080806137b3565b633250574960e11b5f5260045260245ffd5b9091506020813d6020116138da575b816138b960209383612a50565b8101031261025457516001600160e01b03198116810361025457905f613814565b3d91506138ac565b6020810151511561113c5780515115611e5d5760400160ff6139048251612d40565b54161561390e5750565b5160405163341ad1c160e11b81526020600482015290819061074f906024830190612ad0565b5f9081525f516020613c635f395f51905f5260205260409020546001600160a01b031690565b5f527f80bb2b638cc20bc4d0a60d66940f3ab4a00c1d7b313497ca82fb0b4ab007930460205260405f206001600160601b0360a01b8154169055565b60ff5f516020613c835f395f51905f525460401c16156139b257565b631afcd79f60e31b5f5260045ffd5b90815115613ae057815160028101809111610a6b5760039004600281901b91906001600160fe1b03811603610a6b57604051917f4142434445464748494a4b4c4d4e4f505152535455565758595a616263646566601f527f6768696a6b6c6d6e6f707172737475767778797a303132333435363738392b2f603f52602083018480518101602081018051915f82525b808910613aa45750602095969750906003929152510680600114613a8f57600214613a82575b50808452830101604052565b603d905f1901535f613a76565b50603d90815f1982015360011901535f613a76565b939760036004910198603f8a51818160121c165183538181600c1c16516001840153818160061c16516002840153165160038201530193613a50565b9050604051613af0602082612a50565b5f815290565b905f8091602081519101845af48080613b6f575b15613b2a5750506040513d81523d5f602083013e60203d82010160405290565b15613b4f57639996b31560e01b5f9081526001600160a01b0391909116600452602490fd5b3d15613b60576040513d5f823e3d90fd5b63d6bda27560e01b5f5260045ffd5b503d151580613b0a5750813b1515613b0a56fe27203bc8d62caad0b56b7f1020c3acf2cd00bb7fa7c320bee6a88ad2dbdc650780bb2b638cc20bc4d0a60d66940f3ab4a00c1d7b313497ca82fb0b4ab00793009016d09d72d40fdae2fd8ceac6b6234c7706214fd39c1cd1e609a0528c19930027203bc8d62caad0b56b7f1020c3acf2cd00bb7fa7c320bee6a88ad2dbdc6500360894a13ba1a3210667c828492db98dca3e2076cc3735a920a3ca505d382bbc27203bc8d62caad0b56b7f1020c3acf2cd00bb7fa7c320bee6a88ad2dbdc650127203bc8d62caad0b56b7f1020c3acf2cd00bb7fa7c320bee6a88ad2dbdc650a80bb2b638cc20bc4d0a60d66940f3ab4a00c1d7b313497ca82fb0b4ab0079302f0c57e16840df040f15088dc2f81fe391c3923bec73e23a9662efc9c229c6a0080bb2b638cc20bc4d0a60d66940f3ab4a00c1d7b313497ca82fb0b4ab007930127203bc8d62caad0b56b7f1020c3acf2cd00bb7fa7c320bee6a88ad2dbdc650327203bc8d62caad0b56b7f1020c3acf2cd00bb7fa7c320bee6a88ad2dbdc6505a26469706673582212208d566f8cc3ceb8f3762547d55c7403e2f9a8024bc2e9277824556816cf9e59c864736f6c634300081e0033f0c57e16840df040f15088dc2f81fe391c3923bec73e23a9662efc9c229c6a00","linkReferences":{}},"methodIdentifiers":{"UPGRADE_INTERFACE_VERSION()":"ad3cb1cc","approve(address,uint256)":"095ea7b3","balanceOf(address)":"70a08231","burn(uint256)":"42966c68","editBaseCard(uint256,(string,string,string,string),string[],string[])":"c13d8158","getApproved(uint256)":"081812fc","getSocial(uint256,string)":"171b9219","grantTokenDelegate(uint256,address)":"30b8bb30","hasMinted(address)":"38e21cce","initialize(address)":"c4d66de8","isAllowedRole(string)":"0c5aa807","isAllowedSocialKey(string)":"97ac747a","isApprovedForAll(address,address)":"e985e9c5","isTokenDelegate(uint256,address)":"d50cbeab","isTokenOperator(uint256,address)":"fddfdb5f","linkSocial(uint256,string,string)":"0327fff6","migrationAdmin()":"74df2558","mintBaseCard((string,string,string,string),string[],string[],address[])":"c96291ed","name()":"06fdde03","owner()":"8da5cb5b","ownerOf(uint256)":"6352211e","proxiableUUID()":"52d1902d","renounceOwnership()":"715018a6","revokeTokenDelegate(uint256,address)":"f35894d7","safeTransferFrom(address,address,uint256)":"42842e0e","safeTransferFrom(address,address,uint256,bytes)":"b88d4fde","setAllowedRole(string,bool)":"8c37dda5","setAllowedSocialKey(string,bool)":"83fda672","setApprovalForAll(address,bool)":"a22cb465","setMigrationAdmin(address)":"70ae07a1","supportsInterface(bytes4)":"01ffc9a7","symbol()":"95d89b41","tokenIdOf(address)":"773c02d4","tokenURI(uint256)":"c87b56dd","transferFrom(address,address,uint256)":"23b872dd","transferOwnership(address)":"f2fde38b","updateBio(uint256,string)":"f99c27c9","updateImageURI(uint256,string)":"8e5e6a28","updateNickname(uint256,string)":"c68905b9","upgradeToAndCall(address,bytes)":"4f1ef286"},"storageLayout":{"storage":[],"types":{}},"id":75}