{"abi":[{"type":"constructor","inputs":[],"stateMutability":"nonpayable"},{"type":"function","name":"UPGRADE_INTERFACE_VERSION","inputs":[],"outputs":[{"name":"","type":"string","internalType":"string"}],"stateMutability":"view"},{"type":"function","name":"approve","inputs":[{"name":"to","type":"address","internalType":"address"},{"name":"tokenId","type":"uint256","internalType":"uint256"}],"outputs":[],"stateMutability":"nonpayable"},{"type":"function","name":"balanceOf","inputs":[{"name":"owner","type":"address","internalType":"address"}],"outputs":[{"name":"","type":"uint256","internalType":"uint256"}],"stateMutability":"view"},{"type":"function","name":"burn","inputs":[{"name":"tokenId","type":"uint256","internalType":"uint256"}],"outputs":[],"stateMutability":"nonpayable"},{"type":"function","name":"editBaseCard","inputs":[{"name":"_tokenId","type":"uint256","internalType":"uint256"},{"name":"_newCardData","type":"tuple","internalType":"struct IBaseCard.CardData","components":[{"name":"imageURI","type":"string","internalType":"string"},{"name":"nickname","type":"string","internalType":"string"},{"name":"role","type":"string","internalType":"string"},{"name":"bio","type":"string","internalType":"string"}]},{"name":"_socialKeys","type":"string[]","internalType":"string[]"},{"name":"_socialValues","type":"string[]","internalType":"string[]"}],"outputs":[],"stateMutability":"nonpayable"},{"type":"function","name":"getApproved","inputs":[{"name":"tokenId","type":"uint256","internalType":"uint256"}],"outputs":[{"name":"","type":"address","internalType":"address"}],"stateMutability":"view"},{"type":"function","name":"getSocial","inputs":[{"name":"_tokenId","type":"uint256","internalType":"uint256"},{"name":"_key","type":"string","internalType":"string"}],"outputs":[{"name":"","type":"string","internalType":"string"}],"stateMutability":"view"},{"type":"function","name":"hasMinted","inputs":[{"name":"_address","type":"address","internalType":"address"}],"outputs":[{"name":"","type":"bool","internalType":"bool"}],"stateMutability":"view"},{"type":"function","name":"initialize","inputs":[{"name":"initialOwner","type":"address","internalType":"address"}],"outputs":[],"stateMutability":"nonpayable"},{"type":"function","name":"isAllowedSocialKey","inputs":[{"name":"_key","type":"string","internalType":"string"}],"outputs":[{"name":"","type":"bool","internalType":"bool"}],"stateMutability":"view"},{"type":"function","name":"isApprovedForAll","inputs":[{"name":"owner","type":"address","internalType":"address"},{"name":"operator","type":"address","internalType":"address"}],"outputs":[{"name":"","type":"bool","internalType":"bool"}],"stateMutability":"view"},{"type":"function","name":"linkSocial","inputs":[{"name":"_tokenId","type":"uint256","internalType":"uint256"},{"name":"_key","type":"string","internalType":"string"},{"name":"_value","type":"string","internalType":"string"}],"outputs":[],"stateMutability":"nonpayable"},{"type":"function","name":"migrateBaseCardFromTestnet","inputs":[{"name":"_recipient","type":"address","internalType":"address"},{"name":"_initialCardData","type":"tuple","internalType":"struct IBaseCard.CardData","components":[{"name":"imageURI","type":"string","internalType":"string"},{"name":"nickname","type":"string","internalType":"string"},{"name":"role","type":"string","internalType":"string"},{"name":"bio","type":"string","internalType":"string"}]},{"name":"_socialKeys","type":"string[]","internalType":"string[]"},{"name":"_socialValues","type":"string[]","internalType":"string[]"}],"outputs":[],"stateMutability":"nonpayable"},{"type":"function","name":"migrationAdmin","inputs":[],"outputs":[{"name":"","type":"address","internalType":"address"}],"stateMutability":"view"},{"type":"function","name":"mintBaseCard","inputs":[{"name":"_initialCardData","type":"tuple","internalType":"struct IBaseCard.CardData","components":[{"name":"imageURI","type":"string","internalType":"string"},{"name":"nickname","type":"string","internalType":"string"},{"name":"role","type":"string","internalType":"string"},{"name":"bio","type":"string","internalType":"string"}]},{"name":"_socialKeys","type":"string[]","internalType":"string[]"},{"name":"_socialValues","type":"string[]","internalType":"string[]"}],"outputs":[],"stateMutability":"nonpayable"},{"type":"function","name":"name","inputs":[],"outputs":[{"name":"","type":"string","internalType":"string"}],"stateMutability":"view"},{"type":"function","name":"owner","inputs":[],"outputs":[{"name":"","type":"address","internalType":"address"}],"stateMutability":"view"},{"type":"function","name":"ownerOf","inputs":[{"name":"tokenId","type":"uint256","internalType":"uint256"}],"outputs":[{"name":"","type":"address","internalType":"address"}],"stateMutability":"view"},{"type":"function","name":"proxiableUUID","inputs":[],"outputs":[{"name":"","type":"bytes32","internalType":"bytes32"}],"stateMutability":"view"},{"type":"function","name":"renounceOwnership","inputs":[],"outputs":[],"stateMutability":"nonpayable"},{"type":"function","name":"safeTransferFrom","inputs":[{"name":"from","type":"address","internalType":"address"},{"name":"to","type":"address","internalType":"address"},{"name":"tokenId","type":"uint256","internalType":"uint256"}],"outputs":[],"stateMutability":"nonpayable"},{"type":"function","name":"safeTransferFrom","inputs":[{"name":"from","type":"address","internalType":"address"},{"name":"to","type":"address","internalType":"address"},{"name":"tokenId","type":"uint256","internalType":"uint256"},{"name":"data","type":"bytes","internalType":"bytes"}],"outputs":[],"stateMutability":"nonpayable"},{"type":"function","name":"setAllowedSocialKey","inputs":[{"name":"_key","type":"string","internalType":"string"},{"name":"_isAllowed","type":"bool","internalType":"bool"}],"outputs":[],"stateMutability":"nonpayable"},{"type":"function","name":"setApprovalForAll","inputs":[{"name":"operator","type":"address","internalType":"address"},{"name":"approved","type":"bool","internalType":"bool"}],"outputs":[],"stateMutability":"nonpayable"},{"type":"function","name":"setMigrationAdmin","inputs":[{"name":"_migrationAdmin","type":"address","internalType":"address"}],"outputs":[],"stateMutability":"nonpayable"},{"type":"function","name":"supportsInterface","inputs":[{"name":"interfaceId","type":"bytes4","internalType":"bytes4"}],"outputs":[{"name":"","type":"bool","internalType":"bool"}],"stateMutability":"view"},{"type":"function","name":"symbol","inputs":[],"outputs":[{"name":"","type":"string","internalType":"string"}],"stateMutability":"view"},{"type":"function","name":"tokenIdOf","inputs":[{"name":"_owner","type":"address","internalType":"address"}],"outputs":[{"name":"","type":"uint256","internalType":"uint256"}],"stateMutability":"view"},{"type":"function","name":"tokenURI","inputs":[{"name":"_tokenId","type":"uint256","internalType":"uint256"}],"outputs":[{"name":"","type":"string","internalType":"string"}],"stateMutability":"view"},{"type":"function","name":"transferFrom","inputs":[{"name":"from","type":"address","internalType":"address"},{"name":"to","type":"address","internalType":"address"},{"name":"tokenId","type":"uint256","internalType":"uint256"}],"outputs":[],"stateMutability":"nonpayable"},{"type":"function","name":"transferOwnership","inputs":[{"name":"newOwner","type":"address","internalType":"address"}],"outputs":[],"stateMutability":"nonpayable"},{"type":"function","name":"updateBio","inputs":[{"name":"_tokenId","type":"uint256","internalType":"uint256"},{"name":"_newBio","type":"string","internalType":"string"}],"outputs":[],"stateMutability":"nonpayable"},{"type":"function","name":"updateImageURI","inputs":[{"name":"_tokenId","type":"uint256","internalType":"uint256"},{"name":"_newImageUri","type":"string","internalType":"string"}],"outputs":[],"stateMutability":"nonpayable"},{"type":"function","name":"updateNickname","inputs":[{"name":"_tokenId","type":"uint256","internalType":"uint256"},{"name":"_newNickname","type":"string","internalType":"string"}],"outputs":[],"stateMutability":"nonpayable"},{"type":"function","name":"upgradeToAndCall","inputs":[{"name":"newImplementation","type":"address","internalType":"address"},{"name":"data","type":"bytes","internalType":"bytes"}],"outputs":[],"stateMutability":"payable"},{"type":"event","name":"Approval","inputs":[{"name":"owner","type":"address","indexed":true,"internalType":"address"},{"name":"approved","type":"address","indexed":true,"internalType":"address"},{"name":"tokenId","type":"uint256","indexed":true,"internalType":"uint256"}],"anonymous":false},{"type":"event","name":"ApprovalForAll","inputs":[{"name":"owner","type":"address","indexed":true,"internalType":"address"},{"name":"operator","type":"address","indexed":true,"internalType":"address"},{"name":"approved","type":"bool","indexed":false,"internalType":"bool"}],"anonymous":false},{"type":"event","name":"BaseCardEdited","inputs":[{"name":"tokenId","type":"uint256","indexed":true,"internalType":"uint256"}],"anonymous":false},{"type":"event","name":"BatchMetadataUpdate","inputs":[{"name":"_fromTokenId","type":"uint256","indexed":false,"internalType":"uint256"},{"name":"_toTokenId","type":"uint256","indexed":false,"internalType":"uint256"}],"anonymous":false},{"type":"event","name":"Initialized","inputs":[{"name":"version","type":"uint64","indexed":false,"internalType":"uint64"}],"anonymous":false},{"type":"event","name":"MetadataUpdate","inputs":[{"name":"_tokenId","type":"uint256","indexed":false,"internalType":"uint256"}],"anonymous":false},{"type":"event","name":"MintBaseCard","inputs":[{"name":"user","type":"address","indexed":true,"internalType":"address"},{"name":"tokenId","type":"uint256","indexed":true,"internalType":"uint256"}],"anonymous":false},{"type":"event","name":"OwnershipTransferred","inputs":[{"name":"previousOwner","type":"address","indexed":true,"internalType":"address"},{"name":"newOwner","type":"address","indexed":true,"internalType":"address"}],"anonymous":false},{"type":"event","name":"SocialLinked","inputs":[{"name":"tokenId","type":"uint256","indexed":true,"internalType":"uint256"},{"name":"key","type":"string","indexed":false,"internalType":"string"},{"name":"value","type":"string","indexed":false,"internalType":"string"}],"anonymous":false},{"type":"event","name":"Transfer","inputs":[{"name":"from","type":"address","indexed":true,"internalType":"address"},{"name":"to","type":"address","indexed":true,"internalType":"address"},{"name":"tokenId","type":"uint256","indexed":true,"internalType":"uint256"}],"anonymous":false},{"type":"event","name":"Upgraded","inputs":[{"name":"implementation","type":"address","indexed":true,"internalType":"address"}],"anonymous":false},{"type":"error","name":"AddressEmptyCode","inputs":[{"name":"target","type":"address","internalType":"address"}]},{"type":"error","name":"AddressZero","inputs":[]},{"type":"error","name":"AlreadyMinted","inputs":[{"name":"user","type":"address","internalType":"address"}]},{"type":"error","name":"ERC1967InvalidImplementation","inputs":[{"name":"implementation","type":"address","internalType":"address"}]},{"type":"error","name":"ERC1967NonPayable","inputs":[]},{"type":"error","name":"ERC721IncorrectOwner","inputs":[{"name":"sender","type":"address","internalType":"address"},{"name":"tokenId","type":"uint256","internalType":"uint256"},{"name":"owner","type":"address","internalType":"address"}]},{"type":"error","name":"ERC721InsufficientApproval","inputs":[{"name":"operator","type":"address","internalType":"address"},{"name":"tokenId","type":"uint256","internalType":"uint256"}]},{"type":"error","name":"ERC721InvalidApprover","inputs":[{"name":"approver","type":"address","internalType":"address"}]},{"type":"error","name":"ERC721InvalidOperator","inputs":[{"name":"operator","type":"address","internalType":"address"}]},{"type":"error","name":"ERC721InvalidOwner","inputs":[{"name":"owner","type":"address","internalType":"address"}]},{"type":"error","name":"ERC721InvalidReceiver","inputs":[{"name":"receiver","type":"address","internalType":"address"}]},{"type":"error","name":"ERC721InvalidSender","inputs":[{"name":"sender","type":"address","internalType":"address"}]},{"type":"error","name":"ERC721NonexistentToken","inputs":[{"name":"tokenId","type":"uint256","internalType":"uint256"}]},{"type":"error","name":"FailedCall","inputs":[]},{"type":"error","name":"InvalidInitialization","inputs":[]},{"type":"error","name":"InvalidTokenId","inputs":[{"name":"tokenId","type":"uint256","internalType":"uint256"}]},{"type":"error","name":"MismatchedSocialKeysAndValues","inputs":[]},{"type":"error","name":"NotAllowedSocialKey","inputs":[{"name":"key","type":"string","internalType":"string"}]},{"type":"error","name":"NotInitializing","inputs":[]},{"type":"error","name":"NotMigrationAdmin","inputs":[{"name":"caller","type":"address","internalType":"address"}]},{"type":"error","name":"NotTokenOwner","inputs":[{"name":"caller","type":"address","internalType":"address"},{"name":"tokenId","type":"uint256","internalType":"uint256"}]},{"type":"error","name":"OwnableInvalidOwner","inputs":[{"name":"owner","type":"address","internalType":"address"}]},{"type":"error","name":"OwnableUnauthorizedAccount","inputs":[{"name":"account","type":"address","internalType":"address"}]},{"type":"error","name":"UUPSUnauthorizedCallContext","inputs":[]},{"type":"error","name":"UUPSUnsupportedProxiableUUID","inputs":[{"name":"slot","type":"bytes32","internalType":"bytes32"}]}],"bytecode":{"object":"0x60a06040523073ffffffffffffffffffffffffffffffffffffffff1660809073ffffffffffffffffffffffffffffffffffffffff16815250348015610042575f5ffd5b5061005161005660201b60201c565b6101d1565b5f61006561015460201b60201c565b9050805f0160089054906101000a900460ff16156100af576040517ff92ee8a900000000000000000000000000000000000000000000000000000000815260040160405180910390fd5b67ffffffffffffffff8016815f015f9054906101000a900467ffffffffffffffff1667ffffffffffffffff16146101515767ffffffffffffffff815f015f6101000a81548167ffffffffffffffff021916908367ffffffffffffffff1602179055507fc7f505b2f371ae2175ee4913f4499e1f2633a7b5936321eed1cdaeb6115181d267ffffffffffffffff60405161014891906101b8565b60405180910390a15b50565b5f5f61016461016d60201b60201c565b90508091505090565b5f7ff0c57e16840df040f15088dc2f81fe391c3923bec73e23a9662efc9c229c6a005f1b905090565b5f67ffffffffffffffff82169050919050565b6101b281610196565b82525050565b5f6020820190506101cb5f8301846101a9565b92915050565b608051615a3a6101f75f395f8181612c2a01528181612c7f0152612e390152615a3a5ff3fe608060405260043610610203575f3560e01c806374df255811610117578063ad3cb1cc1161009f578063c68905b91161006e578063c68905b914610745578063c87b56dd1461076d578063e985e9c5146107a9578063f2fde38b146107e5578063f99c27c91461080d57610203565b8063ad3cb1cc146106a3578063b88d4fde146106cd578063c13d8158146106f5578063c4d66de81461071d57610203565b80638da5cb5b116100e65780638da5cb5b146105c35780638e5e6a28146105ed57806395d89b411461061557806397ac747a1461063f578063a22cb4651461067b57610203565b806374df25581461050d578063773c02d41461053757806383fda67214610573578063876e1bc61461059b57610203565b806338e21cce1161019a57806352d1902d1161016957806352d1902d1461042d5780636352211e1461045757806370a082311461049357806370ae07a1146104cf578063715018a6146104f757610203565b806338e21cce1461038557806342842e0e146103c157806342966c68146103e95780634f1ef2861461041157610203565b8063081812fc116101d6578063081812fc146102bd578063095ea7b3146102f9578063171b92191461032157806323b872dd1461035d57610203565b806301debcc71461020757806301ffc9a71461022f5780630327fff61461026b57806306fdde0314610293575b5f5ffd5b348015610212575f5ffd5b5061022d60048036038101906102289190614523565b610835565b005b34801561023a575f5ffd5b5061025560048036038101906102509190614630565b610c2d565b6040516102629190614675565b60405180910390f35b348015610276575f5ffd5b50610291600480360381019061028c91906146c1565b610c3e565b005b34801561029e575f5ffd5b506102a7610d3f565b6040516102b491906147a9565b60405180910390f35b3480156102c8575f5ffd5b506102e360048036038101906102de91906147c9565b610ddc565b6040516102f09190614803565b60405180910390f35b348015610304575f5ffd5b5061031f600480360381019061031a919061481c565b610df7565b005b34801561032c575f5ffd5b506103476004803603810190610342919061485a565b610e0d565b60405161035491906147a9565b60405180910390f35b348015610368575f5ffd5b50610383600480360381019061037e91906148b4565b610ed9565b005b348015610390575f5ffd5b506103ab60048036038101906103a69190614904565b610fd8565b6040516103b89190614675565b60405180910390f35b3480156103cc575f5ffd5b506103e760048036038101906103e291906148b4565b611038565b005b3480156103f4575f5ffd5b5061040f600480360381019061040a91906147c9565b611057565b005b61042b600480360381019061042691906149cd565b61106d565b005b348015610438575f5ffd5b5061044161108c565b60405161044e9190614a3f565b60405180910390f35b348015610462575f5ffd5b5061047d600480360381019061047891906147c9565b6110bd565b60405161048a9190614803565b60405180910390f35b34801561049e575f5ffd5b506104b960048036038101906104b49190614904565b6110ce565b6040516104c69190614a67565b60405180910390f35b3480156104da575f5ffd5b506104f560048036038101906104f09190614904565b611192565b005b348015610502575f5ffd5b5061050b611250565b005b348015610518575f5ffd5b50610521611263565b60405161052e9190614803565b60405180910390f35b348015610542575f5ffd5b5061055d60048036038101906105589190614904565b611299565b60405161056a9190614a67565b60405180910390f35b34801561057e575f5ffd5b5061059960048036038101906105949190614aaa565b6112ed565b005b3480156105a6575f5ffd5b506105c160048036038101906105bc9190614b04565b611423565b005b3480156105ce575f5ffd5b506105d76117ad565b6040516105e49190614803565b60405180910390f35b3480156105f8575f5ffd5b50610613600480360381019061060e919061485a565b6117e2565b005b348015610620575f5ffd5b50610629611820565b60405161063691906147a9565b60405180910390f35b34801561064a575f5ffd5b5061066560048036038101906106609190614ba8565b6118be565b6040516106729190614675565b60405180910390f35b348015610686575f5ffd5b506106a1600480360381019061069c9190614bef565b6118ff565b005b3480156106ae575f5ffd5b506106b7611915565b6040516106c491906147a9565b60405180910390f35b3480156106d8575f5ffd5b506106f360048036038101906106ee9190614c2d565b61194e565b005b348015610700575f5ffd5b5061071b60048036038101906107169190614cad565b611973565b005b348015610728575f5ffd5b50610743600480360381019061073e9190614904565b611ba4565b005b348015610750575f5ffd5b5061076b6004803603810190610766919061485a565b611fe3565b005b348015610778575f5ffd5b50610793600480360381019061078e91906147c9565b612022565b6040516107a091906147a9565b60405180910390f35b3480156107b4575f5ffd5b506107cf60048036038101906107ca9190614d65565b6125dd565b6040516107dc9190614675565b60405180910390f35b3480156107f0575f5ffd5b5061080b60048036038101906108069190614904565b612679565b005b348015610818575f5ffd5b50610833600480360381019061082e919061485a565b6126fd565b005b61083d61273c565b5f6108466127dd565b90505f73ffffffffffffffffffffffffffffffffffffffff168573ffffffffffffffffffffffffffffffffffffffff16036108ad576040517f9fabe1c100000000000000000000000000000000000000000000000000000000815260040160405180910390fd5b806002015f8673ffffffffffffffffffffffffffffffffffffffff1673ffffffffffffffffffffffffffffffffffffffff1681526020019081526020015f205f9054906101000a900460ff161561093b57846040517f893cc5760000000000000000000000000000000000000000000000000000000081526004016109329190614803565b60405180910390fd5b8151835114610976576040517fb00e9b6200000000000000000000000000000000000000000000000000000000815260040160405180910390fd5b6001816002015f8773ffffffffffffffffffffffffffffffffffffffff1673ffffffffffffffffffffffffffffffffffffffff1681526020019081526020015f205f6101000a81548160ff0219169083151502179055505f815f015f8154809291906109e190614dd0565b91905055905084826001015f8381526020019081526020015f205f820151815f019081610a0e9190615014565b506020820151816001019081610a249190615014565b506040820151816002019081610a3a9190615014565b506060820151816003019081610a509190615014565b50905050610a5e8682612804565b80826007015f8873ffffffffffffffffffffffffffffffffffffffff1673ffffffffffffffffffffffffffffffffffffffff1681526020019081526020015f20819055505f5f90505b8451811015610be0575f858281518110610ac457610ac36150e3565b5b602002602001015190505f858381518110610ae257610ae16150e3565b5b602002602001015190508460040182604051610afe919061514a565b90815260200160405180910390205f9054906101000a900460ff16610b5a57816040517f531101bf000000000000000000000000000000000000000000000000000000008152600401610b5191906147a9565b60405180910390fd5b80856003015f8681526020019081526020015f2083604051610b7c919061514a565b90815260200160405180910390209081610b969190615014565b50837f8b490e7b0a60733bb17982917e471c69228883c096a425f2dece0819ce92e7bb8383604051610bc9929190615160565b60405180910390a250508080600101915050610aa7565b50808673ffffffffffffffffffffffffffffffffffffffff167f53f3e9a832a8c21b2c8955fbf6dc0bd4b59bb2c4306d5a81eaa517ccbf6d9f7360405160405180910390a3505050505050565b5f610c3782612821565b9050919050565b82610c4881612881565b5f610c516127dd565b90508060040184604051610c65919061514a565b90815260200160405180910390205f9054906101000a900460ff16610cc157836040517f531101bf000000000000000000000000000000000000000000000000000000008152600401610cb891906147a9565b60405180910390fd5b82816003015f8781526020019081526020015f2085604051610ce3919061514a565b90815260200160405180910390209081610cfd9190615014565b50847f8b490e7b0a60733bb17982917e471c69228883c096a425f2dece0819ce92e7bb8585604051610d30929190615160565b60405180910390a25050505050565b60605f610d4a6128fe565b9050805f018054610d5a90614e44565b80601f0160208091040260200160405190810160405280929190818152602001828054610d8690614e44565b8015610dd15780601f10610da857610100808354040283529160200191610dd1565b820191905f5260205f20905b815481529060010190602001808311610db457829003601f168201915b505050505091505090565b5f610de682612925565b50610df0826129ab565b9050919050565b610e098282610e046129f2565b6129f9565b5050565b60605f610e186127dd565b9050806003015f8581526020019081526020015f2083604051610e3b919061514a565b90815260200160405180910390208054610e5490614e44565b80601f0160208091040260200160405190810160405280929190818152602001828054610e8090614e44565b8015610ecb5780601f10610ea257610100808354040283529160200191610ecb565b820191905f5260205f20905b815481529060010190602001808311610eae57829003601f168201915b505050505091505092915050565b5f73ffffffffffffffffffffffffffffffffffffffff168273ffffffffffffffffffffffffffffffffffffffff1603610f49575f6040517f64a0ae92000000000000000000000000000000000000000000000000000000008152600401610f409190614803565b60405180910390fd5b5f610f5c8383610f576129f2565b612a0b565b90508373ffffffffffffffffffffffffffffffffffffffff168173ffffffffffffffffffffffffffffffffffffffff1614610fd2578382826040517f64283d7b000000000000000000000000000000000000000000000000000000008152600401610fc993929190615195565b60405180910390fd5b50505050565b5f5f610fe26127dd565b9050806002015f8473ffffffffffffffffffffffffffffffffffffffff1673ffffffffffffffffffffffffffffffffffffffff1681526020019081526020015f205f9054906101000a900460ff16915050919050565b61105283838360405180602001604052805f81525061194e565b505050565b6110695f826110646129f2565b612a0b565b5050565b611075612c28565b61107e82612d0e565b6110888282612d19565b5050565b5f611095612e37565b7f360894a13ba1a3210667c828492db98dca3e2076cc3735a920a3ca505d382bbc5f1b905090565b5f6110c782612925565b9050919050565b5f5f6110d86128fe565b90505f73ffffffffffffffffffffffffffffffffffffffff168373ffffffffffffffffffffffffffffffffffffffff160361114a575f6040517f89c62b640000000000000000000000000000000000000000000000000000000081526004016111419190614803565b60405180910390fd5b806003015f8473ffffffffffffffffffffffffffffffffffffffff1673ffffffffffffffffffffffffffffffffffffffff1681526020019081526020015f2054915050919050565b61119a612ebe565b5f73ffffffffffffffffffffffffffffffffffffffff168173ffffffffffffffffffffffffffffffffffffffff16036111ff576040517f9fabe1c100000000000000000000000000000000000000000000000000000000815260040160405180910390fd5b5f6112086127dd565b905081816005015f6101000a81548173ffffffffffffffffffffffffffffffffffffffff021916908373ffffffffffffffffffffffffffffffffffffffff1602179055505050565b611258612ebe565b6112615f612f45565b565b5f5f61126d6127dd565b9050806005015f9054906101000a900473ffffffffffffffffffffffffffffffffffffffff1691505090565b5f5f6112a36127dd565b9050806007015f8473ffffffffffffffffffffffffffffffffffffffff1673ffffffffffffffffffffffffffffffffffffffff1681526020019081526020015f2054915050919050565b6112f5612ebe565b5f6112fe6127dd565b90508180156113375750806004018360405161131a919061514a565b90815260200160405180910390205f9054906101000a900460ff16155b156113e7575f5f90505f5f90505b82600601805490508110156113aa578480519060200120836006018281548110611372576113716150e3565b5b905f5260205f20016040516113879190615266565b60405180910390200361139d57600191506113aa565b8080600101915050611345565b50806113e5578160060184908060018154018082558091505060019003905f5260205f20015f9091909190915090816113e39190615014565b505b505b8181600401846040516113fa919061514a565b90815260200160405180910390205f6101000a81548160ff021916908315150217905550505050565b5f61142c6127dd565b9050806002015f3373ffffffffffffffffffffffffffffffffffffffff1673ffffffffffffffffffffffffffffffffffffffff1681526020019081526020015f205f9054906101000a900460ff16156114bc57336040517f893cc5760000000000000000000000000000000000000000000000000000000081526004016114b39190614803565b60405180910390fd5b81518351146114f7576040517fb00e9b6200000000000000000000000000000000000000000000000000000000815260040160405180910390fd5b6001816002015f3373ffffffffffffffffffffffffffffffffffffffff1673ffffffffffffffffffffffffffffffffffffffff1681526020019081526020015f205f6101000a81548160ff0219169083151502179055505f815f015f81548092919061156290614dd0565b91905055905084826001015f8381526020019081526020015f205f820151815f01908161158f9190615014565b5060208201518160010190816115a59190615014565b5060408201518160020190816115bb9190615014565b5060608201518160030190816115d19190615014565b509050506115df3382612804565b80826007015f3373ffffffffffffffffffffffffffffffffffffffff1673ffffffffffffffffffffffffffffffffffffffff1681526020019081526020015f20819055505f5f90505b8451811015611761575f858281518110611645576116446150e3565b5b602002602001015190505f858381518110611663576116626150e3565b5b60200260200101519050846004018260405161167f919061514a565b90815260200160405180910390205f9054906101000a900460ff166116db57816040517f531101bf0000000000000000000000000000000000000000000000000000000081526004016116d291906147a9565b60405180910390fd5b80856003015f8681526020019081526020015f20836040516116fd919061514a565b908152602001604051809103902090816117179190615014565b50837f8b490e7b0a60733bb17982917e471c69228883c096a425f2dece0819ce92e7bb838360405161174a929190615160565b60405180910390a250508080600101915050611628565b50803373ffffffffffffffffffffffffffffffffffffffff167f53f3e9a832a8c21b2c8955fbf6dc0bd4b59bb2c4306d5a81eaa517ccbf6d9f7360405160405180910390a35050505050565b5f5f6117b7613016565b9050805f015f9054906101000a900473ffffffffffffffffffffffffffffffffffffffff1691505090565b816117ec81612881565b5f6117f56127dd565b905082816001015f8681526020019081526020015f205f0190816118199190615014565b5050505050565b60605f61182b6128fe565b905080600101805461183c90614e44565b80601f016020809104026020016040519081016040528092919081815260200182805461186890614e44565b80156118b35780601f1061188a576101008083540402835291602001916118b3565b820191905f5260205f20905b81548152906001019060200180831161189657829003601f168201915b505050505091505090565b5f5f6118c86127dd565b905080600401836040516118dc919061514a565b90815260200160405180910390205f9054906101000a900460ff16915050919050565b61191161190a6129f2565b838361303d565b5050565b6040518060400160405280600581526020017f352e302e3000000000000000000000000000000000000000000000000000000081525081565b611959848484610ed9565b61196d6119646129f2565b858585856131b4565b50505050565b8361197d81612881565b5f6119866127dd565b905082518451146119c3576040517fb00e9b6200000000000000000000000000000000000000000000000000000000815260040160405180910390fd5b84816001015f8881526020019081526020015f205f820151815f0190816119ea9190615014565b506020820151816001019081611a009190615014565b506040820151816002019081611a169190615014565b506060820151816003019081611a2c9190615014565b509050505f5f90505b8451811015611b6e575f858281518110611a5257611a516150e3565b5b602002602001015190505f858381518110611a7057611a6f6150e3565b5b602002602001015190508360040182604051611a8c919061514a565b90815260200160405180910390205f9054906101000a900460ff16611ae857816040517f531101bf000000000000000000000000000000000000000000000000000000008152600401611adf91906147a9565b60405180910390fd5b80846003015f8b81526020019081526020015f2083604051611b0a919061514a565b90815260200160405180910390209081611b249190615014565b50887f8b490e7b0a60733bb17982917e471c69228883c096a425f2dece0819ce92e7bb8383604051611b57929190615160565b60405180910390a250508080600101915050611a35565b50857f6a4ce9bca42b76f6f9a08d3d0d5052fc9fcb67ca45c945b00c16b4ba6e2ba29960405160405180910390a2505050505050565b5f611bad613360565b90505f815f0160089054906101000a900460ff161590505f825f015f9054906101000a900467ffffffffffffffff1690505f5f8267ffffffffffffffff16148015611bf55750825b90505f60018367ffffffffffffffff16148015611c2857505f3073ffffffffffffffffffffffffffffffffffffffff163b145b905081158015611c36575080155b15611c6d576040517ff92ee8a900000000000000000000000000000000000000000000000000000000815260040160405180910390fd5b6001855f015f6101000a81548167ffffffffffffffff021916908367ffffffffffffffff1602179055508315611cba576001855f0160086101000a81548160ff0219169083151502179055505b611d2e6040518060400160405280600881526020017f42617365436172640000000000000000000000000000000000000000000000008152506040518060400160405280600581526020017f4243415244000000000000000000000000000000000000000000000000000000815250613373565b611d36613389565b611d3e613393565b611d478661339d565b5f611d506127dd565b90506001815f01819055505f6040518060c001604052806040518060400160405280600781526020017f747769747465720000000000000000000000000000000000000000000000000081525081526020016040518060400160405280600981526020017f666172636173746572000000000000000000000000000000000000000000000081525081526020016040518060400160405280600781526020017f776562736974650000000000000000000000000000000000000000000000000081525081526020016040518060400160405280600681526020017f676974687562000000000000000000000000000000000000000000000000000081525081526020016040518060400160405280600881526020017f6c696e6b6564696e00000000000000000000000000000000000000000000000081525081526020016040518060400160405280600881526020017f626173656e616d6500000000000000000000000000000000000000000000000081525081525090505f5f90505b6006811015611f7e57600183600401838360068110611ef057611eef6150e3565b5b6020020151604051611f02919061514a565b90815260200160405180910390205f6101000a81548160ff02191690831515021790555082600601828260068110611f3d57611f3c6150e3565b5b6020020151908060018154018082558091505060019003905f5260205f20015f909190919091509081611f709190615014565b508080600101915050611ece565b5050508315611fdb575f855f0160086101000a81548160ff0219169083151502179055507fc7f505b2f371ae2175ee4913f4499e1f2633a7b5936321eed1cdaeb6115181d26001604051611fd291906152c8565b60405180910390a15b505050505050565b81611fed81612881565b5f611ff66127dd565b905082816001015f8681526020019081526020015f20600101908161201b9190615014565b5050505050565b60605f61202d6127dd565b90505f8314806120405750805f01548310155b1561208257826040517fed15e6cf0000000000000000000000000000000000000000000000000000000081526004016120799190614a67565b60405180910390fd5b5f816001015f8581526020019081526020015f206040518060800160405290815f820180546120b090614e44565b80601f01602080910402602001604051908101604052809291908181526020018280546120dc90614e44565b80156121275780601f106120fe57610100808354040283529160200191612127565b820191905f5260205f20905b81548152906001019060200180831161210a57829003601f168201915b5050505050815260200160018201805461214090614e44565b80601f016020809104026020016040519081016040528092919081815260200182805461216c90614e44565b80156121b75780601f1061218e576101008083540402835291602001916121b7565b820191905f5260205f20905b81548152906001019060200180831161219a57829003601f168201915b505050505081526020016002820180546121d090614e44565b80601f01602080910402602001604051908101604052809291908181526020018280546121fc90614e44565b80156122475780601f1061221e57610100808354040283529160200191612247565b820191905f5260205f20905b81548152906001019060200180831161222a57829003601f168201915b5050505050815260200160038201805461226090614e44565b80601f016020809104026020016040519081016040528092919081815260200182805461228c90614e44565b80156122d75780601f106122ae576101008083540402835291602001916122d7565b820191905f5260205f20905b8154815290600101906020018083116122ba57829003601f168201915b50505050508152505090505f6040518060400160405280600181526020017f5b0000000000000000000000000000000000000000000000000000000000000081525090505f83600601805480602002602001604051908101604052809291908181526020015f905b828210156123e7578382905f5260205f2001805461235c90614e44565b80601f016020809104026020016040519081016040528092919081815260200182805461238890614e44565b80156123d35780601f106123aa576101008083540402835291602001916123d3565b820191905f5260205f20905b8154815290600101906020018083116123b657829003601f168201915b50505050508152602001906001019061233f565b5050505090505f600190505f5f90505b8251811015612541575f838281518110612414576124136150e3565b5b602002602001015190505f876003015f8b81526020019081526020015f2082604051612440919061514a565b9081526020016040518091039020805461245990614e44565b80601f016020809104026020016040519081016040528092919081815260200182805461248590614e44565b80156124d05780601f106124a7576101008083540402835291602001916124d0565b820191905f5260205f20905b8154815290600101906020018083116124b357829003601f168201915b505050505090505f81511115612532578361250857856040516020016124f69190615307565b60405160208183030381529060405295505b85828260405160200161251d9392919061539e565b60405160208183030381529060405295505f93505b505080806001019150506123f7565b50826040516020016125539190615421565b60405160208183030381529060405292505f61256e886133b1565b855f01518660200151876040015188606001518860405160200161259796959493929190615696565b60405160208183030381529060405290506125b18161347b565b6040516020016125c191906157bb565b6040516020818303038152906040529650505050505050919050565b5f5f6125e76128fe565b9050806005015f8573ffffffffffffffffffffffffffffffffffffffff1673ffffffffffffffffffffffffffffffffffffffff1681526020019081526020015f205f8473ffffffffffffffffffffffffffffffffffffffff1673ffffffffffffffffffffffffffffffffffffffff1681526020019081526020015f205f9054906101000a900460ff1691505092915050565b612681612ebe565b5f73ffffffffffffffffffffffffffffffffffffffff168173ffffffffffffffffffffffffffffffffffffffff16036126f1575f6040517f1e4fbdf70000000000000000000000000000000000000000000000000000000081526004016126e89190614803565b60405180910390fd5b6126fa81612f45565b50565b8161270781612881565b5f6127106127dd565b905082816001015f8681526020019081526020015f2060030190816127359190615014565b5050505050565b5f6127456127dd565b9050806005015f9054906101000a900473ffffffffffffffffffffffffffffffffffffffff1673ffffffffffffffffffffffffffffffffffffffff163373ffffffffffffffffffffffffffffffffffffffff16146127da57336040517f3466b8fc0000000000000000000000000000000000000000000000000000000081526004016127d19190614803565b60405180910390fd5b50565b5f7f27203bc8d62caad0b56b7f1020c3acf2cd00bb7fa7c320bee6a88ad2dbdc6500905090565b61281d828260405180602001604052805f81525061348e565b5050565b5f634906490660e01b7bffffffffffffffffffffffffffffffffffffffffffffffffffffffff1916827bffffffffffffffffffffffffffffffffffffffffffffffffffffffff1916148061287a5750612879826134b1565b5b9050919050565b3373ffffffffffffffffffffffffffffffffffffffff166128a1826110bd565b73ffffffffffffffffffffffffffffffffffffffff16146128fb5733816040517f58a5e2220000000000000000000000000000000000000000000000000000000081526004016128f29291906157dc565b60405180910390fd5b50565b5f7f80bb2b638cc20bc4d0a60d66940f3ab4a00c1d7b313497ca82fb0b4ab0079300905090565b5f5f61293083613592565b90505f73ffffffffffffffffffffffffffffffffffffffff168173ffffffffffffffffffffffffffffffffffffffff16036129a257826040517f7e2732890000000000000000000000000000000000000000000000000000000081526004016129999190614a67565b60405180910390fd5b80915050919050565b5f5f6129b56128fe565b9050806004015f8481526020019081526020015f205f9054906101000a900473ffffffffffffffffffffffffffffffffffffffff16915050919050565b5f33905090565b612a0683838360016135d9565b505050565b5f5f612a156128fe565b90505f612a2185613592565b90505f73ffffffffffffffffffffffffffffffffffffffff168473ffffffffffffffffffffffffffffffffffffffff1614612a6257612a618185876137a6565b5b5f73ffffffffffffffffffffffffffffffffffffffff168173ffffffffffffffffffffffffffffffffffffffff1614612aef57612aa15f865f5f6135d9565b6001826003015f8373ffffffffffffffffffffffffffffffffffffffff1673ffffffffffffffffffffffffffffffffffffffff1681526020019081526020015f205f82825403925050819055505b5f73ffffffffffffffffffffffffffffffffffffffff168673ffffffffffffffffffffffffffffffffffffffff1614612b70576001826003015f8873ffffffffffffffffffffffffffffffffffffffff1673ffffffffffffffffffffffffffffffffffffffff1681526020019081526020015f205f82825401925050819055505b85826002015f8781526020019081526020015f205f6101000a81548173ffffffffffffffffffffffffffffffffffffffff021916908373ffffffffffffffffffffffffffffffffffffffff160217905550848673ffffffffffffffffffffffffffffffffffffffff168273ffffffffffffffffffffffffffffffffffffffff167fddf252ad1be2c89b69c2b068fc378daa952ba7f163c4a11628f55a4df523b3ef60405160405180910390a480925050509392505050565b7f000000000000000000000000000000000000000000000000000000000000000073ffffffffffffffffffffffffffffffffffffffff163073ffffffffffffffffffffffffffffffffffffffff161480612cd557507f000000000000000000000000000000000000000000000000000000000000000073ffffffffffffffffffffffffffffffffffffffff16612cbc613869565b73ffffffffffffffffffffffffffffffffffffffff1614155b15612d0c576040517fe07c8dba00000000000000000000000000000000000000000000000000000000815260040160405180910390fd5b565b612d16612ebe565b50565b8173ffffffffffffffffffffffffffffffffffffffff166352d1902d6040518163ffffffff1660e01b8152600401602060405180830381865afa925050508015612d8157506040513d601f19601f82011682018060405250810190612d7e919061582d565b60015b612dc257816040517f4c9c8ce3000000000000000000000000000000000000000000000000000000008152600401612db99190614803565b60405180910390fd5b7f360894a13ba1a3210667c828492db98dca3e2076cc3735a920a3ca505d382bbc5f1b8114612e2857806040517faa1d49a4000000000000000000000000000000000000000000000000000000008152600401612e1f9190614a3f565b60405180910390fd5b612e3283836138bc565b505050565b7f000000000000000000000000000000000000000000000000000000000000000073ffffffffffffffffffffffffffffffffffffffff163073ffffffffffffffffffffffffffffffffffffffff1614612ebc576040517fe07c8dba00000000000000000000000000000000000000000000000000000000815260040160405180910390fd5b565b612ec66129f2565b73ffffffffffffffffffffffffffffffffffffffff16612ee46117ad565b73ffffffffffffffffffffffffffffffffffffffff1614612f4357612f076129f2565b6040517f118cdaa7000000000000000000000000000000000000000000000000000000008152600401612f3a9190614803565b60405180910390fd5b565b5f612f4e613016565b90505f815f015f9054906101000a900473ffffffffffffffffffffffffffffffffffffffff16905082825f015f6101000a81548173ffffffffffffffffffffffffffffffffffffffff021916908373ffffffffffffffffffffffffffffffffffffffff1602179055508273ffffffffffffffffffffffffffffffffffffffff168173ffffffffffffffffffffffffffffffffffffffff167f8be0079c531659141344cd1fd0a4f28419497f9722a3daafe3b4186f6b6457e060405160405180910390a3505050565b5f7f9016d09d72d40fdae2fd8ceac6b6234c7706214fd39c1cd1e609a0528c199300905090565b5f6130466128fe565b90505f73ffffffffffffffffffffffffffffffffffffffff168373ffffffffffffffffffffffffffffffffffffffff16036130b857826040517f5b08ba180000000000000000000000000000000000000000000000000000000081526004016130af9190614803565b60405180910390fd5b81816005015f8673ffffffffffffffffffffffffffffffffffffffff1673ffffffffffffffffffffffffffffffffffffffff1681526020019081526020015f205f8573ffffffffffffffffffffffffffffffffffffffff1673ffffffffffffffffffffffffffffffffffffffff1681526020019081526020015f205f6101000a81548160ff0219169083151502179055508273ffffffffffffffffffffffffffffffffffffffff168473ffffffffffffffffffffffffffffffffffffffff167f17307eab39ab6107e8899845ad3d59bd9653f200f220920489ca2b5937696c31846040516131a69190614675565b60405180910390a350505050565b5f8373ffffffffffffffffffffffffffffffffffffffff163b1115613359578273ffffffffffffffffffffffffffffffffffffffff1663150b7a02868685856040518563ffffffff1660e01b815260040161321294939291906158aa565b6020604051808303815f875af192505050801561324d57506040513d601f19601f8201168201806040525081019061324a9190615908565b60015b6132ce573d805f811461327b576040519150601f19603f3d011682016040523d82523d5f602084013e613280565b606091505b505f8151036132c657836040517f64a0ae920000000000000000000000000000000000000000000000000000000081526004016132bd9190614803565b60405180910390fd5b805160208201fd5b63150b7a0260e01b7bffffffffffffffffffffffffffffffffffffffffffffffffffffffff1916817bffffffffffffffffffffffffffffffffffffffffffffffffffffffff19161461335757836040517f64a0ae9200000000000000000000000000000000000000000000000000000000815260040161334e9190614803565b60405180910390fd5b505b5050505050565b5f5f61336a61392e565b90508091505090565b61337b613957565b6133858282613997565b5050565b613391613957565b565b61339b613957565b565b6133a5613957565b6133ae816139d2565b50565b60605f60016133bf84613a56565b0190505f8167ffffffffffffffff8111156133dd576133dc61422c565b5b6040519080825280601f01601f19166020018201604052801561340f5781602001600182028036833780820191505090505b5090505f82602083010190505b600115613470578080600190039150507f3031323334353637383961626364656600000000000000000000000000000000600a86061a8153600a858161346557613464615933565b5b0494505f850361341c575b819350505050919050565b6060613487825f613ba7565b9050919050565b6134988383613d31565b6134ac6134a36129f2565b5f8585856131b4565b505050565b5f7f80ac58cd000000000000000000000000000000000000000000000000000000007bffffffffffffffffffffffffffffffffffffffffffffffffffffffff1916827bffffffffffffffffffffffffffffffffffffffffffffffffffffffff1916148061357b57507f5b5e139f000000000000000000000000000000000000000000000000000000007bffffffffffffffffffffffffffffffffffffffffffffffffffffffff1916827bffffffffffffffffffffffffffffffffffffffffffffffffffffffff1916145b8061358b575061358a82613e24565b5b9050919050565b5f5f61359c6128fe565b9050806002015f8481526020019081526020015f205f9054906101000a900473ffffffffffffffffffffffffffffffffffffffff16915050919050565b5f6135e26128fe565b9050818061361c57505f73ffffffffffffffffffffffffffffffffffffffff168373ffffffffffffffffffffffffffffffffffffffff1614155b1561374e575f61362b85612925565b90505f73ffffffffffffffffffffffffffffffffffffffff168473ffffffffffffffffffffffffffffffffffffffff161415801561369557508373ffffffffffffffffffffffffffffffffffffffff168173ffffffffffffffffffffffffffffffffffffffff1614155b80156136a857506136a681856125dd565b155b156136ea57836040517fa9fbf51f0000000000000000000000000000000000000000000000000000000081526004016136e19190614803565b60405180910390fd5b821561374c57848673ffffffffffffffffffffffffffffffffffffffff168273ffffffffffffffffffffffffffffffffffffffff167f8c5be1e5ebec7d5bd14f71427d1e84f3dd0314c0f7b2291e5b200ac8c7c3b92560405160405180910390a45b505b84816004015f8681526020019081526020015f205f6101000a81548173ffffffffffffffffffffffffffffffffffffffff021916908373ffffffffffffffffffffffffffffffffffffffff1602179055505050505050565b6137b1838383613e8d565b613864575f73ffffffffffffffffffffffffffffffffffffffff168373ffffffffffffffffffffffffffffffffffffffff160361382557806040517f7e27328900000000000000000000000000000000000000000000000000000000815260040161381c9190614a67565b60405180910390fd5b81816040517f177e802f00000000000000000000000000000000000000000000000000000000815260040161385b9291906157dc565b60405180910390fd5b505050565b5f6138957f360894a13ba1a3210667c828492db98dca3e2076cc3735a920a3ca505d382bbc5f1b613f4d565b5f015f9054906101000a900473ffffffffffffffffffffffffffffffffffffffff16905090565b6138c582613f56565b8173ffffffffffffffffffffffffffffffffffffffff167fbc7cd75a20ee27fd9adebab32041f755214dbc6bffa90cc0225b39da2e5c2d3b60405160405180910390a25f815111156139215761391b828261401f565b5061392a565b613929614110565b5b5050565b5f7ff0c57e16840df040f15088dc2f81fe391c3923bec73e23a9662efc9c229c6a005f1b905090565b61395f61414c565b613995576040517fd7e6bcf800000000000000000000000000000000000000000000000000000000815260040160405180910390fd5b565b61399f613957565b5f6139a86128fe565b905082815f0190816139ba9190615014565b50818160010190816139cc9190615014565b50505050565b6139da613957565b5f73ffffffffffffffffffffffffffffffffffffffff168173ffffffffffffffffffffffffffffffffffffffff1603613a4a575f6040517f1e4fbdf7000000000000000000000000000000000000000000000000000000008152600401613a419190614803565b60405180910390fd5b613a5381612f45565b50565b5f5f5f90507a184f03e93ff9f4daa797ed6e38ed64bf6a1f0100000000000000008310613ab2577a184f03e93ff9f4daa797ed6e38ed64bf6a1f0100000000000000008381613aa857613aa7615933565b5b0492506040810190505b6d04ee2d6d415b85acef81000000008310613aef576d04ee2d6d415b85acef81000000008381613ae557613ae4615933565b5b0492506020810190505b662386f26fc100008310613b1e57662386f26fc100008381613b1457613b13615933565b5b0492506010810190505b6305f5e1008310613b47576305f5e1008381613b3d57613b3c615933565b5b0492506008810190505b6127108310613b6c576127108381613b6257613b61615933565b5b0492506004810190505b60648310613b8f5760648381613b8557613b84615933565b5b0492506002810190505b600a8310613b9e576001810190505b80915050919050565b60605f835103613bc75760405180602001604052805f8152509050613d2b565b5f82613bf857600360028551613bdd9190615960565b613be79190615993565b6004613bf391906159c3565b613c1f565b6003600285516004613c0a91906159c3565b613c149190615960565b613c1e9190615993565b5b905060405191507f4142434445464748494a4b4c4d4e4f505152535455565758595a616263646566601f5261067083027f6768696a6b6c6d6e6f707172737475767778797a303132333435363738392b2f18603f526020820181810185865187016020810180515f82525b82841015613cdd576003840193508351603f8160121c16518753600187019650603f81600c1c16518753600187019650603f8160061c16518753600187019650603f811651875360018701965050613c8a565b80825288613d1c5760038a510660018114613cff5760028114613d1257613d1a565b603d6001880353603d6002880353613d1a565b603d60018803535b505b86885284604052505050505050505b92915050565b5f73ffffffffffffffffffffffffffffffffffffffff168273ffffffffffffffffffffffffffffffffffffffff1603613da1575f6040517f64a0ae92000000000000000000000000000000000000000000000000000000008152600401613d989190614803565b60405180910390fd5b5f613dad83835f612a0b565b90505f73ffffffffffffffffffffffffffffffffffffffff168173ffffffffffffffffffffffffffffffffffffffff1614613e1f575f6040517f73c6ac6e000000000000000000000000000000000000000000000000000000008152600401613e169190614803565b60405180910390fd5b505050565b5f7f01ffc9a7000000000000000000000000000000000000000000000000000000007bffffffffffffffffffffffffffffffffffffffffffffffffffffffff1916827bffffffffffffffffffffffffffffffffffffffffffffffffffffffff1916149050919050565b5f5f73ffffffffffffffffffffffffffffffffffffffff168373ffffffffffffffffffffffffffffffffffffffff1614158015613f4457508273ffffffffffffffffffffffffffffffffffffffff168473ffffffffffffffffffffffffffffffffffffffff161480613f055750613f0484846125dd565b5b80613f4357508273ffffffffffffffffffffffffffffffffffffffff16613f2b836129ab565b73ffffffffffffffffffffffffffffffffffffffff16145b5b90509392505050565b5f819050919050565b5f8173ffffffffffffffffffffffffffffffffffffffff163b03613fb157806040517f4c9c8ce3000000000000000000000000000000000000000000000000000000008152600401613fa89190614803565b60405180910390fd5b80613fdd7f360894a13ba1a3210667c828492db98dca3e2076cc3735a920a3ca505d382bbc5f1b613f4d565b5f015f6101000a81548173ffffffffffffffffffffffffffffffffffffffff021916908373ffffffffffffffffffffffffffffffffffffffff16021790555050565b60605f61402c848461416a565b905080801561406257505f61403f61417e565b118061406157505f8473ffffffffffffffffffffffffffffffffffffffff163b115b5b156140775761406f614185565b91505061410a565b80156140ba57836040517f9996b3150000000000000000000000000000000000000000000000000000000081526004016140b19190614803565b60405180910390fd5b5f6140c361417e565b11156140d6576140d16141a2565b614108565b6040517fd6bda27500000000000000000000000000000000000000000000000000000000815260040160405180910390fd5b505b92915050565b5f34111561414a576040517fb398979f00000000000000000000000000000000000000000000000000000000815260040160405180910390fd5b565b5f614155613360565b5f0160089054906101000a900460ff16905090565b5f5f5f835160208501865af4905092915050565b5f3d905090565b606060405190503d81523d5f602083013e3d602001810160405290565b6040513d5f823e3d81fd5b5f604051905090565b5f5ffd5b5f5ffd5b5f73ffffffffffffffffffffffffffffffffffffffff82169050919050565b5f6141e7826141be565b9050919050565b6141f7816141dd565b8114614201575f5ffd5b50565b5f81359050614212816141ee565b92915050565b5f5ffd5b5f601f19601f8301169050919050565b7f4e487b71000000000000000000000000000000000000000000000000000000005f52604160045260245ffd5b6142628261421c565b810181811067ffffffffffffffff821117156142815761428061422c565b5b80604052505050565b5f6142936141ad565b905061429f8282614259565b919050565b5f5ffd5b5f5ffd5b5f5ffd5b5f67ffffffffffffffff8211156142ca576142c961422c565b5b6142d38261421c565b9050602081019050919050565b828183375f83830152505050565b5f6143006142fb846142b0565b61428a565b90508281526020810184848401111561431c5761431b6142ac565b5b6143278482856142e0565b509392505050565b5f82601f830112614343576143426142a8565b5b81356143538482602086016142ee565b91505092915050565b5f6080828403121561437157614370614218565b5b61437b608061428a565b90505f82013567ffffffffffffffff81111561439a576143996142a4565b5b6143a68482850161432f565b5f83015250602082013567ffffffffffffffff8111156143c9576143c86142a4565b5b6143d58482850161432f565b602083015250604082013567ffffffffffffffff8111156143f9576143f86142a4565b5b6144058482850161432f565b604083015250606082013567ffffffffffffffff811115614429576144286142a4565b5b6144358482850161432f565b60608301525092915050565b5f67ffffffffffffffff82111561445b5761445a61422c565b5b602082029050602081019050919050565b5f5ffd5b5f61448261447d84614441565b61428a565b905080838252602082019050602084028301858111156144a5576144a461446c565b5b835b818110156144ec57803567ffffffffffffffff8111156144ca576144c96142a8565b5b8086016144d7898261432f565b855260208501945050506020810190506144a7565b5050509392505050565b5f82601f83011261450a576145096142a8565b5b813561451a848260208601614470565b91505092915050565b5f5f5f5f6080858703121561453b5761453a6141b6565b5b5f61454887828801614204565b945050602085013567ffffffffffffffff811115614569576145686141ba565b5b6145758782880161435c565b935050604085013567ffffffffffffffff811115614596576145956141ba565b5b6145a2878288016144f6565b925050606085013567ffffffffffffffff8111156145c3576145c26141ba565b5b6145cf878288016144f6565b91505092959194509250565b5f7fffffffff0000000000000000000000000000000000000000000000000000000082169050919050565b61460f816145db565b8114614619575f5ffd5b50565b5f8135905061462a81614606565b92915050565b5f60208284031215614645576146446141b6565b5b5f6146528482850161461c565b91505092915050565b5f8115159050919050565b61466f8161465b565b82525050565b5f6020820190506146885f830184614666565b92915050565b5f819050919050565b6146a08161468e565b81146146aa575f5ffd5b50565b5f813590506146bb81614697565b92915050565b5f5f5f606084860312156146d8576146d76141b6565b5b5f6146e5868287016146ad565b935050602084013567ffffffffffffffff811115614706576147056141ba565b5b6147128682870161432f565b925050604084013567ffffffffffffffff811115614733576147326141ba565b5b61473f8682870161432f565b9150509250925092565b5f81519050919050565b5f82825260208201905092915050565b8281835e5f83830152505050565b5f61477b82614749565b6147858185614753565b9350614795818560208601614763565b61479e8161421c565b840191505092915050565b5f6020820190508181035f8301526147c18184614771565b905092915050565b5f602082840312156147de576147dd6141b6565b5b5f6147eb848285016146ad565b91505092915050565b6147fd816141dd565b82525050565b5f6020820190506148165f8301846147f4565b92915050565b5f5f60408385031215614832576148316141b6565b5b5f61483f85828601614204565b9250506020614850858286016146ad565b9150509250929050565b5f5f604083850312156148705761486f6141b6565b5b5f61487d858286016146ad565b925050602083013567ffffffffffffffff81111561489e5761489d6141ba565b5b6148aa8582860161432f565b9150509250929050565b5f5f5f606084860312156148cb576148ca6141b6565b5b5f6148d886828701614204565b93505060206148e986828701614204565b92505060406148fa868287016146ad565b9150509250925092565b5f60208284031215614919576149186141b6565b5b5f61492684828501614204565b91505092915050565b5f67ffffffffffffffff8211156149495761494861422c565b5b6149528261421c565b9050602081019050919050565b5f61497161496c8461492f565b61428a565b90508281526020810184848401111561498d5761498c6142ac565b5b6149988482856142e0565b509392505050565b5f82601f8301126149b4576149b36142a8565b5b81356149c484826020860161495f565b91505092915050565b5f5f604083850312156149e3576149e26141b6565b5b5f6149f085828601614204565b925050602083013567ffffffffffffffff811115614a1157614a106141ba565b5b614a1d858286016149a0565b9150509250929050565b5f819050919050565b614a3981614a27565b82525050565b5f602082019050614a525f830184614a30565b92915050565b614a618161468e565b82525050565b5f602082019050614a7a5f830184614a58565b92915050565b614a898161465b565b8114614a93575f5ffd5b50565b5f81359050614aa481614a80565b92915050565b5f5f60408385031215614ac057614abf6141b6565b5b5f83013567ffffffffffffffff811115614add57614adc6141ba565b5b614ae98582860161432f565b9250506020614afa85828601614a96565b9150509250929050565b5f5f5f60608486031215614b1b57614b1a6141b6565b5b5f84013567ffffffffffffffff811115614b3857614b376141ba565b5b614b448682870161435c565b935050602084013567ffffffffffffffff811115614b6557614b646141ba565b5b614b71868287016144f6565b925050604084013567ffffffffffffffff811115614b9257614b916141ba565b5b614b9e868287016144f6565b9150509250925092565b5f60208284031215614bbd57614bbc6141b6565b5b5f82013567ffffffffffffffff811115614bda57614bd96141ba565b5b614be68482850161432f565b91505092915050565b5f5f60408385031215614c0557614c046141b6565b5b5f614c1285828601614204565b9250506020614c2385828601614a96565b9150509250929050565b5f5f5f5f60808587031215614c4557614c446141b6565b5b5f614c5287828801614204565b9450506020614c6387828801614204565b9350506040614c74878288016146ad565b925050606085013567ffffffffffffffff811115614c9557614c946141ba565b5b614ca1878288016149a0565b91505092959194509250565b5f5f5f5f60808587031215614cc557614cc46141b6565b5b5f614cd2878288016146ad565b945050602085013567ffffffffffffffff811115614cf357614cf26141ba565b5b614cff8782880161435c565b935050604085013567ffffffffffffffff811115614d2057614d1f6141ba565b5b614d2c878288016144f6565b925050606085013567ffffffffffffffff811115614d4d57614d4c6141ba565b5b614d59878288016144f6565b91505092959194509250565b5f5f60408385031215614d7b57614d7a6141b6565b5b5f614d8885828601614204565b9250506020614d9985828601614204565b9150509250929050565b7f4e487b71000000000000000000000000000000000000000000000000000000005f52601160045260245ffd5b5f614dda8261468e565b91507fffffffffffffffffffffffffffffffffffffffffffffffffffffffffffffffff8203614e0c57614e0b614da3565b5b600182019050919050565b7f4e487b71000000000000000000000000000000000000000000000000000000005f52602260045260245ffd5b5f6002820490506001821680614e5b57607f821691505b602082108103614e6e57614e6d614e17565b5b50919050565b5f819050815f5260205f209050919050565b5f6020601f8301049050919050565b5f82821b905092915050565b5f60088302614ed07fffffffffffffffffffffffffffffffffffffffffffffffffffffffffffffffff82614e95565b614eda8683614e95565b95508019841693508086168417925050509392505050565b5f819050919050565b5f614f15614f10614f0b8461468e565b614ef2565b61468e565b9050919050565b5f819050919050565b614f2e83614efb565b614f42614f3a82614f1c565b848454614ea1565b825550505050565b5f5f905090565b614f59614f4a565b614f64818484614f25565b505050565b5b81811015614f8757614f7c5f82614f51565b600181019050614f6a565b5050565b601f821115614fcc57614f9d81614e74565b614fa684614e86565b81016020851015614fb5578190505b614fc9614fc185614e86565b830182614f69565b50505b505050565b5f82821c905092915050565b5f614fec5f1984600802614fd1565b1980831691505092915050565b5f6150048383614fdd565b9150826002028217905092915050565b61501d82614749565b67ffffffffffffffff8111156150365761503561422c565b5b6150408254614e44565b61504b828285614f8b565b5f60209050601f83116001811461507c575f841561506a578287015190505b6150748582614ff9565b8655506150db565b601f19841661508a86614e74565b5f5b828110156150b15784890151825560018201915060208501945060208101905061508c565b868310156150ce57848901516150ca601f891682614fdd565b8355505b6001600288020188555050505b505050505050565b7f4e487b71000000000000000000000000000000000000000000000000000000005f52603260045260245ffd5b5f81905092915050565b5f61512482614749565b61512e8185615110565b935061513e818560208601614763565b80840191505092915050565b5f615155828461511a565b915081905092915050565b5f6040820190508181035f8301526151788185614771565b9050818103602083015261518c8184614771565b90509392505050565b5f6060820190506151a85f8301866147f4565b6151b56020830185614a58565b6151c260408301846147f4565b949350505050565b5f81905092915050565b5f819050815f5260205f209050919050565b5f81546151f281614e44565b6151fc81866151ca565b9450600182165f8114615216576001811461522b5761525d565b60ff198316865281151582028601935061525d565b615234856151d4565b5f5b8381101561525557815481890152600182019150602081019050615236565b838801955050505b50505092915050565b5f61527182846151e6565b915081905092915050565b5f819050919050565b5f67ffffffffffffffff82169050919050565b5f6152b26152ad6152a88461527c565b614ef2565b615285565b9050919050565b6152c281615298565b82525050565b5f6020820190506152db5f8301846152b9565b92915050565b7f2c00000000000000000000000000000000000000000000000000000000000000815250565b5f615312828461511a565b915061531d826152e1565b60018201915081905092915050565b7f7b226b6579223a22000000000000000000000000000000000000000000000000815250565b7f222c2276616c7565223a22000000000000000000000000000000000000000000815250565b7f227d000000000000000000000000000000000000000000000000000000000000815250565b5f6153a9828661511a565b91506153b48261532c565b6008820191506153c4828561511a565b91506153cf82615352565b600b820191506153df828461511a565b91506153ea82615378565b600282019150819050949350505050565b7f5d00000000000000000000000000000000000000000000000000000000000000815250565b5f61542c828461511a565b9150615437826153fb565b60018201915081905092915050565b7f7b226e616d65223a202242617365436172643a202300000000000000000000005f82015250565b5f61547a601583615110565b915061548582615446565b601582019050919050565b7f222c0000000000000000000000000000000000000000000000000000000000005f82015250565b5f6154c4600283615110565b91506154cf82615490565b600282019050919050565b7f22696d616765223a2022000000000000000000000000000000000000000000005f82015250565b5f61550e600a83615110565b9150615519826154da565b600a82019050919050565b7f226e69636b6e616d65223a2022000000000000000000000000000000000000005f82015250565b5f615558600d83615110565b915061556382615524565b600d82019050919050565b7f22726f6c65223a202200000000000000000000000000000000000000000000005f82015250565b5f6155a2600983615110565b91506155ad8261556e565b600982019050919050565b7f2262696f223a20220000000000000000000000000000000000000000000000005f82015250565b5f6155ec600883615110565b91506155f7826155b8565b600882019050919050565b7f22736f6369616c73223a200000000000000000000000000000000000000000005f82015250565b5f615636600b83615110565b915061564182615602565b600b82019050919050565b7f7d000000000000000000000000000000000000000000000000000000000000005f82015250565b5f615680600183615110565b915061568b8261564c565b600182019050919050565b5f6156a08261546e565b91506156ac828961511a565b91506156b7826154b8565b91506156c282615502565b91506156ce828861511a565b91506156d9826154b8565b91506156e48261554c565b91506156f0828761511a565b91506156fb826154b8565b915061570682615596565b9150615712828661511a565b915061571d826154b8565b9150615728826155e0565b9150615734828561511a565b915061573f826154b8565b915061574a8261562a565b9150615756828461511a565b915061576182615674565b9150819050979650505050505050565b7f646174613a6170706c69636174696f6e2f6a736f6e3b6261736536342c0000005f82015250565b5f6157a5601d83615110565b91506157b082615771565b601d82019050919050565b5f6157c582615799565b91506157d1828461511a565b915081905092915050565b5f6040820190506157ef5f8301856147f4565b6157fc6020830184614a58565b9392505050565b61580c81614a27565b8114615816575f5ffd5b50565b5f8151905061582781615803565b92915050565b5f60208284031215615842576158416141b6565b5b5f61584f84828501615819565b91505092915050565b5f81519050919050565b5f82825260208201905092915050565b5f61587c82615858565b6158868185615862565b9350615896818560208601614763565b61589f8161421c565b840191505092915050565b5f6080820190506158bd5f8301876147f4565b6158ca60208301866147f4565b6158d76040830185614a58565b81810360608301526158e98184615872565b905095945050505050565b5f8151905061590281614606565b92915050565b5f6020828403121561591d5761591c6141b6565b5b5f61592a848285016158f4565b91505092915050565b7f4e487b71000000000000000000000000000000000000000000000000000000005f52601260045260245ffd5b5f61596a8261468e565b91506159758361468e565b925082820190508082111561598d5761598c614da3565b5b92915050565b5f61599d8261468e565b91506159a88361468e565b9250826159b8576159b7615933565b5b828204905092915050565b5f6159cd8261468e565b91506159d88361468e565b92508282026159e68161468e565b915082820484148315176159fd576159fc614da3565b5b509291505056fea2646970667358221220398e921ed2437dce2cc3e8639ae375d7448485daf49dcf9c7dce57c5814f9a5164736f6c634300081e0033","linkReferences":{}},"methodIdentifiers":{"UPGRADE_INTERFACE_VERSION()":"ad3cb1cc","approve(address,uint256)":"095ea7b3","balanceOf(address)":"70a08231","burn(uint256)":"42966c68","editBaseCard(uint256,(string,string,string,string),string[],string[])":"c13d8158","getApproved(uint256)":"081812fc","getSocial(uint256,string)":"171b9219","hasMinted(address)":"38e21cce","initialize(address)":"c4d66de8","isAllowedSocialKey(string)":"97ac747a","isApprovedForAll(address,address)":"e985e9c5","linkSocial(uint256,string,string)":"0327fff6","migrateBaseCardFromTestnet(address,(string,string,string,string),string[],string[])":"01debcc7","migrationAdmin()":"74df2558","mintBaseCard((string,string,string,string),string[],string[])":"876e1bc6","name()":"06fdde03","owner()":"8da5cb5b","ownerOf(uint256)":"6352211e","proxiableUUID()":"52d1902d","renounceOwnership()":"715018a6","safeTransferFrom(address,address,uint256)":"42842e0e","safeTransferFrom(address,address,uint256,bytes)":"b88d4fde","setAllowedSocialKey(string,bool)":"83fda672","setApprovalForAll(address,bool)":"a22cb465","setMigrationAdmin(address)":"70ae07a1","supportsInterface(bytes4)":"01ffc9a7","symbol()":"95d89b41","tokenIdOf(address)":"773c02d4","tokenURI(uint256)":"c87b56dd","transferFrom(address,address,uint256)":"23b872dd","transferOwnership(address)":"f2fde38b","updateBio(uint256,string)":"f99c27c9","updateImageURI(uint256,string)":"8e5e6a28","updateNickname(uint256,string)":"c68905b9","upgradeToAndCall(address,bytes)":"4f1ef286"},"storageLayout":{"storage":[],"types":{}},"id":73}