{"abi":[{"type":"constructor","inputs":[],"stateMutability":"nonpayable"},{"type":"function","name":"UPGRADE_INTERFACE_VERSION","inputs":[],"outputs":[{"name":"","type":"string","internalType":"string"}],"stateMutability":"view"},{"type":"function","name":"approve","inputs":[{"name":"to","type":"address","internalType":"address"},{"name":"tokenId","type":"uint256","internalType":"uint256"}],"outputs":[],"stateMutability":"nonpayable"},{"type":"function","name":"balanceOf","inputs":[{"name":"owner","type":"address","internalType":"address"}],"outputs":[{"name":"","type":"uint256","internalType":"uint256"}],"stateMutability":"view"},{"type":"function","name":"burn","inputs":[{"name":"tokenId","type":"uint256","internalType":"uint256"}],"outputs":[],"stateMutability":"nonpayable"},{"type":"function","name":"getApproved","inputs":[{"name":"tokenId","type":"uint256","internalType":"uint256"}],"outputs":[{"name":"","type":"address","internalType":"address"}],"stateMutability":"view"},{"type":"function","name":"getSocial","inputs":[{"name":"_tokenId","type":"uint256","internalType":"uint256"},{"name":"_key","type":"string","internalType":"string"}],"outputs":[{"name":"","type":"string","internalType":"string"}],"stateMutability":"view"},{"type":"function","name":"hasMinted","inputs":[{"name":"_address","type":"address","internalType":"address"}],"outputs":[{"name":"","type":"bool","internalType":"bool"}],"stateMutability":"view"},{"type":"function","name":"initialize","inputs":[{"name":"initialOwner","type":"address","internalType":"address"}],"outputs":[],"stateMutability":"nonpayable"},{"type":"function","name":"isAllowedSocialKey","inputs":[{"name":"_key","type":"string","internalType":"string"}],"outputs":[{"name":"","type":"bool","internalType":"bool"}],"stateMutability":"view"},{"type":"function","name":"isApprovedForAll","inputs":[{"name":"owner","type":"address","internalType":"address"},{"name":"operator","type":"address","internalType":"address"}],"outputs":[{"name":"","type":"bool","internalType":"bool"}],"stateMutability":"view"},{"type":"function","name":"linkSocial","inputs":[{"name":"_tokenId","type":"uint256","internalType":"uint256"},{"name":"_key","type":"string","internalType":"string"},{"name":"_value","type":"string","internalType":"string"}],"outputs":[],"stateMutability":"nonpayable"},{"type":"function","name":"migrateBaseCardFromTestnet","inputs":[{"name":"_recipient","type":"address","internalType":"address"},{"name":"_initialCardData","type":"tuple","internalType":"struct IBaseCard.CardData","components":[{"name":"imageURI","type":"string","internalType":"string"},{"name":"nickname","type":"string","internalType":"string"},{"name":"role","type":"string","internalType":"string"},{"name":"bio","type":"string","internalType":"string"}]},{"name":"_socialKeys","type":"string[]","internalType":"string[]"},{"name":"_socialValues","type":"string[]","internalType":"string[]"}],"outputs":[],"stateMutability":"nonpayable"},{"type":"function","name":"migrationAdmin","inputs":[],"outputs":[{"name":"","type":"address","internalType":"address"}],"stateMutability":"view"},{"type":"function","name":"mintBaseCard","inputs":[{"name":"_initialCardData","type":"tuple","internalType":"struct IBaseCard.CardData","components":[{"name":"imageURI","type":"string","internalType":"string"},{"name":"nickname","type":"string","internalType":"string"},{"name":"role","type":"string","internalType":"string"},{"name":"bio","type":"string","internalType":"string"}]},{"name":"_socialKeys","type":"string[]","internalType":"string[]"},{"name":"_socialValues","type":"string[]","internalType":"string[]"}],"outputs":[],"stateMutability":"nonpayable"},{"type":"function","name":"name","inputs":[],"outputs":[{"name":"","type":"string","internalType":"string"}],"stateMutability":"view"},{"type":"function","name":"owner","inputs":[],"outputs":[{"name":"","type":"address","internalType":"address"}],"stateMutability":"view"},{"type":"function","name":"ownerOf","inputs":[{"name":"tokenId","type":"uint256","internalType":"uint256"}],"outputs":[{"name":"","type":"address","internalType":"address"}],"stateMutability":"view"},{"type":"function","name":"proxiableUUID","inputs":[],"outputs":[{"name":"","type":"bytes32","internalType":"bytes32"}],"stateMutability":"view"},{"type":"function","name":"renounceOwnership","inputs":[],"outputs":[],"stateMutability":"nonpayable"},{"type":"function","name":"safeTransferFrom","inputs":[{"name":"from","type":"address","internalType":"address"},{"name":"to","type":"address","internalType":"address"},{"name":"tokenId","type":"uint256","internalType":"uint256"}],"outputs":[],"stateMutability":"nonpayable"},{"type":"function","name":"safeTransferFrom","inputs":[{"name":"from","type":"address","internalType":"address"},{"name":"to","type":"address","internalType":"address"},{"name":"tokenId","type":"uint256","internalType":"uint256"},{"name":"data","type":"bytes","internalType":"bytes"}],"outputs":[],"stateMutability":"nonpayable"},{"type":"function","name":"setAllowedSocialKey","inputs":[{"name":"_key","type":"string","internalType":"string"},{"name":"_isAllowed","type":"bool","internalType":"bool"}],"outputs":[],"stateMutability":"nonpayable"},{"type":"function","name":"setApprovalForAll","inputs":[{"name":"operator","type":"address","internalType":"address"},{"name":"approved","type":"bool","internalType":"bool"}],"outputs":[],"stateMutability":"nonpayable"},{"type":"function","name":"setMigrationAdmin","inputs":[{"name":"_migrationAdmin","type":"address","internalType":"address"}],"outputs":[],"stateMutability":"nonpayable"},{"type":"function","name":"supportsInterface","inputs":[{"name":"interfaceId","type":"bytes4","internalType":"bytes4"}],"outputs":[{"name":"","type":"bool","internalType":"bool"}],"stateMutability":"view"},{"type":"function","name":"symbol","inputs":[],"outputs":[{"name":"","type":"string","internalType":"string"}],"stateMutability":"view"},{"type":"function","name":"tokenIdOf","inputs":[{"name":"_owner","type":"address","internalType":"address"}],"outputs":[{"name":"","type":"uint256","internalType":"uint256"}],"stateMutability":"view"},{"type":"function","name":"tokenURI","inputs":[{"name":"_tokenId","type":"uint256","internalType":"uint256"}],"outputs":[{"name":"","type":"string","internalType":"string"}],"stateMutability":"view"},{"type":"function","name":"transferFrom","inputs":[{"name":"from","type":"address","internalType":"address"},{"name":"to","type":"address","internalType":"address"},{"name":"tokenId","type":"uint256","internalType":"uint256"}],"outputs":[],"stateMutability":"nonpayable"},{"type":"function","name":"transferOwnership","inputs":[{"name":"newOwner","type":"address","internalType":"address"}],"outputs":[],"stateMutability":"nonpayable"},{"type":"function","name":"updateBio","inputs":[{"name":"_tokenId","type":"uint256","internalType":"uint256"},{"name":"_newBio","type":"string","internalType":"string"}],"outputs":[],"stateMutability":"nonpayable"},{"type":"function","name":"updateImageURI","inputs":[{"name":"_tokenId","type":"uint256","internalType":"uint256"},{"name":"_newImageUri","type":"string","internalType":"string"}],"outputs":[],"stateMutability":"nonpayable"},{"type":"function","name":"updateNickname","inputs":[{"name":"_tokenId","type":"uint256","internalType":"uint256"},{"name":"_newNickname","type":"string","internalType":"string"}],"outputs":[],"stateMutability":"nonpayable"},{"type":"function","name":"upgradeToAndCall","inputs":[{"name":"newImplementation","type":"address","internalType":"address"},{"name":"data","type":"bytes","internalType":"bytes"}],"outputs":[],"stateMutability":"payable"},{"type":"event","name":"Approval","inputs":[{"name":"owner","type":"address","indexed":true,"internalType":"address"},{"name":"approved","type":"address","indexed":true,"internalType":"address"},{"name":"tokenId","type":"uint256","indexed":true,"internalType":"uint256"}],"anonymous":false},{"type":"event","name":"ApprovalForAll","inputs":[{"name":"owner","type":"address","indexed":true,"internalType":"address"},{"name":"operator","type":"address","indexed":true,"internalType":"address"},{"name":"approved","type":"bool","indexed":false,"internalType":"bool"}],"anonymous":false},{"type":"event","name":"BatchMetadataUpdate","inputs":[{"name":"_fromTokenId","type":"uint256","indexed":false,"internalType":"uint256"},{"name":"_toTokenId","type":"uint256","indexed":false,"internalType":"uint256"}],"anonymous":false},{"type":"event","name":"Initialized","inputs":[{"name":"version","type":"uint64","indexed":false,"internalType":"uint64"}],"anonymous":false},{"type":"event","name":"MetadataUpdate","inputs":[{"name":"_tokenId","type":"uint256","indexed":false,"internalType":"uint256"}],"anonymous":false},{"type":"event","name":"MintBaseCard","inputs":[{"name":"user","type":"address","indexed":true,"internalType":"address"},{"name":"tokenId","type":"uint256","indexed":true,"internalType":"uint256"}],"anonymous":false},{"type":"event","name":"OwnershipTransferred","inputs":[{"name":"previousOwner","type":"address","indexed":true,"internalType":"address"},{"name":"newOwner","type":"address","indexed":true,"internalType":"address"}],"anonymous":false},{"type":"event","name":"SocialLinked","inputs":[{"name":"tokenId","type":"uint256","indexed":true,"internalType":"uint256"},{"name":"key","type":"string","indexed":false,"internalType":"string"},{"name":"value","type":"string","indexed":false,"internalType":"string"}],"anonymous":false},{"type":"event","name":"Transfer","inputs":[{"name":"from","type":"address","indexed":true,"internalType":"address"},{"name":"to","type":"address","indexed":true,"internalType":"address"},{"name":"tokenId","type":"uint256","indexed":true,"internalType":"uint256"}],"anonymous":false},{"type":"event","name":"Upgraded","inputs":[{"name":"implementation","type":"address","indexed":true,"internalType":"address"}],"anonymous":false},{"type":"error","name":"AddressEmptyCode","inputs":[{"name":"target","type":"address","internalType":"address"}]},{"type":"error","name":"AddressZero","inputs":[]},{"type":"error","name":"AlreadyMinted","inputs":[{"name":"user","type":"address","internalType":"address"}]},{"type":"error","name":"ERC1967InvalidImplementation","inputs":[{"name":"implementation","type":"address","internalType":"address"}]},{"type":"error","name":"ERC1967NonPayable","inputs":[]},{"type":"error","name":"ERC721IncorrectOwner","inputs":[{"name":"sender","type":"address","internalType":"address"},{"name":"tokenId","type":"uint256","internalType":"uint256"},{"name":"owner","type":"address","internalType":"address"}]},{"type":"error","name":"ERC721InsufficientApproval","inputs":[{"name":"operator","type":"address","internalType":"address"},{"name":"tokenId","type":"uint256","internalType":"uint256"}]},{"type":"error","name":"ERC721InvalidApprover","inputs":[{"name":"approver","type":"address","internalType":"address"}]},{"type":"error","name":"ERC721InvalidOperator","inputs":[{"name":"operator","type":"address","internalType":"address"}]},{"type":"error","name":"ERC721InvalidOwner","inputs":[{"name":"owner","type":"address","internalType":"address"}]},{"type":"error","name":"ERC721InvalidReceiver","inputs":[{"name":"receiver","type":"address","internalType":"address"}]},{"type":"error","name":"ERC721InvalidSender","inputs":[{"name":"sender","type":"address","internalType":"address"}]},{"type":"error","name":"ERC721NonexistentToken","inputs":[{"name":"tokenId","type":"uint256","internalType":"uint256"}]},{"type":"error","name":"FailedCall","inputs":[]},{"type":"error","name":"InvalidInitialization","inputs":[]},{"type":"error","name":"InvalidTokenId","inputs":[{"name":"tokenId","type":"uint256","internalType":"uint256"}]},{"type":"error","name":"MismatchedSocialKeysAndValues","inputs":[]},{"type":"error","name":"NotAllowedSocialKey","inputs":[{"name":"key","type":"string","internalType":"string"}]},{"type":"error","name":"NotInitializing","inputs":[]},{"type":"error","name":"NotMigrationAdmin","inputs":[{"name":"caller","type":"address","internalType":"address"}]},{"type":"error","name":"NotTokenOwner","inputs":[{"name":"caller","type":"address","internalType":"address"},{"name":"tokenId","type":"uint256","internalType":"uint256"}]},{"type":"error","name":"OwnableInvalidOwner","inputs":[{"name":"owner","type":"address","internalType":"address"}]},{"type":"error","name":"OwnableUnauthorizedAccount","inputs":[{"name":"account","type":"address","internalType":"address"}]},{"type":"error","name":"UUPSUnauthorizedCallContext","inputs":[]},{"type":"error","name":"UUPSUnsupportedProxiableUUID","inputs":[{"name":"slot","type":"bytes32","internalType":"bytes32"}]}],"bytecode":{"object":"0x60a06040523073ffffffffffffffffffffffffffffffffffffffff1660809073ffffffffffffffffffffffffffffffffffffffff16815250348015610042575f5ffd5b5061005161005660201b60201c565b6101d1565b5f61006561015460201b60201c565b9050805f0160089054906101000a900460ff16156100af576040517ff92ee8a900000000000000000000000000000000000000000000000000000000815260040160405180910390fd5b67ffffffffffffffff8016815f015f9054906101000a900467ffffffffffffffff1667ffffffffffffffff16146101515767ffffffffffffffff815f015f6101000a81548167ffffffffffffffff021916908367ffffffffffffffff1602179055507fc7f505b2f371ae2175ee4913f4499e1f2633a7b5936321eed1cdaeb6115181d267ffffffffffffffff60405161014891906101b8565b60405180910390a15b50565b5f5f61016461016d60201b60201c565b90508091505090565b5f7ff0c57e16840df040f15088dc2f81fe391c3923bec73e23a9662efc9c229c6a005f1b905090565b5f67ffffffffffffffff82169050919050565b6101b281610196565b82525050565b5f6020820190506101cb5f8301846101a9565b92915050565b60805161571e6101f75f395f81816129c601528181612a1b0152612bd5015261571e5ff3fe6080604052600436106101f8575f3560e01c806374df25581161010c578063a22cb4651161009f578063c68905b91161006e578063c68905b914610712578063c87b56dd1461073a578063e985e9c514610776578063f2fde38b146107b2578063f99c27c9146107da576101f8565b8063a22cb46514610670578063ad3cb1cc14610698578063b88d4fde146106c2578063c4d66de8146106ea576101f8565b80638da5cb5b116100db5780638da5cb5b146105b85780638e5e6a28146105e257806395d89b411461060a57806397ac747a14610634576101f8565b806374df255814610502578063773c02d41461052c57806383fda67214610568578063876e1bc614610590576101f8565b806338e21cce1161018f57806352d1902d1161015e57806352d1902d146104225780636352211e1461044c57806370a082311461048857806370ae07a1146104c4578063715018a6146104ec576101f8565b806338e21cce1461037a57806342842e0e146103b657806342966c68146103de5780634f1ef28614610406576101f8565b8063081812fc116101cb578063081812fc146102b2578063095ea7b3146102ee578063171b92191461031657806323b872dd14610352576101f8565b806301debcc7146101fc57806301ffc9a7146102245780630327fff61461026057806306fdde0314610288575b5f5ffd5b348015610207575f5ffd5b50610222600480360381019061021d91906142bf565b610802565b005b34801561022f575f5ffd5b5061024a600480360381019061024591906143cc565b610bfa565b6040516102579190614411565b60405180910390f35b34801561026b575f5ffd5b506102866004803603810190610281919061445d565b610c0b565b005b348015610293575f5ffd5b5061029c610d0c565b6040516102a99190614545565b60405180910390f35b3480156102bd575f5ffd5b506102d860048036038101906102d39190614565565b610da9565b6040516102e5919061459f565b60405180910390f35b3480156102f9575f5ffd5b50610314600480360381019061030f91906145b8565b610dc4565b005b348015610321575f5ffd5b5061033c600480360381019061033791906145f6565b610dda565b6040516103499190614545565b60405180910390f35b34801561035d575f5ffd5b5061037860048036038101906103739190614650565b610ea6565b005b348015610385575f5ffd5b506103a0600480360381019061039b91906146a0565b610fa5565b6040516103ad9190614411565b60405180910390f35b3480156103c1575f5ffd5b506103dc60048036038101906103d79190614650565b611005565b005b3480156103e9575f5ffd5b5061040460048036038101906103ff9190614565565b611024565b005b610420600480360381019061041b9190614769565b61103a565b005b34801561042d575f5ffd5b50610436611059565b60405161044391906147db565b60405180910390f35b348015610457575f5ffd5b50610472600480360381019061046d9190614565565b61108a565b60405161047f919061459f565b60405180910390f35b348015610493575f5ffd5b506104ae60048036038101906104a991906146a0565b61109b565b6040516104bb9190614803565b60405180910390f35b3480156104cf575f5ffd5b506104ea60048036038101906104e591906146a0565b61115f565b005b3480156104f7575f5ffd5b5061050061121d565b005b34801561050d575f5ffd5b50610516611230565b604051610523919061459f565b60405180910390f35b348015610537575f5ffd5b50610552600480360381019061054d91906146a0565b611266565b60405161055f9190614803565b60405180910390f35b348015610573575f5ffd5b5061058e60048036038101906105899190614846565b6112ba565b005b34801561059b575f5ffd5b506105b660048036038101906105b191906148a0565b6113f0565b005b3480156105c3575f5ffd5b506105cc61177a565b6040516105d9919061459f565b60405180910390f35b3480156105ed575f5ffd5b50610608600480360381019061060391906145f6565b6117af565b005b348015610615575f5ffd5b5061061e6117ed565b60405161062b9190614545565b60405180910390f35b34801561063f575f5ffd5b5061065a60048036038101906106559190614944565b61188b565b6040516106679190614411565b60405180910390f35b34801561067b575f5ffd5b506106966004803603810190610691919061498b565b6118cc565b005b3480156106a3575f5ffd5b506106ac6118e2565b6040516106b99190614545565b60405180910390f35b3480156106cd575f5ffd5b506106e860048036038101906106e391906149c9565b61191b565b005b3480156106f5575f5ffd5b50610710600480360381019061070b91906146a0565b611940565b005b34801561071d575f5ffd5b50610738600480360381019061073391906145f6565b611d7f565b005b348015610745575f5ffd5b50610760600480360381019061075b9190614565565b611dbe565b60405161076d9190614545565b60405180910390f35b348015610781575f5ffd5b5061079c60048036038101906107979190614a49565b612379565b6040516107a99190614411565b60405180910390f35b3480156107bd575f5ffd5b506107d860048036038101906107d391906146a0565b612415565b005b3480156107e5575f5ffd5b5061080060048036038101906107fb91906145f6565b612499565b005b61080a6124d8565b5f610813612579565b90505f73ffffffffffffffffffffffffffffffffffffffff168573ffffffffffffffffffffffffffffffffffffffff160361087a576040517f9fabe1c100000000000000000000000000000000000000000000000000000000815260040160405180910390fd5b806002015f8673ffffffffffffffffffffffffffffffffffffffff1673ffffffffffffffffffffffffffffffffffffffff1681526020019081526020015f205f9054906101000a900460ff161561090857846040517f893cc5760000000000000000000000000000000000000000000000000000000081526004016108ff919061459f565b60405180910390fd5b8151835114610943576040517fb00e9b6200000000000000000000000000000000000000000000000000000000815260040160405180910390fd5b6001816002015f8773ffffffffffffffffffffffffffffffffffffffff1673ffffffffffffffffffffffffffffffffffffffff1681526020019081526020015f205f6101000a81548160ff0219169083151502179055505f815f015f8154809291906109ae90614ab4565b91905055905084826001015f8381526020019081526020015f205f820151815f0190816109db9190614cf8565b5060208201518160010190816109f19190614cf8565b506040820151816002019081610a079190614cf8565b506060820151816003019081610a1d9190614cf8565b50905050610a2b86826125a0565b80826007015f8873ffffffffffffffffffffffffffffffffffffffff1673ffffffffffffffffffffffffffffffffffffffff1681526020019081526020015f20819055505f5f90505b8451811015610bad575f858281518110610a9157610a90614dc7565b5b602002602001015190505f858381518110610aaf57610aae614dc7565b5b602002602001015190508460040182604051610acb9190614e2e565b90815260200160405180910390205f9054906101000a900460ff16610b2757816040517f531101bf000000000000000000000000000000000000000000000000000000008152600401610b1e9190614545565b60405180910390fd5b80856003015f8681526020019081526020015f2083604051610b499190614e2e565b90815260200160405180910390209081610b639190614cf8565b50837f8b490e7b0a60733bb17982917e471c69228883c096a425f2dece0819ce92e7bb8383604051610b96929190614e44565b60405180910390a250508080600101915050610a74565b50808673ffffffffffffffffffffffffffffffffffffffff167f53f3e9a832a8c21b2c8955fbf6dc0bd4b59bb2c4306d5a81eaa517ccbf6d9f7360405160405180910390a3505050505050565b5f610c04826125bd565b9050919050565b82610c158161261d565b5f610c1e612579565b90508060040184604051610c329190614e2e565b90815260200160405180910390205f9054906101000a900460ff16610c8e57836040517f531101bf000000000000000000000000000000000000000000000000000000008152600401610c859190614545565b60405180910390fd5b82816003015f8781526020019081526020015f2085604051610cb09190614e2e565b90815260200160405180910390209081610cca9190614cf8565b50847f8b490e7b0a60733bb17982917e471c69228883c096a425f2dece0819ce92e7bb8585604051610cfd929190614e44565b60405180910390a25050505050565b60605f610d1761269a565b9050805f018054610d2790614b28565b80601f0160208091040260200160405190810160405280929190818152602001828054610d5390614b28565b8015610d9e5780601f10610d7557610100808354040283529160200191610d9e565b820191905f5260205f20905b815481529060010190602001808311610d8157829003601f168201915b505050505091505090565b5f610db3826126c1565b50610dbd82612747565b9050919050565b610dd68282610dd161278e565b612795565b5050565b60605f610de5612579565b9050806003015f8581526020019081526020015f2083604051610e089190614e2e565b90815260200160405180910390208054610e2190614b28565b80601f0160208091040260200160405190810160405280929190818152602001828054610e4d90614b28565b8015610e985780601f10610e6f57610100808354040283529160200191610e98565b820191905f5260205f20905b815481529060010190602001808311610e7b57829003601f168201915b505050505091505092915050565b5f73ffffffffffffffffffffffffffffffffffffffff168273ffffffffffffffffffffffffffffffffffffffff1603610f16575f6040517f64a0ae92000000000000000000000000000000000000000000000000000000008152600401610f0d919061459f565b60405180910390fd5b5f610f298383610f2461278e565b6127a7565b90508373ffffffffffffffffffffffffffffffffffffffff168173ffffffffffffffffffffffffffffffffffffffff1614610f9f578382826040517f64283d7b000000000000000000000000000000000000000000000000000000008152600401610f9693929190614e79565b60405180910390fd5b50505050565b5f5f610faf612579565b9050806002015f8473ffffffffffffffffffffffffffffffffffffffff1673ffffffffffffffffffffffffffffffffffffffff1681526020019081526020015f205f9054906101000a900460ff16915050919050565b61101f83838360405180602001604052805f81525061191b565b505050565b6110365f8261103161278e565b6127a7565b5050565b6110426129c4565b61104b82612aaa565b6110558282612ab5565b5050565b5f611062612bd3565b7f360894a13ba1a3210667c828492db98dca3e2076cc3735a920a3ca505d382bbc5f1b905090565b5f611094826126c1565b9050919050565b5f5f6110a561269a565b90505f73ffffffffffffffffffffffffffffffffffffffff168373ffffffffffffffffffffffffffffffffffffffff1603611117575f6040517f89c62b6400000000000000000000000000000000000000000000000000000000815260040161110e919061459f565b60405180910390fd5b806003015f8473ffffffffffffffffffffffffffffffffffffffff1673ffffffffffffffffffffffffffffffffffffffff1681526020019081526020015f2054915050919050565b611167612c5a565b5f73ffffffffffffffffffffffffffffffffffffffff168173ffffffffffffffffffffffffffffffffffffffff16036111cc576040517f9fabe1c100000000000000000000000000000000000000000000000000000000815260040160405180910390fd5b5f6111d5612579565b905081816005015f6101000a81548173ffffffffffffffffffffffffffffffffffffffff021916908373ffffffffffffffffffffffffffffffffffffffff1602179055505050565b611225612c5a565b61122e5f612ce1565b565b5f5f61123a612579565b9050806005015f9054906101000a900473ffffffffffffffffffffffffffffffffffffffff1691505090565b5f5f611270612579565b9050806007015f8473ffffffffffffffffffffffffffffffffffffffff1673ffffffffffffffffffffffffffffffffffffffff1681526020019081526020015f2054915050919050565b6112c2612c5a565b5f6112cb612579565b9050818015611304575080600401836040516112e79190614e2e565b90815260200160405180910390205f9054906101000a900460ff16155b156113b4575f5f90505f5f90505b826006018054905081101561137757848051906020012083600601828154811061133f5761133e614dc7565b5b905f5260205f20016040516113549190614f4a565b60405180910390200361136a5760019150611377565b8080600101915050611312565b50806113b2578160060184908060018154018082558091505060019003905f5260205f20015f9091909190915090816113b09190614cf8565b505b505b8181600401846040516113c79190614e2e565b90815260200160405180910390205f6101000a81548160ff021916908315150217905550505050565b5f6113f9612579565b9050806002015f3373ffffffffffffffffffffffffffffffffffffffff1673ffffffffffffffffffffffffffffffffffffffff1681526020019081526020015f205f9054906101000a900460ff161561148957336040517f893cc576000000000000000000000000000000000000000000000000000000008152600401611480919061459f565b60405180910390fd5b81518351146114c4576040517fb00e9b6200000000000000000000000000000000000000000000000000000000815260040160405180910390fd5b6001816002015f3373ffffffffffffffffffffffffffffffffffffffff1673ffffffffffffffffffffffffffffffffffffffff1681526020019081526020015f205f6101000a81548160ff0219169083151502179055505f815f015f81548092919061152f90614ab4565b91905055905084826001015f8381526020019081526020015f205f820151815f01908161155c9190614cf8565b5060208201518160010190816115729190614cf8565b5060408201518160020190816115889190614cf8565b50606082015181600301908161159e9190614cf8565b509050506115ac33826125a0565b80826007015f3373ffffffffffffffffffffffffffffffffffffffff1673ffffffffffffffffffffffffffffffffffffffff1681526020019081526020015f20819055505f5f90505b845181101561172e575f85828151811061161257611611614dc7565b5b602002602001015190505f8583815181106116305761162f614dc7565b5b60200260200101519050846004018260405161164c9190614e2e565b90815260200160405180910390205f9054906101000a900460ff166116a857816040517f531101bf00000000000000000000000000000000000000000000000000000000815260040161169f9190614545565b60405180910390fd5b80856003015f8681526020019081526020015f20836040516116ca9190614e2e565b908152602001604051809103902090816116e49190614cf8565b50837f8b490e7b0a60733bb17982917e471c69228883c096a425f2dece0819ce92e7bb8383604051611717929190614e44565b60405180910390a2505080806001019150506115f5565b50803373ffffffffffffffffffffffffffffffffffffffff167f53f3e9a832a8c21b2c8955fbf6dc0bd4b59bb2c4306d5a81eaa517ccbf6d9f7360405160405180910390a35050505050565b5f5f611784612db2565b9050805f015f9054906101000a900473ffffffffffffffffffffffffffffffffffffffff1691505090565b816117b98161261d565b5f6117c2612579565b905082816001015f8681526020019081526020015f205f0190816117e69190614cf8565b5050505050565b60605f6117f861269a565b905080600101805461180990614b28565b80601f016020809104026020016040519081016040528092919081815260200182805461183590614b28565b80156118805780601f1061185757610100808354040283529160200191611880565b820191905f5260205f20905b81548152906001019060200180831161186357829003601f168201915b505050505091505090565b5f5f611895612579565b905080600401836040516118a99190614e2e565b90815260200160405180910390205f9054906101000a900460ff16915050919050565b6118de6118d761278e565b8383612dd9565b5050565b6040518060400160405280600581526020017f352e302e3000000000000000000000000000000000000000000000000000000081525081565b611926848484610ea6565b61193a61193161278e565b85858585612f50565b50505050565b5f6119496130fc565b90505f815f0160089054906101000a900460ff161590505f825f015f9054906101000a900467ffffffffffffffff1690505f5f8267ffffffffffffffff161480156119915750825b90505f60018367ffffffffffffffff161480156119c457505f3073ffffffffffffffffffffffffffffffffffffffff163b145b9050811580156119d2575080155b15611a09576040517ff92ee8a900000000000000000000000000000000000000000000000000000000815260040160405180910390fd5b6001855f015f6101000a81548167ffffffffffffffff021916908367ffffffffffffffff1602179055508315611a56576001855f0160086101000a81548160ff0219169083151502179055505b611aca6040518060400160405280600881526020017f42617365436172640000000000000000000000000000000000000000000000008152506040518060400160405280600581526020017f424341524400000000000000000000000000000000000000000000000000000081525061310f565b611ad2613125565b611ada61312f565b611ae386613139565b5f611aec612579565b90506001815f01819055505f6040518060c001604052806040518060400160405280600781526020017f747769747465720000000000000000000000000000000000000000000000000081525081526020016040518060400160405280600981526020017f666172636173746572000000000000000000000000000000000000000000000081525081526020016040518060400160405280600781526020017f776562736974650000000000000000000000000000000000000000000000000081525081526020016040518060400160405280600681526020017f676974687562000000000000000000000000000000000000000000000000000081525081526020016040518060400160405280600881526020017f6c696e6b6564696e00000000000000000000000000000000000000000000000081525081526020016040518060400160405280600881526020017f626173656e616d6500000000000000000000000000000000000000000000000081525081525090505f5f90505b6006811015611d1a57600183600401838360068110611c8c57611c8b614dc7565b5b6020020151604051611c9e9190614e2e565b90815260200160405180910390205f6101000a81548160ff02191690831515021790555082600601828260068110611cd957611cd8614dc7565b5b6020020151908060018154018082558091505060019003905f5260205f20015f909190919091509081611d0c9190614cf8565b508080600101915050611c6a565b5050508315611d77575f855f0160086101000a81548160ff0219169083151502179055507fc7f505b2f371ae2175ee4913f4499e1f2633a7b5936321eed1cdaeb6115181d26001604051611d6e9190614fac565b60405180910390a15b505050505050565b81611d898161261d565b5f611d92612579565b905082816001015f8681526020019081526020015f206001019081611db79190614cf8565b5050505050565b60605f611dc9612579565b90505f831480611ddc5750805f01548310155b15611e1e57826040517fed15e6cf000000000000000000000000000000000000000000000000000000008152600401611e159190614803565b60405180910390fd5b5f816001015f8581526020019081526020015f206040518060800160405290815f82018054611e4c90614b28565b80601f0160208091040260200160405190810160405280929190818152602001828054611e7890614b28565b8015611ec35780601f10611e9a57610100808354040283529160200191611ec3565b820191905f5260205f20905b815481529060010190602001808311611ea657829003601f168201915b50505050508152602001600182018054611edc90614b28565b80601f0160208091040260200160405190810160405280929190818152602001828054611f0890614b28565b8015611f535780601f10611f2a57610100808354040283529160200191611f53565b820191905f5260205f20905b815481529060010190602001808311611f3657829003601f168201915b50505050508152602001600282018054611f6c90614b28565b80601f0160208091040260200160405190810160405280929190818152602001828054611f9890614b28565b8015611fe35780601f10611fba57610100808354040283529160200191611fe3565b820191905f5260205f20905b815481529060010190602001808311611fc657829003601f168201915b50505050508152602001600382018054611ffc90614b28565b80601f016020809104026020016040519081016040528092919081815260200182805461202890614b28565b80156120735780601f1061204a57610100808354040283529160200191612073565b820191905f5260205f20905b81548152906001019060200180831161205657829003601f168201915b50505050508152505090505f6040518060400160405280600181526020017f5b0000000000000000000000000000000000000000000000000000000000000081525090505f83600601805480602002602001604051908101604052809291908181526020015f905b82821015612183578382905f5260205f200180546120f890614b28565b80601f016020809104026020016040519081016040528092919081815260200182805461212490614b28565b801561216f5780601f106121465761010080835404028352916020019161216f565b820191905f5260205f20905b81548152906001019060200180831161215257829003601f168201915b5050505050815260200190600101906120db565b5050505090505f600190505f5f90505b82518110156122dd575f8382815181106121b0576121af614dc7565b5b602002602001015190505f876003015f8b81526020019081526020015f20826040516121dc9190614e2e565b908152602001604051809103902080546121f590614b28565b80601f016020809104026020016040519081016040528092919081815260200182805461222190614b28565b801561226c5780601f106122435761010080835404028352916020019161226c565b820191905f5260205f20905b81548152906001019060200180831161224f57829003601f168201915b505050505090505f815111156122ce57836122a457856040516020016122929190614feb565b60405160208183030381529060405295505b8582826040516020016122b993929190615082565b60405160208183030381529060405295505f93505b50508080600101915050612193565b50826040516020016122ef9190615105565b60405160208183030381529060405292505f61230a8861314d565b855f0151866020015187604001518860600151886040516020016123339695949392919061537a565b604051602081830303815290604052905061234d81613217565b60405160200161235d919061549f565b6040516020818303038152906040529650505050505050919050565b5f5f61238361269a565b9050806005015f8573ffffffffffffffffffffffffffffffffffffffff1673ffffffffffffffffffffffffffffffffffffffff1681526020019081526020015f205f8473ffffffffffffffffffffffffffffffffffffffff1673ffffffffffffffffffffffffffffffffffffffff1681526020019081526020015f205f9054906101000a900460ff1691505092915050565b61241d612c5a565b5f73ffffffffffffffffffffffffffffffffffffffff168173ffffffffffffffffffffffffffffffffffffffff160361248d575f6040517f1e4fbdf7000000000000000000000000000000000000000000000000000000008152600401612484919061459f565b60405180910390fd5b61249681612ce1565b50565b816124a38161261d565b5f6124ac612579565b905082816001015f8681526020019081526020015f2060030190816124d19190614cf8565b5050505050565b5f6124e1612579565b9050806005015f9054906101000a900473ffffffffffffffffffffffffffffffffffffffff1673ffffffffffffffffffffffffffffffffffffffff163373ffffffffffffffffffffffffffffffffffffffff161461257657336040517f3466b8fc00000000000000000000000000000000000000000000000000000000815260040161256d919061459f565b60405180910390fd5b50565b5f7f27203bc8d62caad0b56b7f1020c3acf2cd00bb7fa7c320bee6a88ad2dbdc6500905090565b6125b9828260405180602001604052805f81525061322a565b5050565b5f634906490660e01b7bffffffffffffffffffffffffffffffffffffffffffffffffffffffff1916827bffffffffffffffffffffffffffffffffffffffffffffffffffffffff1916148061261657506126158261324d565b5b9050919050565b3373ffffffffffffffffffffffffffffffffffffffff1661263d8261108a565b73ffffffffffffffffffffffffffffffffffffffff16146126975733816040517f58a5e22200000000000000000000000000000000000000000000000000000000815260040161268e9291906154c0565b60405180910390fd5b50565b5f7f80bb2b638cc20bc4d0a60d66940f3ab4a00c1d7b313497ca82fb0b4ab0079300905090565b5f5f6126cc8361332e565b90505f73ffffffffffffffffffffffffffffffffffffffff168173ffffffffffffffffffffffffffffffffffffffff160361273e57826040517f7e2732890000000000000000000000000000000000000000000000000000000081526004016127359190614803565b60405180910390fd5b80915050919050565b5f5f61275161269a565b9050806004015f8481526020019081526020015f205f9054906101000a900473ffffffffffffffffffffffffffffffffffffffff16915050919050565b5f33905090565b6127a28383836001613375565b505050565b5f5f6127b161269a565b90505f6127bd8561332e565b90505f73ffffffffffffffffffffffffffffffffffffffff168473ffffffffffffffffffffffffffffffffffffffff16146127fe576127fd818587613542565b5b5f73ffffffffffffffffffffffffffffffffffffffff168173ffffffffffffffffffffffffffffffffffffffff161461288b5761283d5f865f5f613375565b6001826003015f8373ffffffffffffffffffffffffffffffffffffffff1673ffffffffffffffffffffffffffffffffffffffff1681526020019081526020015f205f82825403925050819055505b5f73ffffffffffffffffffffffffffffffffffffffff168673ffffffffffffffffffffffffffffffffffffffff161461290c576001826003015f8873ffffffffffffffffffffffffffffffffffffffff1673ffffffffffffffffffffffffffffffffffffffff1681526020019081526020015f205f82825401925050819055505b85826002015f8781526020019081526020015f205f6101000a81548173ffffffffffffffffffffffffffffffffffffffff021916908373ffffffffffffffffffffffffffffffffffffffff160217905550848673ffffffffffffffffffffffffffffffffffffffff168273ffffffffffffffffffffffffffffffffffffffff167fddf252ad1be2c89b69c2b068fc378daa952ba7f163c4a11628f55a4df523b3ef60405160405180910390a480925050509392505050565b7f000000000000000000000000000000000000000000000000000000000000000073ffffffffffffffffffffffffffffffffffffffff163073ffffffffffffffffffffffffffffffffffffffff161480612a7157507f000000000000000000000000000000000000000000000000000000000000000073ffffffffffffffffffffffffffffffffffffffff16612a58613605565b73ffffffffffffffffffffffffffffffffffffffff1614155b15612aa8576040517fe07c8dba00000000000000000000000000000000000000000000000000000000815260040160405180910390fd5b565b612ab2612c5a565b50565b8173ffffffffffffffffffffffffffffffffffffffff166352d1902d6040518163ffffffff1660e01b8152600401602060405180830381865afa925050508015612b1d57506040513d601f19601f82011682018060405250810190612b1a9190615511565b60015b612b5e57816040517f4c9c8ce3000000000000000000000000000000000000000000000000000000008152600401612b55919061459f565b60405180910390fd5b7f360894a13ba1a3210667c828492db98dca3e2076cc3735a920a3ca505d382bbc5f1b8114612bc457806040517faa1d49a4000000000000000000000000000000000000000000000000000000008152600401612bbb91906147db565b60405180910390fd5b612bce8383613658565b505050565b7f000000000000000000000000000000000000000000000000000000000000000073ffffffffffffffffffffffffffffffffffffffff163073ffffffffffffffffffffffffffffffffffffffff1614612c58576040517fe07c8dba00000000000000000000000000000000000000000000000000000000815260040160405180910390fd5b565b612c6261278e565b73ffffffffffffffffffffffffffffffffffffffff16612c8061177a565b73ffffffffffffffffffffffffffffffffffffffff1614612cdf57612ca361278e565b6040517f118cdaa7000000000000000000000000000000000000000000000000000000008152600401612cd6919061459f565b60405180910390fd5b565b5f612cea612db2565b90505f815f015f9054906101000a900473ffffffffffffffffffffffffffffffffffffffff16905082825f015f6101000a81548173ffffffffffffffffffffffffffffffffffffffff021916908373ffffffffffffffffffffffffffffffffffffffff1602179055508273ffffffffffffffffffffffffffffffffffffffff168173ffffffffffffffffffffffffffffffffffffffff167f8be0079c531659141344cd1fd0a4f28419497f9722a3daafe3b4186f6b6457e060405160405180910390a3505050565b5f7f9016d09d72d40fdae2fd8ceac6b6234c7706214fd39c1cd1e609a0528c199300905090565b5f612de261269a565b90505f73ffffffffffffffffffffffffffffffffffffffff168373ffffffffffffffffffffffffffffffffffffffff1603612e5457826040517f5b08ba18000000000000000000000000000000000000000000000000000000008152600401612e4b919061459f565b60405180910390fd5b81816005015f8673ffffffffffffffffffffffffffffffffffffffff1673ffffffffffffffffffffffffffffffffffffffff1681526020019081526020015f205f8573ffffffffffffffffffffffffffffffffffffffff1673ffffffffffffffffffffffffffffffffffffffff1681526020019081526020015f205f6101000a81548160ff0219169083151502179055508273ffffffffffffffffffffffffffffffffffffffff168473ffffffffffffffffffffffffffffffffffffffff167f17307eab39ab6107e8899845ad3d59bd9653f200f220920489ca2b5937696c3184604051612f429190614411565b60405180910390a350505050565b5f8373ffffffffffffffffffffffffffffffffffffffff163b11156130f5578273ffffffffffffffffffffffffffffffffffffffff1663150b7a02868685856040518563ffffffff1660e01b8152600401612fae949392919061558e565b6020604051808303815f875af1925050508015612fe957506040513d601f19601f82011682018060405250810190612fe691906155ec565b60015b61306a573d805f8114613017576040519150601f19603f3d011682016040523d82523d5f602084013e61301c565b606091505b505f81510361306257836040517f64a0ae92000000000000000000000000000000000000000000000000000000008152600401613059919061459f565b60405180910390fd5b805160208201fd5b63150b7a0260e01b7bffffffffffffffffffffffffffffffffffffffffffffffffffffffff1916817bffffffffffffffffffffffffffffffffffffffffffffffffffffffff1916146130f357836040517f64a0ae920000000000000000000000000000000000000000000000000000000081526004016130ea919061459f565b60405180910390fd5b505b5050505050565b5f5f6131066136ca565b90508091505090565b6131176136f3565b6131218282613733565b5050565b61312d6136f3565b565b6131376136f3565b565b6131416136f3565b61314a8161376e565b50565b60605f600161315b846137f2565b0190505f8167ffffffffffffffff81111561317957613178613fc8565b5b6040519080825280601f01601f1916602001820160405280156131ab5781602001600182028036833780820191505090505b5090505f82602083010190505b60011561320c578080600190039150507f3031323334353637383961626364656600000000000000000000000000000000600a86061a8153600a858161320157613200615617565b5b0494505f85036131b8575b819350505050919050565b6060613223825f613943565b9050919050565b6132348383613acd565b61324861323f61278e565b5f858585612f50565b505050565b5f7f80ac58cd000000000000000000000000000000000000000000000000000000007bffffffffffffffffffffffffffffffffffffffffffffffffffffffff1916827bffffffffffffffffffffffffffffffffffffffffffffffffffffffff1916148061331757507f5b5e139f000000000000000000000000000000000000000000000000000000007bffffffffffffffffffffffffffffffffffffffffffffffffffffffff1916827bffffffffffffffffffffffffffffffffffffffffffffffffffffffff1916145b80613327575061332682613bc0565b5b9050919050565b5f5f61333861269a565b9050806002015f8481526020019081526020015f205f9054906101000a900473ffffffffffffffffffffffffffffffffffffffff16915050919050565b5f61337e61269a565b905081806133b857505f73ffffffffffffffffffffffffffffffffffffffff168373ffffffffffffffffffffffffffffffffffffffff1614155b156134ea575f6133c7856126c1565b90505f73ffffffffffffffffffffffffffffffffffffffff168473ffffffffffffffffffffffffffffffffffffffff161415801561343157508373ffffffffffffffffffffffffffffffffffffffff168173ffffffffffffffffffffffffffffffffffffffff1614155b801561344457506134428185612379565b155b1561348657836040517fa9fbf51f00000000000000000000000000000000000000000000000000000000815260040161347d919061459f565b60405180910390fd5b82156134e857848673ffffffffffffffffffffffffffffffffffffffff168273ffffffffffffffffffffffffffffffffffffffff167f8c5be1e5ebec7d5bd14f71427d1e84f3dd0314c0f7b2291e5b200ac8c7c3b92560405160405180910390a45b505b84816004015f8681526020019081526020015f205f6101000a81548173ffffffffffffffffffffffffffffffffffffffff021916908373ffffffffffffffffffffffffffffffffffffffff1602179055505050505050565b61354d838383613c29565b613600575f73ffffffffffffffffffffffffffffffffffffffff168373ffffffffffffffffffffffffffffffffffffffff16036135c157806040517f7e2732890000000000000000000000000000000000000000000000000000000081526004016135b89190614803565b60405180910390fd5b81816040517f177e802f0000000000000000000000000000000000000000000000000000000081526004016135f79291906154c0565b60405180910390fd5b505050565b5f6136317f360894a13ba1a3210667c828492db98dca3e2076cc3735a920a3ca505d382bbc5f1b613ce9565b5f015f9054906101000a900473ffffffffffffffffffffffffffffffffffffffff16905090565b61366182613cf2565b8173ffffffffffffffffffffffffffffffffffffffff167fbc7cd75a20ee27fd9adebab32041f755214dbc6bffa90cc0225b39da2e5c2d3b60405160405180910390a25f815111156136bd576136b78282613dbb565b506136c6565b6136c5613eac565b5b5050565b5f7ff0c57e16840df040f15088dc2f81fe391c3923bec73e23a9662efc9c229c6a005f1b905090565b6136fb613ee8565b613731576040517fd7e6bcf800000000000000000000000000000000000000000000000000000000815260040160405180910390fd5b565b61373b6136f3565b5f61374461269a565b905082815f0190816137569190614cf8565b50818160010190816137689190614cf8565b50505050565b6137766136f3565b5f73ffffffffffffffffffffffffffffffffffffffff168173ffffffffffffffffffffffffffffffffffffffff16036137e6575f6040517f1e4fbdf70000000000000000000000000000000000000000000000000000000081526004016137dd919061459f565b60405180910390fd5b6137ef81612ce1565b50565b5f5f5f90507a184f03e93ff9f4daa797ed6e38ed64bf6a1f010000000000000000831061384e577a184f03e93ff9f4daa797ed6e38ed64bf6a1f010000000000000000838161384457613843615617565b5b0492506040810190505b6d04ee2d6d415b85acef8100000000831061388b576d04ee2d6d415b85acef8100000000838161388157613880615617565b5b0492506020810190505b662386f26fc1000083106138ba57662386f26fc1000083816138b0576138af615617565b5b0492506010810190505b6305f5e10083106138e3576305f5e10083816138d9576138d8615617565b5b0492506008810190505b61271083106139085761271083816138fe576138fd615617565b5b0492506004810190505b6064831061392b576064838161392157613920615617565b5b0492506002810190505b600a831061393a576001810190505b80915050919050565b60605f8351036139635760405180602001604052805f8152509050613ac7565b5f82613994576003600285516139799190615644565b6139839190615677565b600461398f91906156a7565b6139bb565b60036002855160046139a691906156a7565b6139b09190615644565b6139ba9190615677565b5b905060405191507f4142434445464748494a4b4c4d4e4f505152535455565758595a616263646566601f5261067083027f6768696a6b6c6d6e6f707172737475767778797a303132333435363738392b2f18603f526020820181810185865187016020810180515f82525b82841015613a79576003840193508351603f8160121c16518753600187019650603f81600c1c16518753600187019650603f8160061c16518753600187019650603f811651875360018701965050613a26565b80825288613ab85760038a510660018114613a9b5760028114613aae57613ab6565b603d6001880353603d6002880353613ab6565b603d60018803535b505b86885284604052505050505050505b92915050565b5f73ffffffffffffffffffffffffffffffffffffffff168273ffffffffffffffffffffffffffffffffffffffff1603613b3d575f6040517f64a0ae92000000000000000000000000000000000000000000000000000000008152600401613b34919061459f565b60405180910390fd5b5f613b4983835f6127a7565b90505f73ffffffffffffffffffffffffffffffffffffffff168173ffffffffffffffffffffffffffffffffffffffff1614613bbb575f6040517f73c6ac6e000000000000000000000000000000000000000000000000000000008152600401613bb2919061459f565b60405180910390fd5b505050565b5f7f01ffc9a7000000000000000000000000000000000000000000000000000000007bffffffffffffffffffffffffffffffffffffffffffffffffffffffff1916827bffffffffffffffffffffffffffffffffffffffffffffffffffffffff1916149050919050565b5f5f73ffffffffffffffffffffffffffffffffffffffff168373ffffffffffffffffffffffffffffffffffffffff1614158015613ce057508273ffffffffffffffffffffffffffffffffffffffff168473ffffffffffffffffffffffffffffffffffffffff161480613ca15750613ca08484612379565b5b80613cdf57508273ffffffffffffffffffffffffffffffffffffffff16613cc783612747565b73ffffffffffffffffffffffffffffffffffffffff16145b5b90509392505050565b5f819050919050565b5f8173ffffffffffffffffffffffffffffffffffffffff163b03613d4d57806040517f4c9c8ce3000000000000000000000000000000000000000000000000000000008152600401613d44919061459f565b60405180910390fd5b80613d797f360894a13ba1a3210667c828492db98dca3e2076cc3735a920a3ca505d382bbc5f1b613ce9565b5f015f6101000a81548173ffffffffffffffffffffffffffffffffffffffff021916908373ffffffffffffffffffffffffffffffffffffffff16021790555050565b60605f613dc88484613f06565b9050808015613dfe57505f613ddb613f1a565b1180613dfd57505f8473ffffffffffffffffffffffffffffffffffffffff163b115b5b15613e1357613e0b613f21565b915050613ea6565b8015613e5657836040517f9996b315000000000000000000000000000000000000000000000000000000008152600401613e4d919061459f565b60405180910390fd5b5f613e5f613f1a565b1115613e7257613e6d613f3e565b613ea4565b6040517fd6bda27500000000000000000000000000000000000000000000000000000000815260040160405180910390fd5b505b92915050565b5f341115613ee6576040517fb398979f00000000000000000000000000000000000000000000000000000000815260040160405180910390fd5b565b5f613ef16130fc565b5f0160089054906101000a900460ff16905090565b5f5f5f835160208501865af4905092915050565b5f3d905090565b606060405190503d81523d5f602083013e3d602001810160405290565b6040513d5f823e3d81fd5b5f604051905090565b5f5ffd5b5f5ffd5b5f73ffffffffffffffffffffffffffffffffffffffff82169050919050565b5f613f8382613f5a565b9050919050565b613f9381613f79565b8114613f9d575f5ffd5b50565b5f81359050613fae81613f8a565b92915050565b5f5ffd5b5f601f19601f8301169050919050565b7f4e487b71000000000000000000000000000000000000000000000000000000005f52604160045260245ffd5b613ffe82613fb8565b810181811067ffffffffffffffff8211171561401d5761401c613fc8565b5b80604052505050565b5f61402f613f49565b905061403b8282613ff5565b919050565b5f5ffd5b5f5ffd5b5f5ffd5b5f67ffffffffffffffff82111561406657614065613fc8565b5b61406f82613fb8565b9050602081019050919050565b828183375f83830152505050565b5f61409c6140978461404c565b614026565b9050828152602081018484840111156140b8576140b7614048565b5b6140c384828561407c565b509392505050565b5f82601f8301126140df576140de614044565b5b81356140ef84826020860161408a565b91505092915050565b5f6080828403121561410d5761410c613fb4565b5b6141176080614026565b90505f82013567ffffffffffffffff81111561413657614135614040565b5b614142848285016140cb565b5f83015250602082013567ffffffffffffffff81111561416557614164614040565b5b614171848285016140cb565b602083015250604082013567ffffffffffffffff81111561419557614194614040565b5b6141a1848285016140cb565b604083015250606082013567ffffffffffffffff8111156141c5576141c4614040565b5b6141d1848285016140cb565b60608301525092915050565b5f67ffffffffffffffff8211156141f7576141f6613fc8565b5b602082029050602081019050919050565b5f5ffd5b5f61421e614219846141dd565b614026565b9050808382526020820190506020840283018581111561424157614240614208565b5b835b8181101561428857803567ffffffffffffffff81111561426657614265614044565b5b80860161427389826140cb565b85526020850194505050602081019050614243565b5050509392505050565b5f82601f8301126142a6576142a5614044565b5b81356142b684826020860161420c565b91505092915050565b5f5f5f5f608085870312156142d7576142d6613f52565b5b5f6142e487828801613fa0565b945050602085013567ffffffffffffffff81111561430557614304613f56565b5b614311878288016140f8565b935050604085013567ffffffffffffffff81111561433257614331613f56565b5b61433e87828801614292565b925050606085013567ffffffffffffffff81111561435f5761435e613f56565b5b61436b87828801614292565b91505092959194509250565b5f7fffffffff0000000000000000000000000000000000000000000000000000000082169050919050565b6143ab81614377565b81146143b5575f5ffd5b50565b5f813590506143c6816143a2565b92915050565b5f602082840312156143e1576143e0613f52565b5b5f6143ee848285016143b8565b91505092915050565b5f8115159050919050565b61440b816143f7565b82525050565b5f6020820190506144245f830184614402565b92915050565b5f819050919050565b61443c8161442a565b8114614446575f5ffd5b50565b5f8135905061445781614433565b92915050565b5f5f5f6060848603121561447457614473613f52565b5b5f61448186828701614449565b935050602084013567ffffffffffffffff8111156144a2576144a1613f56565b5b6144ae868287016140cb565b925050604084013567ffffffffffffffff8111156144cf576144ce613f56565b5b6144db868287016140cb565b9150509250925092565b5f81519050919050565b5f82825260208201905092915050565b8281835e5f83830152505050565b5f614517826144e5565b61452181856144ef565b93506145318185602086016144ff565b61453a81613fb8565b840191505092915050565b5f6020820190508181035f83015261455d818461450d565b905092915050565b5f6020828403121561457a57614579613f52565b5b5f61458784828501614449565b91505092915050565b61459981613f79565b82525050565b5f6020820190506145b25f830184614590565b92915050565b5f5f604083850312156145ce576145cd613f52565b5b5f6145db85828601613fa0565b92505060206145ec85828601614449565b9150509250929050565b5f5f6040838503121561460c5761460b613f52565b5b5f61461985828601614449565b925050602083013567ffffffffffffffff81111561463a57614639613f56565b5b614646858286016140cb565b9150509250929050565b5f5f5f6060848603121561466757614666613f52565b5b5f61467486828701613fa0565b935050602061468586828701613fa0565b925050604061469686828701614449565b9150509250925092565b5f602082840312156146b5576146b4613f52565b5b5f6146c284828501613fa0565b91505092915050565b5f67ffffffffffffffff8211156146e5576146e4613fc8565b5b6146ee82613fb8565b9050602081019050919050565b5f61470d614708846146cb565b614026565b90508281526020810184848401111561472957614728614048565b5b61473484828561407c565b509392505050565b5f82601f8301126147505761474f614044565b5b81356147608482602086016146fb565b91505092915050565b5f5f6040838503121561477f5761477e613f52565b5b5f61478c85828601613fa0565b925050602083013567ffffffffffffffff8111156147ad576147ac613f56565b5b6147b98582860161473c565b9150509250929050565b5f819050919050565b6147d5816147c3565b82525050565b5f6020820190506147ee5f8301846147cc565b92915050565b6147fd8161442a565b82525050565b5f6020820190506148165f8301846147f4565b92915050565b614825816143f7565b811461482f575f5ffd5b50565b5f813590506148408161481c565b92915050565b5f5f6040838503121561485c5761485b613f52565b5b5f83013567ffffffffffffffff81111561487957614878613f56565b5b614885858286016140cb565b925050602061489685828601614832565b9150509250929050565b5f5f5f606084860312156148b7576148b6613f52565b5b5f84013567ffffffffffffffff8111156148d4576148d3613f56565b5b6148e0868287016140f8565b935050602084013567ffffffffffffffff81111561490157614900613f56565b5b61490d86828701614292565b925050604084013567ffffffffffffffff81111561492e5761492d613f56565b5b61493a86828701614292565b9150509250925092565b5f6020828403121561495957614958613f52565b5b5f82013567ffffffffffffffff81111561497657614975613f56565b5b614982848285016140cb565b91505092915050565b5f5f604083850312156149a1576149a0613f52565b5b5f6149ae85828601613fa0565b92505060206149bf85828601614832565b9150509250929050565b5f5f5f5f608085870312156149e1576149e0613f52565b5b5f6149ee87828801613fa0565b94505060206149ff87828801613fa0565b9350506040614a1087828801614449565b925050606085013567ffffffffffffffff811115614a3157614a30613f56565b5b614a3d8782880161473c565b91505092959194509250565b5f5f60408385031215614a5f57614a5e613f52565b5b5f614a6c85828601613fa0565b9250506020614a7d85828601613fa0565b9150509250929050565b7f4e487b71000000000000000000000000000000000000000000000000000000005f52601160045260245ffd5b5f614abe8261442a565b91507fffffffffffffffffffffffffffffffffffffffffffffffffffffffffffffffff8203614af057614aef614a87565b5b600182019050919050565b7f4e487b71000000000000000000000000000000000000000000000000000000005f52602260045260245ffd5b5f6002820490506001821680614b3f57607f821691505b602082108103614b5257614b51614afb565b5b50919050565b5f819050815f5260205f209050919050565b5f6020601f8301049050919050565b5f82821b905092915050565b5f60088302614bb47fffffffffffffffffffffffffffffffffffffffffffffffffffffffffffffffff82614b79565b614bbe8683614b79565b95508019841693508086168417925050509392505050565b5f819050919050565b5f614bf9614bf4614bef8461442a565b614bd6565b61442a565b9050919050565b5f819050919050565b614c1283614bdf565b614c26614c1e82614c00565b848454614b85565b825550505050565b5f5f905090565b614c3d614c2e565b614c48818484614c09565b505050565b5b81811015614c6b57614c605f82614c35565b600181019050614c4e565b5050565b601f821115614cb057614c8181614b58565b614c8a84614b6a565b81016020851015614c99578190505b614cad614ca585614b6a565b830182614c4d565b50505b505050565b5f82821c905092915050565b5f614cd05f1984600802614cb5565b1980831691505092915050565b5f614ce88383614cc1565b9150826002028217905092915050565b614d01826144e5565b67ffffffffffffffff811115614d1a57614d19613fc8565b5b614d248254614b28565b614d2f828285614c6f565b5f60209050601f831160018114614d60575f8415614d4e578287015190505b614d588582614cdd565b865550614dbf565b601f198416614d6e86614b58565b5f5b82811015614d9557848901518255600182019150602085019450602081019050614d70565b86831015614db25784890151614dae601f891682614cc1565b8355505b6001600288020188555050505b505050505050565b7f4e487b71000000000000000000000000000000000000000000000000000000005f52603260045260245ffd5b5f81905092915050565b5f614e08826144e5565b614e128185614df4565b9350614e228185602086016144ff565b80840191505092915050565b5f614e398284614dfe565b915081905092915050565b5f6040820190508181035f830152614e5c818561450d565b90508181036020830152614e70818461450d565b90509392505050565b5f606082019050614e8c5f830186614590565b614e9960208301856147f4565b614ea66040830184614590565b949350505050565b5f81905092915050565b5f819050815f5260205f209050919050565b5f8154614ed681614b28565b614ee08186614eae565b9450600182165f8114614efa5760018114614f0f57614f41565b60ff1983168652811515820286019350614f41565b614f1885614eb8565b5f5b83811015614f3957815481890152600182019150602081019050614f1a565b838801955050505b50505092915050565b5f614f558284614eca565b915081905092915050565b5f819050919050565b5f67ffffffffffffffff82169050919050565b5f614f96614f91614f8c84614f60565b614bd6565b614f69565b9050919050565b614fa681614f7c565b82525050565b5f602082019050614fbf5f830184614f9d565b92915050565b7f2c00000000000000000000000000000000000000000000000000000000000000815250565b5f614ff68284614dfe565b915061500182614fc5565b60018201915081905092915050565b7f7b226b6579223a22000000000000000000000000000000000000000000000000815250565b7f222c2276616c7565223a22000000000000000000000000000000000000000000815250565b7f227d000000000000000000000000000000000000000000000000000000000000815250565b5f61508d8286614dfe565b915061509882615010565b6008820191506150a88285614dfe565b91506150b382615036565b600b820191506150c38284614dfe565b91506150ce8261505c565b600282019150819050949350505050565b7f5d00000000000000000000000000000000000000000000000000000000000000815250565b5f6151108284614dfe565b915061511b826150df565b60018201915081905092915050565b7f7b226e616d65223a202242617365436172643a202300000000000000000000005f82015250565b5f61515e601583614df4565b91506151698261512a565b601582019050919050565b7f222c0000000000000000000000000000000000000000000000000000000000005f82015250565b5f6151a8600283614df4565b91506151b382615174565b600282019050919050565b7f22696d616765223a2022000000000000000000000000000000000000000000005f82015250565b5f6151f2600a83614df4565b91506151fd826151be565b600a82019050919050565b7f226e69636b6e616d65223a2022000000000000000000000000000000000000005f82015250565b5f61523c600d83614df4565b915061524782615208565b600d82019050919050565b7f22726f6c65223a202200000000000000000000000000000000000000000000005f82015250565b5f615286600983614df4565b915061529182615252565b600982019050919050565b7f2262696f223a20220000000000000000000000000000000000000000000000005f82015250565b5f6152d0600883614df4565b91506152db8261529c565b600882019050919050565b7f22736f6369616c73223a200000000000000000000000000000000000000000005f82015250565b5f61531a600b83614df4565b9150615325826152e6565b600b82019050919050565b7f7d000000000000000000000000000000000000000000000000000000000000005f82015250565b5f615364600183614df4565b915061536f82615330565b600182019050919050565b5f61538482615152565b91506153908289614dfe565b915061539b8261519c565b91506153a6826151e6565b91506153b28288614dfe565b91506153bd8261519c565b91506153c882615230565b91506153d48287614dfe565b91506153df8261519c565b91506153ea8261527a565b91506153f68286614dfe565b91506154018261519c565b915061540c826152c4565b91506154188285614dfe565b91506154238261519c565b915061542e8261530e565b915061543a8284614dfe565b915061544582615358565b9150819050979650505050505050565b7f646174613a6170706c69636174696f6e2f6a736f6e3b6261736536342c0000005f82015250565b5f615489601d83614df4565b915061549482615455565b601d82019050919050565b5f6154a98261547d565b91506154b58284614dfe565b915081905092915050565b5f6040820190506154d35f830185614590565b6154e060208301846147f4565b9392505050565b6154f0816147c3565b81146154fa575f5ffd5b50565b5f8151905061550b816154e7565b92915050565b5f6020828403121561552657615525613f52565b5b5f615533848285016154fd565b91505092915050565b5f81519050919050565b5f82825260208201905092915050565b5f6155608261553c565b61556a8185615546565b935061557a8185602086016144ff565b61558381613fb8565b840191505092915050565b5f6080820190506155a15f830187614590565b6155ae6020830186614590565b6155bb60408301856147f4565b81810360608301526155cd8184615556565b905095945050505050565b5f815190506155e6816143a2565b92915050565b5f6020828403121561560157615600613f52565b5b5f61560e848285016155d8565b91505092915050565b7f4e487b71000000000000000000000000000000000000000000000000000000005f52601260045260245ffd5b5f61564e8261442a565b91506156598361442a565b925082820190508082111561567157615670614a87565b5b92915050565b5f6156818261442a565b915061568c8361442a565b92508261569c5761569b615617565b5b828204905092915050565b5f6156b18261442a565b91506156bc8361442a565b92508282026156ca8161442a565b915082820484148315176156e1576156e0614a87565b5b509291505056fea2646970667358221220db4dd27f3314b7e8526fbe1de6dccf0c0247b69f3a1f5c7f3df694630e18aaaf64736f6c634300081e0033","linkReferences":{}},"methodIdentifiers":{"UPGRADE_INTERFACE_VERSION()":"ad3cb1cc","approve(address,uint256)":"095ea7b3","balanceOf(address)":"70a08231","burn(uint256)":"42966c68","getApproved(uint256)":"081812fc","getSocial(uint256,string)":"171b9219","hasMinted(address)":"38e21cce","initialize(address)":"c4d66de8","isAllowedSocialKey(string)":"97ac747a","isApprovedForAll(address,address)":"e985e9c5","linkSocial(uint256,string,string)":"0327fff6","migrateBaseCardFromTestnet(address,(string,string,string,string),string[],string[])":"01debcc7","migrationAdmin()":"74df2558","mintBaseCard((string,string,string,string),string[],string[])":"876e1bc6","name()":"06fdde03","owner()":"8da5cb5b","ownerOf(uint256)":"6352211e","proxiableUUID()":"52d1902d","renounceOwnership()":"715018a6","safeTransferFrom(address,address,uint256)":"42842e0e","safeTransferFrom(address,address,uint256,bytes)":"b88d4fde","setAllowedSocialKey(string,bool)":"83fda672","setApprovalForAll(address,bool)":"a22cb465","setMigrationAdmin(address)":"70ae07a1","supportsInterface(bytes4)":"01ffc9a7","symbol()":"95d89b41","tokenIdOf(address)":"773c02d4","tokenURI(uint256)":"c87b56dd","transferFrom(address,address,uint256)":"23b872dd","transferOwnership(address)":"f2fde38b","updateBio(uint256,string)":"f99c27c9","updateImageURI(uint256,string)":"8e5e6a28","updateNickname(uint256,string)":"c68905b9","upgradeToAndCall(address,bytes)":"4f1ef286"},"storageLayout":{"storage":[],"types":{}},"id":73}